{
  "_format": "hh-sol-artifact-1",
  "contractName": "GalaxyNFT",
  "sourceName": "contracts/GalaxyNFT.sol",
  "abi": [
    {
      "inputs": [
        {
          "internalType": "string",
          "name": "name",
          "type": "string"
        },
        {
          "internalType": "string",
          "name": "symbol",
          "type": "string"
        },
        {
          "internalType": "address",
          "name": "marketplaceAddress",
          "type": "address"
        },
        {
          "internalType": "string",
          "name": "data",
          "type": "string"
        },
        {
          "internalType": "uint256",
          "name": "price",
          "type": "uint256"
        }
      ],
      "stateMutability": "nonpayable",
      "type": "constructor"
    },
    {
      "anonymous": false,
      "inputs": [
        {
          "indexed": true,
          "internalType": "address",
          "name": "owner",
          "type": "address"
        },
        {
          "indexed": true,
          "internalType": "address",
          "name": "approved",
          "type": "address"
        },
        {
          "indexed": true,
          "internalType": "uint256",
          "name": "tokenId",
          "type": "uint256"
        }
      ],
      "name": "Approval",
      "type": "event"
    },
    {
      "anonymous": false,
      "inputs": [
        {
          "indexed": true,
          "internalType": "address",
          "name": "owner",
          "type": "address"
        },
        {
          "indexed": true,
          "internalType": "address",
          "name": "operator",
          "type": "address"
        },
        {
          "indexed": false,
          "internalType": "bool",
          "name": "approved",
          "type": "bool"
        }
      ],
      "name": "ApprovalForAll",
      "type": "event"
    },
    {
      "anonymous": false,
      "inputs": [
        {
          "indexed": true,
          "internalType": "address",
          "name": "from",
          "type": "address"
        },
        {
          "indexed": true,
          "internalType": "address",
          "name": "to",
          "type": "address"
        },
        {
          "indexed": true,
          "internalType": "uint256",
          "name": "tokenId",
          "type": "uint256"
        }
      ],
      "name": "Transfer",
      "type": "event"
    },
    {
      "inputs": [
        {
          "internalType": "uint256",
          "name": "id",
          "type": "uint256"
        },
        {
          "internalType": "string",
          "name": "tokenURI",
          "type": "string"
        }
      ],
      "name": "addTokenUri",
      "outputs": [],
      "stateMutability": "nonpayable",
      "type": "function"
    },
    {
      "inputs": [
        {
          "internalType": "address",
          "name": "to",
          "type": "address"
        },
        {
          "internalType": "uint256",
          "name": "tokenId",
          "type": "uint256"
        }
      ],
      "name": "approve",
      "outputs": [],
      "stateMutability": "nonpayable",
      "type": "function"
    },
    {
      "inputs": [
        {
          "internalType": "address",
          "name": "owner",
          "type": "address"
        }
      ],
      "name": "balanceOf",
      "outputs": [
        {
          "internalType": "uint256",
          "name": "",
          "type": "uint256"
        }
      ],
      "stateMutability": "view",
      "type": "function"
    },
    {
      "inputs": [],
      "name": "createToken",
      "outputs": [
        {
          "internalType": "uint256",
          "name": "",
          "type": "uint256"
        }
      ],
      "stateMutability": "payable",
      "type": "function"
    },
    {
      "inputs": [],
      "name": "getAllTokens",
      "outputs": [
        {
          "components": [
            {
              "internalType": "address",
              "name": "owner",
              "type": "address"
            },
            {
              "internalType": "bool",
              "name": "forSale",
              "type": "bool"
            },
            {
              "internalType": "uint256",
              "name": "price",
              "type": "uint256"
            },
            {
              "internalType": "uint256",
              "name": "pricePaid",
              "type": "uint256"
            },
            {
              "internalType": "uint256",
              "name": "purchaseDate",
              "type": "uint256"
            }
          ],
          "internalType": "struct GalaxyNFT.tokenState[]",
          "name": "",
          "type": "tuple[]"
        }
      ],
      "stateMutability": "view",
      "type": "function"
    },
    {
      "inputs": [
        {
          "internalType": "uint256",
          "name": "tokenId",
          "type": "uint256"
        }
      ],
      "name": "getApproved",
      "outputs": [
        {
          "internalType": "address",
          "name": "",
          "type": "address"
        }
      ],
      "stateMutability": "view",
      "type": "function"
    },
    {
      "inputs": [],
      "name": "getInitialSupply",
      "outputs": [
        {
          "internalType": "uint256",
          "name": "",
          "type": "uint256"
        }
      ],
      "stateMutability": "view",
      "type": "function"
    },
    {
      "inputs": [],
      "name": "getMaxSupply",
      "outputs": [
        {
          "internalType": "uint256",
          "name": "",
          "type": "uint256"
        }
      ],
      "stateMutability": "view",
      "type": "function"
    },
    {
      "inputs": [],
      "name": "getMetaData",
      "outputs": [
        {
          "internalType": "string",
          "name": "",
          "type": "string"
        }
      ],
      "stateMutability": "view",
      "type": "function"
    },
    {
      "inputs": [],
      "name": "getNumberForSale",
      "outputs": [
        {
          "internalType": "uint256",
          "name": "",
          "type": "uint256"
        }
      ],
      "stateMutability": "view",
      "type": "function"
    },
    {
      "inputs": [
        {
          "internalType": "uint256",
          "name": "tokenId",
          "type": "uint256"
        }
      ],
      "name": "getTokenState",
      "outputs": [
        {
          "components": [
            {
              "internalType": "address",
              "name": "owner",
              "type": "address"
            },
            {
              "internalType": "bool",
              "name": "forSale",
              "type": "bool"
            },
            {
              "internalType": "uint256",
              "name": "price",
              "type": "uint256"
            },
            {
              "internalType": "uint256",
              "name": "pricePaid",
              "type": "uint256"
            },
            {
              "internalType": "uint256",
              "name": "purchaseDate",
              "type": "uint256"
            }
          ],
          "internalType": "struct GalaxyNFT.tokenState",
          "name": "",
          "type": "tuple"
        }
      ],
      "stateMutability": "view",
      "type": "function"
    },
    {
      "inputs": [
        {
          "internalType": "address",
          "name": "owner",
          "type": "address"
        },
        {
          "internalType": "address",
          "name": "operator",
          "type": "address"
        }
      ],
      "name": "isApprovedForAll",
      "outputs": [
        {
          "internalType": "bool",
          "name": "",
          "type": "bool"
        }
      ],
      "stateMutability": "view",
      "type": "function"
    },
    {
      "inputs": [],
      "name": "name",
      "outputs": [
        {
          "internalType": "string",
          "name": "",
          "type": "string"
        }
      ],
      "stateMutability": "view",
      "type": "function"
    },
    {
      "inputs": [
        {
          "internalType": "uint256",
          "name": "tokenId",
          "type": "uint256"
        }
      ],
      "name": "ownerOf",
      "outputs": [
        {
          "internalType": "address",
          "name": "",
          "type": "address"
        }
      ],
      "stateMutability": "view",
      "type": "function"
    },
    {
      "inputs": [
        {
          "internalType": "uint256",
          "name": "tokenId",
          "type": "uint256"
        }
      ],
      "name": "purchaseToken",
      "outputs": [],
      "stateMutability": "payable",
      "type": "function"
    },
    {
      "inputs": [
        {
          "internalType": "address",
          "name": "from",
          "type": "address"
        },
        {
          "internalType": "address",
          "name": "to",
          "type": "address"
        },
        {
          "internalType": "uint256",
          "name": "tokenId",
          "type": "uint256"
        }
      ],
      "name": "safeTransferFrom",
      "outputs": [],
      "stateMutability": "nonpayable",
      "type": "function"
    },
    {
      "inputs": [
        {
          "internalType": "address",
          "name": "from",
          "type": "address"
        },
        {
          "internalType": "address",
          "name": "to",
          "type": "address"
        },
        {
          "internalType": "uint256",
          "name": "tokenId",
          "type": "uint256"
        },
        {
          "internalType": "bytes",
          "name": "_data",
          "type": "bytes"
        }
      ],
      "name": "safeTransferFrom",
      "outputs": [],
      "stateMutability": "nonpayable",
      "type": "function"
    },
    {
      "inputs": [
        {
          "internalType": "address",
          "name": "operator",
          "type": "address"
        },
        {
          "internalType": "bool",
          "name": "approved",
          "type": "bool"
        }
      ],
      "name": "setApprovalForAll",
      "outputs": [],
      "stateMutability": "nonpayable",
      "type": "function"
    },
    {
      "inputs": [
        {
          "internalType": "string",
          "name": "data",
          "type": "string"
        }
      ],
      "name": "setMetaData",
      "outputs": [],
      "stateMutability": "nonpayable",
      "type": "function"
    },
    {
      "inputs": [
        {
          "internalType": "uint256",
          "name": "tokenId",
          "type": "uint256"
        },
        {
          "internalType": "uint256",
          "name": "newPrice",
          "type": "uint256"
        }
      ],
      "name": "setTokenPrice",
      "outputs": [],
      "stateMutability": "nonpayable",
      "type": "function"
    },
    {
      "inputs": [
        {
          "internalType": "uint256",
          "name": "tokenId",
          "type": "uint256"
        },
        {
          "internalType": "bool",
          "name": "saleState",
          "type": "bool"
        }
      ],
      "name": "setTokenSaleState",
      "outputs": [],
      "stateMutability": "nonpayable",
      "type": "function"
    },
    {
      "inputs": [
        {
          "internalType": "bytes4",
          "name": "interfaceId",
          "type": "bytes4"
        }
      ],
      "name": "supportsInterface",
      "outputs": [
        {
          "internalType": "bool",
          "name": "",
          "type": "bool"
        }
      ],
      "stateMutability": "view",
      "type": "function"
    },
    {
      "inputs": [],
      "name": "symbol",
      "outputs": [
        {
          "internalType": "string",
          "name": "",
          "type": "string"
        }
      ],
      "stateMutability": "view",
      "type": "function"
    },
    {
      "inputs": [
        {
          "internalType": "uint256",
          "name": "tokenId",
          "type": "uint256"
        }
      ],
      "name": "tokenURI",
      "outputs": [
        {
          "internalType": "string",
          "name": "",
          "type": "string"
        }
      ],
      "stateMutability": "view",
      "type": "function"
    },
    {
      "inputs": [
        {
          "internalType": "address",
          "name": "from",
          "type": "address"
        },
        {
          "internalType": "address",
          "name": "to",
          "type": "address"
        },
        {
          "internalType": "uint256",
          "name": "tokenId",
          "type": "uint256"
        }
      ],
      "name": "transferFrom",
      "outputs": [],
      "stateMutability": "nonpayable",
      "type": "function"
    }
  ],
  "bytecode": "0x608060405260646008553480156200001657600080fd5b5060405162004c4138038062004c4183398181016040528101906200003c9190620007f5565b848481600090805190602001906200005692919062000699565b5080600190805190602001906200006f92919062000699565b50505082600960006101000a81548173ffffffffffffffffffffffffffffffffffffffff021916908373ffffffffffffffffffffffffffffffffffffffff16021790555081600b9080519060200190620000cb92919062000699565b5080600c8190555060006007819055506040518060a001604052803073ffffffffffffffffffffffffffffffffffffffff168152602001600015158152602001600c548152602001600c54815260200142815250600d6000600754815260200190815260200160002060008201518160000160006101000a81548173ffffffffffffffffffffffffffffffffffffffff021916908373ffffffffffffffffffffffffffffffffffffffff16021790555060208201518160000160146101000a81548160ff021916908315150217905550604082015181600101556060820151816002015560808201518160030155905050620001d033600754620002a260201b60201c565b62000205600960009054906101000a900473ffffffffffffffffffffffffffffffffffffffff1660016200048860201b60201c565b6001600760008282546200021a919062000a53565b9250508190555033600a60006101000a81548173ffffffffffffffffffffffffffffffffffffffff021916908373ffffffffffffffffffffffffffffffffffffffff16021790555062000297600960009054906101000a900473ffffffffffffffffffffffffffffffffffffffff1660016200048860201b60201c565b505050505062000cfd565b600073ffffffffffffffffffffffffffffffffffffffff168273ffffffffffffffffffffffffffffffffffffffff16141562000315576040517f08c379a00000000000000000000000000000000000000000000000000000000081526004016200030c90620009c1565b60405180910390fd5b6200032681620004ae60201b60201c565b1562000369576040517f08c379a000000000000000000000000000000000000000000000000000000000815260040162000360906200097d565b60405180910390fd5b6200037d600083836200051a60201b60201c565b6001600360008473ffffffffffffffffffffffffffffffffffffffff1673ffffffffffffffffffffffffffffffffffffffff1681526020019081526020016000206000828254620003cf919062000a53565b92505081905550816002600083815260200190815260200160002060006101000a81548173ffffffffffffffffffffffffffffffffffffffff021916908373ffffffffffffffffffffffffffffffffffffffff160217905550808273ffffffffffffffffffffffffffffffffffffffff16600073ffffffffffffffffffffffffffffffffffffffff167fddf252ad1be2c89b69c2b068fc378daa952ba7f163c4a11628f55a4df523b3ef60405160405180910390a45050565b620004aa6200049c6200051f60201b60201c565b83836200052760201b60201c565b5050565b60008073ffffffffffffffffffffffffffffffffffffffff166002600084815260200190815260200160002060009054906101000a900473ffffffffffffffffffffffffffffffffffffffff1673ffffffffffffffffffffffffffffffffffffffff1614159050919050565b505050565b600033905090565b8173ffffffffffffffffffffffffffffffffffffffff168373ffffffffffffffffffffffffffffffffffffffff16141562000599576040517f08c379a000000000000000000000000000000000000000000000000000000000815260040162000590906200099f565b60405180910390fd5b80600560008573ffffffffffffffffffffffffffffffffffffffff1673ffffffffffffffffffffffffffffffffffffffff16815260200190815260200160002060008473ffffffffffffffffffffffffffffffffffffffff1673ffffffffffffffffffffffffffffffffffffffff16815260200190815260200160002060006101000a81548160ff0219169083151502179055508173ffffffffffffffffffffffffffffffffffffffff168373ffffffffffffffffffffffffffffffffffffffff167f17307eab39ab6107e8899845ad3d59bd9653f200f220920489ca2b5937696c31836040516200068c919062000960565b60405180910390a3505050565b828054620006a79062000b30565b90600052602060002090601f016020900481019282620006cb576000855562000717565b82601f10620006e657805160ff191683800117855562000717565b8280016001018555821562000717579182015b8281111562000716578251825591602001919060010190620006f9565b5b5090506200072691906200072a565b5090565b5b80821115620007455760008160009055506001016200072b565b5090565b6000620007606200075a8462000a0c565b620009e3565b9050828152602081018484840111156200077f576200077e62000c2e565b5b6200078c84828562000afa565b509392505050565b600081519050620007a58162000cc9565b92915050565b600082601f830112620007c357620007c262000c29565b5b8151620007d584826020860162000749565b91505092915050565b600081519050620007ef8162000ce3565b92915050565b600080600080600060a0868803121562000814576200081362000c38565b5b600086015167ffffffffffffffff81111562000835576200083462000c33565b5b6200084388828901620007ab565b955050602086015167ffffffffffffffff81111562000867576200086662000c33565b5b6200087588828901620007ab565b9450506040620008888882890162000794565b935050606086015167ffffffffffffffff811115620008ac57620008ab62000c33565b5b620008ba88828901620007ab565b9250506080620008cd88828901620007de565b9150509295509295909350565b620008e58162000ac4565b82525050565b6000620008fa601c8362000a42565b9150620009078262000c4e565b602082019050919050565b60006200092160198362000a42565b91506200092e8262000c77565b602082019050919050565b60006200094860208362000a42565b9150620009558262000ca0565b602082019050919050565b6000602082019050620009776000830184620008da565b92915050565b600060208201905081810360008301526200099881620008eb565b9050919050565b60006020820190508181036000830152620009ba8162000912565b9050919050565b60006020820190508181036000830152620009dc8162000939565b9050919050565b6000620009ef62000a02565b9050620009fd828262000b66565b919050565b6000604051905090565b600067ffffffffffffffff82111562000a2a5762000a2962000bfa565b5b62000a358262000c3d565b9050602081019050919050565b600082825260208201905092915050565b600062000a608262000af0565b915062000a6d8362000af0565b9250827fffffffffffffffffffffffffffffffffffffffffffffffffffffffffffffffff0382111562000aa55762000aa462000b9c565b5b828201905092915050565b600062000abd8262000ad0565b9050919050565b60008115159050919050565b600073ffffffffffffffffffffffffffffffffffffffff82169050919050565b6000819050919050565b60005b8381101562000b1a57808201518184015260208101905062000afd565b8381111562000b2a576000848401525b50505050565b6000600282049050600182168062000b4957607f821691505b6020821081141562000b605762000b5f62000bcb565b5b50919050565b62000b718262000c3d565b810181811067ffffffffffffffff8211171562000b935762000b9262000bfa565b5b80604052505050565b7f4e487b7100000000000000000000000000000000000000000000000000000000600052601160045260246000fd5b7f4e487b7100000000000000000000000000000000000000000000000000000000600052602260045260246000fd5b7f4e487b7100000000000000000000000000000000000000000000000000000000600052604160045260246000fd5b600080fd5b600080fd5b600080fd5b600080fd5b6000601f19601f8301169050919050565b7f4552433732313a20746f6b656e20616c7265616479206d696e74656400000000600082015250565b7f4552433732313a20617070726f766520746f2063616c6c657200000000000000600082015250565b7f4552433732313a206d696e7420746f20746865207a65726f2061646472657373600082015250565b62000cd48162000ab0565b811462000ce057600080fd5b50565b62000cee8162000af0565b811462000cfa57600080fd5b50565b613f348062000d0d6000396000f3fe6080604052600436106101665760003560e01c806395d89b41116100d1578063d15ecc4c1161008a578063db004fc611610064578063db004fc614610522578063e985e9c51461054b578063eb685c4714610588578063f45fd0f3146105b157610166565b8063d15ecc4c146104a5578063d2786ba4146104ce578063d821f81a146104f957610166565b806395d89b41146103b15780639cbf9e36146103dc578063a22cb465146103fa578063b88d4fde14610423578063c2db2c421461044c578063c87b56dd1461046857610166565b80632b013d6d116101235780632b013d6d1461028d57806342842e0e146102b85780634c0f38c2146102e15780636352211e1461030c57806370a082311461034957806381a4a6d81461038657610166565b806301ffc9a71461016b57806306fdde03146101a8578063081812fc146101d3578063095ea7b31461021057806323b872dd146102395780632a5c792a14610262575b600080fd5b34801561017757600080fd5b50610192600480360381019061018d9190612930565b6105ee565b60405161019f91906130ce565b60405180910390f35b3480156101b457600080fd5b506101bd6106d0565b6040516101ca91906130e9565b60405180910390f35b3480156101df57600080fd5b506101fa60048036038101906101f591906129d3565b610762565b6040516102079190613045565b60405180910390f35b34801561021c57600080fd5b50610237600480360381019061023291906128f0565b6107e7565b005b34801561024557600080fd5b50610260600480360381019061025b91906127da565b6108ff565b005b34801561026e57600080fd5b5061027761095f565b60405161028491906130ac565b60405180910390f35b34801561029957600080fd5b506102a2610b0c565b6040516102af91906133e6565b60405180910390f35b3480156102c457600080fd5b506102df60048036038101906102da91906127da565b610b7b565b005b3480156102ed57600080fd5b506102f6610b9b565b60405161030391906133e6565b60405180910390f35b34801561031857600080fd5b50610333600480360381019061032e91906129d3565b610ba5565b6040516103409190613045565b60405180910390f35b34801561035557600080fd5b50610370600480360381019061036b919061276d565b610c57565b60405161037d91906133e6565b60405180910390f35b34801561039257600080fd5b5061039b610d0f565b6040516103a891906133e6565b60405180910390f35b3480156103bd57600080fd5b506103c6610d19565b6040516103d391906130e9565b60405180910390f35b6103e4610dab565b6040516103f191906133e6565b60405180910390f35b34801561040657600080fd5b50610421600480360381019061041c91906128b0565b610fe0565b005b34801561042f57600080fd5b5061044a6004803603810190610445919061282d565b610ff6565b005b610466600480360381019061046191906129d3565b611058565b005b34801561047457600080fd5b5061048f600480360381019061048a91906129d3565b61128f565b60405161049c91906130e9565b60405180910390f35b3480156104b157600080fd5b506104cc60048036038101906104c79190612a40565b6113e1565b005b3480156104da57600080fd5b506104e361147f565b6040516104f091906130e9565b60405180910390f35b34801561050557600080fd5b50610520600480360381019061051b919061298a565b611511565b005b34801561052e57600080fd5b5061054960048036038101906105449190612a00565b6115bb565b005b34801561055757600080fd5b50610572600480360381019061056d919061279a565b611665565b60405161057f91906130ce565b60405180910390f35b34801561059457600080fd5b506105af60048036038101906105aa9190612a9c565b6116f9565b005b3480156105bd57600080fd5b506105d860048036038101906105d391906129d3565b6117d4565b6040516105e591906133cb565b60405180910390f35b60007f80ac58cd000000000000000000000000000000000000000000000000000000007bffffffffffffffffffffffffffffffffffffffffffffffffffffffff1916827bffffffffffffffffffffffffffffffffffffffffffffffffffffffff191614806106b957507f5b5e139f000000000000000000000000000000000000000000000000000000007bffffffffffffffffffffffffffffffffffffffffffffffffffffffff1916827bffffffffffffffffffffffffffffffffffffffffffffffffffffffff1916145b806106c957506106c882611890565b5b9050919050565b6060600080546106df906136cf565b80601f016020809104026020016040519081016040528092919081815260200182805461070b906136cf565b80156107585780601f1061072d57610100808354040283529160200191610758565b820191906000526020600020905b81548152906001019060200180831161073b57829003601f168201915b5050505050905090565b600061076d826118fa565b6107ac576040517f08c379a00000000000000000000000000000000000000000000000000000000081526004016107a3906132eb565b60405180910390fd5b6004600083815260200190815260200160002060009054906101000a900473ffffffffffffffffffffffffffffffffffffffff169050919050565b60006107f282610ba5565b90508073ffffffffffffffffffffffffffffffffffffffff168373ffffffffffffffffffffffffffffffffffffffff161415610863576040517f08c379a000000000000000000000000000000000000000000000000000000000815260040161085a9061336b565b60405180910390fd5b8073ffffffffffffffffffffffffffffffffffffffff16610882611966565b73ffffffffffffffffffffffffffffffffffffffff1614806108b157506108b0816108ab611966565b611665565b5b6108f0576040517f08c379a00000000000000000000000000000000000000000000000000000000081526004016108e79061320b565b60405180910390fd5b6108fa838361196e565b505050565b61091061090a611966565b82611a27565b61094f576040517f08c379a00000000000000000000000000000000000000000000000000000000081526004016109469061338b565b60405180910390fd5b61095a838383611b05565b505050565b6060600060075467ffffffffffffffff81111561097f5761097e613868565b5b6040519080825280602002602001820160405280156109b857816020015b6109a561253a565b81526020019060019003908161099d5790505b50905060005b600754811015610b04576109d061253a565b600d600083815260200190815260200160002060000160009054906101000a900473ffffffffffffffffffffffffffffffffffffffff16816000019073ffffffffffffffffffffffffffffffffffffffff16908173ffffffffffffffffffffffffffffffffffffffff1681525050600d600083815260200190815260200160002060000160149054906101000a900460ff16816020019015159081151581525050600d600083815260200190815260200160002060010154816040018181525050600d600083815260200190815260200160002060020154816060018181525050600d60008381526020019081526020016000206003015481608001818152505080838381518110610ae557610ae4613839565b5b6020026020010181905250508080610afc90613732565b9150506109be565b508091505090565b6000806000905060005b600754811015610b735760011515600d600083815260200190815260200160002060000160149054906101000a900460ff1615151415610b6057600182610b5d9190613504565b91505b8080610b6b90613732565b915050610b16565b508091505090565b610b9683838360405180602001604052806000815250610ff6565b505050565b6000600854905090565b6000806002600084815260200190815260200160002060009054906101000a900473ffffffffffffffffffffffffffffffffffffffff169050600073ffffffffffffffffffffffffffffffffffffffff168173ffffffffffffffffffffffffffffffffffffffff161415610c4e576040517f08c379a0000000000000000000000000000000000000000000000000000000008152600401610c459061326b565b60405180910390fd5b80915050919050565b60008073ffffffffffffffffffffffffffffffffffffffff168273ffffffffffffffffffffffffffffffffffffffff161415610cc8576040517f08c379a0000000000000000000000000000000000000000000000000000000008152600401610cbf9061324b565b60405180910390fd5b600360008373ffffffffffffffffffffffffffffffffffffffff1673ffffffffffffffffffffffffffffffffffffffff168152602001908152602001600020549050919050565b6000600c54905090565b606060018054610d28906136cf565b80601f0160208091040260200160405190810160405280929190818152602001828054610d54906136cf565b8015610da15780601f10610d7657610100808354040283529160200191610da1565b820191906000526020600020905b815481529060010190602001808311610d8457829003601f168201915b5050505050905090565b600060085460075410610df3576040517f08c379a0000000000000000000000000000000000000000000000000000000008152600401610dea9061322b565b60405180910390fd5b600c543414610e37576040517f08c379a0000000000000000000000000000000000000000000000000000000008152600401610e2e9061334b565b60405180910390fd5b600a60009054906101000a900473ffffffffffffffffffffffffffffffffffffffff1673ffffffffffffffffffffffffffffffffffffffff166108fc600c549081150290604051600060405180830381858888f19350505050158015610ea1573d6000803e3d6000fd5b50600060075490506040518060a001604052803073ffffffffffffffffffffffffffffffffffffffff168152602001600015158152602001600c548152602001600c54815260200142815250600d600083815260200190815260200160002060008201518160000160006101000a81548173ffffffffffffffffffffffffffffffffffffffff021916908373ffffffffffffffffffffffffffffffffffffffff16021790555060208201518160000160146101000a81548160ff021916908315150217905550604082015181600101556060820151816002015560808201518160030155905050610f923382611d61565b610fbf600960009054906101000a900473ffffffffffffffffffffffffffffffffffffffff166001610fe0565b600160076000828254610fd29190613504565b925050819055508091505090565b610ff2610feb611966565b8383611f2f565b5050565b611007611001611966565b83611a27565b611046576040517f08c379a000000000000000000000000000000000000000000000000000000000815260040161103d9061338b565b60405180910390fd5b6110528484848461209c565b50505050565b8060011515600d600083815260200190815260200160002060000160149054906101000a900460ff161515146110c3576040517f08c379a00000000000000000000000000000000000000000000000000000000081526004016110ba9061314b565b60405180910390fd5b60006110ce83610ba5565b90506000349050600060076064346110e6919061355a565b6110f0919061358b565b9050600a60009054906101000a900473ffffffffffffffffffffffffffffffffffffffff1673ffffffffffffffffffffffffffffffffffffffff166108fc829081150290604051600060405180830381858888f1935050505015801561115a573d6000803e3d6000fd5b508273ffffffffffffffffffffffffffffffffffffffff166108fc349081150290604051600060405180830381858888f193505050501580156111a1573d6000803e3d6000fd5b506111ad833387611b05565b6040518060a001604052803373ffffffffffffffffffffffffffffffffffffffff16815260200160001515815260200183815260200183815260200142815250600d600087815260200190815260200160002060008201518160000160006101000a81548173ffffffffffffffffffffffffffffffffffffffff021916908373ffffffffffffffffffffffffffffffffffffffff16021790555060208201518160000160146101000a81548160ff0219169083151502179055506040820151816001015560608201518160020155608082015181600301559050505050505050565b606061129a826118fa565b6112d9576040517f08c379a00000000000000000000000000000000000000000000000000000000081526004016112d0906132cb565b60405180910390fd5b60006006600084815260200190815260200160002080546112f9906136cf565b80601f0160208091040260200160405190810160405280929190818152602001828054611325906136cf565b80156113725780601f1061134757610100808354040283529160200191611372565b820191906000526020600020905b81548152906001019060200180831161135557829003601f168201915b5050505050905060006113836120f8565b90506000815114156113995781925050506113dc565b6000825111156113ce5780826040516020016113b6929190613021565b604051602081830303815290604052925050506113dc565b6113d78461210f565b925050505b919050565b600a60009054906101000a900473ffffffffffffffffffffffffffffffffffffffff1673ffffffffffffffffffffffffffffffffffffffff163373ffffffffffffffffffffffffffffffffffffffff1614611471576040517f08c379a0000000000000000000000000000000000000000000000000000000008152600401611468906133ab565b60405180910390fd5b61147b82826121b6565b5050565b6060600b805461148e906136cf565b80601f01602080910402602001604051908101604052809291908181526020018280546114ba906136cf565b80156115075780601f106114dc57610100808354040283529160200191611507565b820191906000526020600020905b8154815290600101906020018083116114ea57829003601f168201915b5050505050905090565b600a60009054906101000a900473ffffffffffffffffffffffffffffffffffffffff1673ffffffffffffffffffffffffffffffffffffffff163373ffffffffffffffffffffffffffffffffffffffff16146115a1576040517f08c379a0000000000000000000000000000000000000000000000000000000008152600401611598906133ab565b60405180910390fd5b80600b90805190602001906115b7929190612581565b5050565b816115c581610ba5565b73ffffffffffffffffffffffffffffffffffffffff163373ffffffffffffffffffffffffffffffffffffffff1614611632576040517f08c379a0000000000000000000000000000000000000000000000000000000008152600401611629906131eb565b60405180910390fd5b81600d600085815260200190815260200160002060000160146101000a81548160ff021916908315150217905550505050565b6000600560008473ffffffffffffffffffffffffffffffffffffffff1673ffffffffffffffffffffffffffffffffffffffff16815260200190815260200160002060008373ffffffffffffffffffffffffffffffffffffffff1673ffffffffffffffffffffffffffffffffffffffff16815260200190815260200160002060009054906101000a900460ff16905092915050565b8161170381610ba5565b73ffffffffffffffffffffffffffffffffffffffff163373ffffffffffffffffffffffffffffffffffffffff1614611770576040517f08c379a0000000000000000000000000000000000000000000000000000000008152600401611767906131eb565b60405180910390fd5b60648210156117b4576040517f08c379a00000000000000000000000000000000000000000000000000000000081526004016117ab9061310b565b60405180910390fd5b81600d600085815260200190815260200160002060010181905550505050565b6117dc61253a565b600d60008381526020019081526020016000206040518060a00160405290816000820160009054906101000a900473ffffffffffffffffffffffffffffffffffffffff1673ffffffffffffffffffffffffffffffffffffffff1673ffffffffffffffffffffffffffffffffffffffff1681526020016000820160149054906101000a900460ff1615151515815260200160018201548152602001600282015481526020016003820154815250509050919050565b60007f01ffc9a7000000000000000000000000000000000000000000000000000000007bffffffffffffffffffffffffffffffffffffffffffffffffffffffff1916827bffffffffffffffffffffffffffffffffffffffffffffffffffffffff1916149050919050565b60008073ffffffffffffffffffffffffffffffffffffffff166002600084815260200190815260200160002060009054906101000a900473ffffffffffffffffffffffffffffffffffffffff1673ffffffffffffffffffffffffffffffffffffffff1614159050919050565b600033905090565b816004600083815260200190815260200160002060006101000a81548173ffffffffffffffffffffffffffffffffffffffff021916908373ffffffffffffffffffffffffffffffffffffffff160217905550808273ffffffffffffffffffffffffffffffffffffffff166119e183610ba5565b73ffffffffffffffffffffffffffffffffffffffff167f8c5be1e5ebec7d5bd14f71427d1e84f3dd0314c0f7b2291e5b200ac8c7c3b92560405160405180910390a45050565b6000611a32826118fa565b611a71576040517f08c379a0000000000000000000000000000000000000000000000000000000008152600401611a68906131cb565b60405180910390fd5b6000611a7c83610ba5565b90508073ffffffffffffffffffffffffffffffffffffffff168473ffffffffffffffffffffffffffffffffffffffff161480611aeb57508373ffffffffffffffffffffffffffffffffffffffff16611ad384610762565b73ffffffffffffffffffffffffffffffffffffffff16145b80611afc5750611afb8185611665565b5b91505092915050565b8273ffffffffffffffffffffffffffffffffffffffff16611b2582610ba5565b73ffffffffffffffffffffffffffffffffffffffff1614611b7b576040517f08c379a0000000000000000000000000000000000000000000000000000000008152600401611b729061330b565b60405180910390fd5b600073ffffffffffffffffffffffffffffffffffffffff168273ffffffffffffffffffffffffffffffffffffffff161415611beb576040517f08c379a0000000000000000000000000000000000000000000000000000000008152600401611be29061318b565b60405180910390fd5b611bf683838361222a565b611c0160008261196e565b6001600360008573ffffffffffffffffffffffffffffffffffffffff1673ffffffffffffffffffffffffffffffffffffffff1681526020019081526020016000206000828254611c5191906135e5565b925050819055506001600360008473ffffffffffffffffffffffffffffffffffffffff1673ffffffffffffffffffffffffffffffffffffffff1681526020019081526020016000206000828254611ca89190613504565b92505081905550816002600083815260200190815260200160002060006101000a81548173ffffffffffffffffffffffffffffffffffffffff021916908373ffffffffffffffffffffffffffffffffffffffff160217905550808273ffffffffffffffffffffffffffffffffffffffff168473ffffffffffffffffffffffffffffffffffffffff167fddf252ad1be2c89b69c2b068fc378daa952ba7f163c4a11628f55a4df523b3ef60405160405180910390a4505050565b600073ffffffffffffffffffffffffffffffffffffffff168273ffffffffffffffffffffffffffffffffffffffff161415611dd1576040517f08c379a0000000000000000000000000000000000000000000000000000000008152600401611dc8906132ab565b60405180910390fd5b611dda816118fa565b15611e1a576040517f08c379a0000000000000000000000000000000000000000000000000000000008152600401611e119061316b565b60405180910390fd5b611e266000838361222a565b6001600360008473ffffffffffffffffffffffffffffffffffffffff1673ffffffffffffffffffffffffffffffffffffffff1681526020019081526020016000206000828254611e769190613504565b92505081905550816002600083815260200190815260200160002060006101000a81548173ffffffffffffffffffffffffffffffffffffffff021916908373ffffffffffffffffffffffffffffffffffffffff160217905550808273ffffffffffffffffffffffffffffffffffffffff16600073ffffffffffffffffffffffffffffffffffffffff167fddf252ad1be2c89b69c2b068fc378daa952ba7f163c4a11628f55a4df523b3ef60405160405180910390a45050565b8173ffffffffffffffffffffffffffffffffffffffff168373ffffffffffffffffffffffffffffffffffffffff161415611f9e576040517f08c379a0000000000000000000000000000000000000000000000000000000008152600401611f95906131ab565b60405180910390fd5b80600560008573ffffffffffffffffffffffffffffffffffffffff1673ffffffffffffffffffffffffffffffffffffffff16815260200190815260200160002060008473ffffffffffffffffffffffffffffffffffffffff1673ffffffffffffffffffffffffffffffffffffffff16815260200190815260200160002060006101000a81548160ff0219169083151502179055508173ffffffffffffffffffffffffffffffffffffffff168373ffffffffffffffffffffffffffffffffffffffff167f17307eab39ab6107e8899845ad3d59bd9653f200f220920489ca2b5937696c318360405161208f91906130ce565b60405180910390a3505050565b6120a7848484611b05565b6120b38484848461222f565b6120f2576040517f08c379a00000000000000000000000000000000000000000000000000000000081526004016120e99061312b565b60405180910390fd5b50505050565b606060405180602001604052806000815250905090565b606061211a826118fa565b612159576040517f08c379a00000000000000000000000000000000000000000000000000000000081526004016121509061332b565b60405180910390fd5b60006121636120f8565b9050600081511161218357604051806020016040528060008152506121ae565b8061218d846123c6565b60405160200161219e929190613021565b6040516020818303038152906040525b915050919050565b6121bf826118fa565b6121fe576040517f08c379a00000000000000000000000000000000000000000000000000000000081526004016121f59061328b565b60405180910390fd5b80600660008481526020019081526020016000209080519060200190612225929190612581565b505050565b505050565b60006122508473ffffffffffffffffffffffffffffffffffffffff16612527565b156123b9578373ffffffffffffffffffffffffffffffffffffffff1663150b7a02612279611966565b8786866040518563ffffffff1660e01b815260040161229b9493929190613060565b602060405180830381600087803b1580156122b557600080fd5b505af19250505080156122e657506040513d601f19601f820116820180604052508101906122e3919061295d565b60015b612369573d8060008114612316576040519150601f19603f3d011682016040523d82523d6000602084013e61231b565b606091505b50600081511415612361576040517f08c379a00000000000000000000000000000000000000000000000000000000081526004016123589061312b565b60405180910390fd5b805181602001fd5b63150b7a0260e01b7bffffffffffffffffffffffffffffffffffffffffffffffffffffffff1916817bffffffffffffffffffffffffffffffffffffffffffffffffffffffff1916149150506123be565b600190505b949350505050565b6060600082141561240e576040518060400160405280600181526020017f30000000000000000000000000000000000000000000000000000000000000008152509050612522565b600082905060005b6000821461244057808061242990613732565b915050600a82612439919061355a565b9150612416565b60008167ffffffffffffffff81111561245c5761245b613868565b5b6040519080825280601f01601f19166020018201604052801561248e5781602001600182028036833780820191505090505b5090505b6000851461251b576001826124a791906135e5565b9150600a856124b6919061377b565b60306124c29190613504565b60f81b8183815181106124d8576124d7613839565b5b60200101907effffffffffffffffffffffffffffffffffffffffffffffffffffffffffffff1916908160001a905350600a85612514919061355a565b9450612492565b8093505050505b919050565b600080823b905060008111915050919050565b6040518060a00160405280600073ffffffffffffffffffffffffffffffffffffffff1681526020016000151581526020016000815260200160008152602001600081525090565b82805461258d906136cf565b90600052602060002090601f0160209004810192826125af57600085556125f6565b82601f106125c857805160ff19168380011785556125f6565b828001600101855582156125f6579182015b828111156125f55782518255916020019190600101906125da565b5b5090506126039190612607565b5090565b5b80821115612620576000816000905550600101612608565b5090565b600061263761263284613426565b613401565b9050828152602081018484840111156126535761265261389c565b5b61265e84828561368d565b509392505050565b600061267961267484613457565b613401565b9050828152602081018484840111156126955761269461389c565b5b6126a084828561368d565b509392505050565b6000813590506126b781613ea2565b92915050565b6000813590506126cc81613eb9565b92915050565b6000813590506126e181613ed0565b92915050565b6000815190506126f681613ed0565b92915050565b600082601f83011261271157612710613897565b5b8135612721848260208601612624565b91505092915050565b600082601f83011261273f5761273e613897565b5b813561274f848260208601612666565b91505092915050565b60008135905061276781613ee7565b92915050565b600060208284031215612783576127826138a6565b5b6000612791848285016126a8565b91505092915050565b600080604083850312156127b1576127b06138a6565b5b60006127bf858286016126a8565b92505060206127d0858286016126a8565b9150509250929050565b6000806000606084860312156127f3576127f26138a6565b5b6000612801868287016126a8565b9350506020612812868287016126a8565b925050604061282386828701612758565b9150509250925092565b60008060008060808587031215612847576128466138a6565b5b6000612855878288016126a8565b9450506020612866878288016126a8565b935050604061287787828801612758565b925050606085013567ffffffffffffffff811115612898576128976138a1565b5b6128a4878288016126fc565b91505092959194509250565b600080604083850312156128c7576128c66138a6565b5b60006128d5858286016126a8565b92505060206128e6858286016126bd565b9150509250929050565b60008060408385031215612907576129066138a6565b5b6000612915858286016126a8565b925050602061292685828601612758565b9150509250929050565b600060208284031215612946576129456138a6565b5b6000612954848285016126d2565b91505092915050565b600060208284031215612973576129726138a6565b5b6000612981848285016126e7565b91505092915050565b6000602082840312156129a05761299f6138a6565b5b600082013567ffffffffffffffff8111156129be576129bd6138a1565b5b6129ca8482850161272a565b91505092915050565b6000602082840312156129e9576129e86138a6565b5b60006129f784828501612758565b91505092915050565b60008060408385031215612a1757612a166138a6565b5b6000612a2585828601612758565b9250506020612a36858286016126bd565b9150509250929050565b60008060408385031215612a5757612a566138a6565b5b6000612a6585828601612758565b925050602083013567ffffffffffffffff811115612a8657612a856138a1565b5b612a928582860161272a565b9150509250929050565b60008060408385031215612ab357612ab26138a6565b5b6000612ac185828601612758565b9250506020612ad285828601612758565b9150509250929050565b6000612ae88383612f33565b60a08301905092915050565b612afd81613619565b82525050565b612b0c81613619565b82525050565b6000612b1d82613498565b612b2781856134c6565b9350612b3283613488565b8060005b83811015612b63578151612b4a8882612adc565b9750612b55836134b9565b925050600181019050612b36565b5085935050505092915050565b612b798161362b565b82525050565b612b888161362b565b82525050565b6000612b99826134a3565b612ba381856134d7565b9350612bb381856020860161369c565b612bbc816138ab565b840191505092915050565b6000612bd2826134ae565b612bdc81856134e8565b9350612bec81856020860161369c565b612bf5816138ab565b840191505092915050565b6000612c0b826134ae565b612c1581856134f9565b9350612c2581856020860161369c565b80840191505092915050565b6000612c3e6011836134e8565b9150612c49826138bc565b602082019050919050565b6000612c616032836134e8565b9150612c6c826138e5565b604082019050919050565b6000612c84601a836134e8565b9150612c8f82613934565b602082019050919050565b6000612ca7601c836134e8565b9150612cb28261395d565b602082019050919050565b6000612cca6024836134e8565b9150612cd582613986565b604082019050919050565b6000612ced6019836134e8565b9150612cf8826139d5565b602082019050919050565b6000612d10602c836134e8565b9150612d1b826139fe565b604082019050919050565b6000612d33602c836134e8565b9150612d3e82613a4d565b604082019050919050565b6000612d566038836134e8565b9150612d6182613a9c565b604082019050919050565b6000612d79602a836134e8565b9150612d8482613aeb565b604082019050919050565b6000612d9c602a836134e8565b9150612da782613b3a565b604082019050919050565b6000612dbf6029836134e8565b9150612dca82613b89565b604082019050919050565b6000612de2602e836134e8565b9150612ded82613bd8565b604082019050919050565b6000612e056020836134e8565b9150612e1082613c27565b602082019050919050565b6000612e286031836134e8565b9150612e3382613c50565b604082019050919050565b6000612e4b602c836134e8565b9150612e5682613c9f565b604082019050919050565b6000612e6e6029836134e8565b9150612e7982613cee565b604082019050919050565b6000612e91602f836134e8565b9150612e9c82613d3d565b604082019050919050565b6000612eb46019836134e8565b9150612ebf82613d8c565b602082019050919050565b6000612ed76021836134e8565b9150612ee282613db5565b604082019050919050565b6000612efa6031836134e8565b9150612f0582613e04565b604082019050919050565b6000612f1d6028836134e8565b9150612f2882613e53565b604082019050919050565b60a082016000820151612f496000850182612af4565b506020820151612f5c6020850182612b70565b506040820151612f6f6040850182613003565b506060820151612f826060850182613003565b506080820151612f956080850182613003565b50505050565b60a082016000820151612fb16000850182612af4565b506020820151612fc46020850182612b70565b506040820151612fd76040850182613003565b506060820151612fea6060850182613003565b506080820151612ffd6080850182613003565b50505050565b61300c81613683565b82525050565b61301b81613683565b82525050565b600061302d8285612c00565b91506130398284612c00565b91508190509392505050565b600060208201905061305a6000830184612b03565b92915050565b60006080820190506130756000830187612b03565b6130826020830186612b03565b61308f6040830185613012565b81810360608301526130a18184612b8e565b905095945050505050565b600060208201905081810360008301526130c68184612b12565b905092915050565b60006020820190506130e36000830184612b7f565b92915050565b600060208201905081810360008301526131038184612bc7565b905092915050565b6000602082019050818103600083015261312481612c31565b9050919050565b6000602082019050818103600083015261314481612c54565b9050919050565b6000602082019050818103600083015261316481612c77565b9050919050565b6000602082019050818103600083015261318481612c9a565b9050919050565b600060208201905081810360008301526131a481612cbd565b9050919050565b600060208201905081810360008301526131c481612ce0565b9050919050565b600060208201905081810360008301526131e481612d03565b9050919050565b6000602082019050818103600083015261320481612d26565b9050919050565b6000602082019050818103600083015261322481612d49565b9050919050565b6000602082019050818103600083015261324481612d6c565b9050919050565b6000602082019050818103600083015261326481612d8f565b9050919050565b6000602082019050818103600083015261328481612db2565b9050919050565b600060208201905081810360008301526132a481612dd5565b9050919050565b600060208201905081810360008301526132c481612df8565b9050919050565b600060208201905081810360008301526132e481612e1b565b9050919050565b6000602082019050818103600083015261330481612e3e565b9050919050565b6000602082019050818103600083015261332481612e61565b9050919050565b6000602082019050818103600083015261334481612e84565b9050919050565b6000602082019050818103600083015261336481612ea7565b9050919050565b6000602082019050818103600083015261338481612eca565b9050919050565b600060208201905081810360008301526133a481612eed565b9050919050565b600060208201905081810360008301526133c481612f10565b9050919050565b600060a0820190506133e06000830184612f9b565b92915050565b60006020820190506133fb6000830184613012565b92915050565b600061340b61341c565b90506134178282613701565b919050565b6000604051905090565b600067ffffffffffffffff82111561344157613440613868565b5b61344a826138ab565b9050602081019050919050565b600067ffffffffffffffff82111561347257613471613868565b5b61347b826138ab565b9050602081019050919050565b6000819050602082019050919050565b600081519050919050565b600081519050919050565b600081519050919050565b6000602082019050919050565b600082825260208201905092915050565b600082825260208201905092915050565b600082825260208201905092915050565b600081905092915050565b600061350f82613683565b915061351a83613683565b9250827fffffffffffffffffffffffffffffffffffffffffffffffffffffffffffffffff0382111561354f5761354e6137ac565b5b828201905092915050565b600061356582613683565b915061357083613683565b9250826135805761357f6137db565b5b828204905092915050565b600061359682613683565b91506135a183613683565b9250817fffffffffffffffffffffffffffffffffffffffffffffffffffffffffffffffff04831182151516156135da576135d96137ac565b5b828202905092915050565b60006135f082613683565b91506135fb83613683565b92508282101561360e5761360d6137ac565b5b828203905092915050565b600061362482613663565b9050919050565b60008115159050919050565b60007fffffffff0000000000000000000000000000000000000000000000000000000082169050919050565b600073ffffffffffffffffffffffffffffffffffffffff82169050919050565b6000819050919050565b82818337600083830152505050565b60005b838110156136ba57808201518184015260208101905061369f565b838111156136c9576000848401525b50505050565b600060028204905060018216806136e757607f821691505b602082108114156136fb576136fa61380a565b5b50919050565b61370a826138ab565b810181811067ffffffffffffffff8211171561372957613728613868565b5b80604052505050565b600061373d82613683565b91507fffffffffffffffffffffffffffffffffffffffffffffffffffffffffffffffff8214156137705761376f6137ac565b5b600182019050919050565b600061378682613683565b915061379183613683565b9250826137a1576137a06137db565b5b828206905092915050565b7f4e487b7100000000000000000000000000000000000000000000000000000000600052601160045260246000fd5b7f4e487b7100000000000000000000000000000000000000000000000000000000600052601260045260246000fd5b7f4e487b7100000000000000000000000000000000000000000000000000000000600052602260045260246000fd5b7f4e487b7100000000000000000000000000000000000000000000000000000000600052603260045260246000fd5b7f4e487b7100000000000000000000000000000000000000000000000000000000600052604160045260246000fd5b600080fd5b600080fd5b600080fd5b600080fd5b6000601f19601f8301169050919050565b7f70726963652073657420746f6f206c6f77000000000000000000000000000000600082015250565b7f4552433732313a207472616e7366657220746f206e6f6e20455243373231526560008201527f63656976657220696d706c656d656e7465720000000000000000000000000000602082015250565b7f5468697320746f6b656e206973206e6f7420666f722073616c65000000000000600082015250565b7f4552433732313a20746f6b656e20616c7265616479206d696e74656400000000600082015250565b7f4552433732313a207472616e7366657220746f20746865207a65726f2061646460008201527f7265737300000000000000000000000000000000000000000000000000000000602082015250565b7f4552433732313a20617070726f766520746f2063616c6c657200000000000000600082015250565b7f4552433732313a206f70657261746f7220717565727920666f72206e6f6e657860008201527f697374656e7420746f6b656e0000000000000000000000000000000000000000602082015250565b7f4f6e6c792074686520746f6b656e206f776e65722063616e20706572666f726d60008201527f207468697320616374696f6e0000000000000000000000000000000000000000602082015250565b7f4552433732313a20617070726f76652063616c6c6572206973206e6f74206f7760008201527f6e6572206e6f7220617070726f76656420666f7220616c6c0000000000000000602082015250565b7f546865204e46542068617320616c72656164792072656163686564206d61786960008201527f6d756d20737570706c7900000000000000000000000000000000000000000000602082015250565b7f4552433732313a2062616c616e636520717565727920666f7220746865207a6560008201527f726f206164647265737300000000000000000000000000000000000000000000602082015250565b7f4552433732313a206f776e657220717565727920666f72206e6f6e657869737460008201527f656e7420746f6b656e0000000000000000000000000000000000000000000000602082015250565b7f45524337323155524953746f726167653a2055524920736574206f66206e6f6e60008201527f6578697374656e7420746f6b656e000000000000000000000000000000000000602082015250565b7f4552433732313a206d696e7420746f20746865207a65726f2061646472657373600082015250565b7f45524337323155524953746f726167653a2055524920717565727920666f722060008201527f6e6f6e6578697374656e7420746f6b656e000000000000000000000000000000602082015250565b7f4552433732313a20617070726f76656420717565727920666f72206e6f6e657860008201527f697374656e7420746f6b656e0000000000000000000000000000000000000000602082015250565b7f4552433732313a207472616e73666572206f6620746f6b656e2074686174206960008201527f73206e6f74206f776e0000000000000000000000000000000000000000000000602082015250565b7f4552433732314d657461646174613a2055524920717565727920666f72206e6f60008201527f6e6578697374656e7420746f6b656e0000000000000000000000000000000000602082015250565b7f4e6f7420656e6f75676820457468207761732070617373656400000000000000600082015250565b7f4552433732313a20617070726f76616c20746f2063757272656e74206f776e6560008201527f7200000000000000000000000000000000000000000000000000000000000000602082015250565b7f4552433732313a207472616e736665722063616c6c6572206973206e6f74206f60008201527f776e6572206e6f7220617070726f766564000000000000000000000000000000602082015250565b7f6f6e6c79207468652063726561746f722063616e20706572666f726d2074686960008201527f7320616374696f6e000000000000000000000000000000000000000000000000602082015250565b613eab81613619565b8114613eb657600080fd5b50565b613ec28161362b565b8114613ecd57600080fd5b50565b613ed981613637565b8114613ee457600080fd5b50565b613ef081613683565b8114613efb57600080fd5b5056fea2646970667358221220d377eacad4ab4e48deea8bba5e67ba3416a0e215dd30e8548012240ee1b7c7b464736f6c63430008070033",
  "linkReferences": {},
  "deployedLinkReferences": {}
}