{
  "_format": "hh-sol-artifact-1",
  "contractName": "GalaxyNFT",
  "sourceName": "contracts/GalaxyNFT.sol",
  "abi": [
    {
      "inputs": [
        {
          "internalType": "string",
          "name": "name",
          "type": "string"
        },
        {
          "internalType": "string",
          "name": "symbol",
          "type": "string"
        },
        {
          "internalType": "address",
          "name": "marketplaceAddress",
          "type": "address"
        },
        {
          "internalType": "string",
          "name": "data",
          "type": "string"
        },
        {
          "internalType": "uint256",
          "name": "price",
          "type": "uint256"
        }
      ],
      "stateMutability": "nonpayable",
      "type": "constructor"
    },
    {
      "anonymous": false,
      "inputs": [
        {
          "indexed": true,
          "internalType": "address",
          "name": "owner",
          "type": "address"
        },
        {
          "indexed": true,
          "internalType": "address",
          "name": "approved",
          "type": "address"
        },
        {
          "indexed": true,
          "internalType": "uint256",
          "name": "tokenId",
          "type": "uint256"
        }
      ],
      "name": "Approval",
      "type": "event"
    },
    {
      "anonymous": false,
      "inputs": [
        {
          "indexed": true,
          "internalType": "address",
          "name": "owner",
          "type": "address"
        },
        {
          "indexed": true,
          "internalType": "address",
          "name": "operator",
          "type": "address"
        },
        {
          "indexed": false,
          "internalType": "bool",
          "name": "approved",
          "type": "bool"
        }
      ],
      "name": "ApprovalForAll",
      "type": "event"
    },
    {
      "anonymous": false,
      "inputs": [
        {
          "indexed": true,
          "internalType": "address",
          "name": "from",
          "type": "address"
        },
        {
          "indexed": true,
          "internalType": "address",
          "name": "to",
          "type": "address"
        },
        {
          "indexed": true,
          "internalType": "uint256",
          "name": "tokenId",
          "type": "uint256"
        }
      ],
      "name": "Transfer",
      "type": "event"
    },
    {
      "inputs": [
        {
          "internalType": "uint256",
          "name": "id",
          "type": "uint256"
        },
        {
          "internalType": "string",
          "name": "tokenURI",
          "type": "string"
        }
      ],
      "name": "addTokenUri",
      "outputs": [],
      "stateMutability": "nonpayable",
      "type": "function"
    },
    {
      "inputs": [
        {
          "internalType": "address",
          "name": "to",
          "type": "address"
        },
        {
          "internalType": "uint256",
          "name": "tokenId",
          "type": "uint256"
        }
      ],
      "name": "approve",
      "outputs": [],
      "stateMutability": "nonpayable",
      "type": "function"
    },
    {
      "inputs": [
        {
          "internalType": "address",
          "name": "owner",
          "type": "address"
        }
      ],
      "name": "balanceOf",
      "outputs": [
        {
          "internalType": "uint256",
          "name": "",
          "type": "uint256"
        }
      ],
      "stateMutability": "view",
      "type": "function"
    },
    {
      "inputs": [],
      "name": "createToken",
      "outputs": [
        {
          "internalType": "uint256",
          "name": "",
          "type": "uint256"
        }
      ],
      "stateMutability": "payable",
      "type": "function"
    },
    {
      "inputs": [],
      "name": "getAllTokens",
      "outputs": [
        {
          "components": [
            {
              "internalType": "address",
              "name": "owner",
              "type": "address"
            },
            {
              "internalType": "bool",
              "name": "forSale",
              "type": "bool"
            },
            {
              "internalType": "uint256",
              "name": "price",
              "type": "uint256"
            },
            {
              "internalType": "uint256",
              "name": "pricePaid",
              "type": "uint256"
            },
            {
              "internalType": "uint256",
              "name": "purchaseDate",
              "type": "uint256"
            }
          ],
          "internalType": "struct GalaxyNFT.tokenState[]",
          "name": "",
          "type": "tuple[]"
        }
      ],
      "stateMutability": "view",
      "type": "function"
    },
    {
      "inputs": [
        {
          "internalType": "uint256",
          "name": "tokenId",
          "type": "uint256"
        }
      ],
      "name": "getApproved",
      "outputs": [
        {
          "internalType": "address",
          "name": "",
          "type": "address"
        }
      ],
      "stateMutability": "view",
      "type": "function"
    },
    {
      "inputs": [],
      "name": "getInitialPrice",
      "outputs": [
        {
          "internalType": "uint256",
          "name": "",
          "type": "uint256"
        }
      ],
      "stateMutability": "view",
      "type": "function"
    },
    {
      "inputs": [],
      "name": "getMaxSupply",
      "outputs": [
        {
          "internalType": "uint256",
          "name": "",
          "type": "uint256"
        }
      ],
      "stateMutability": "view",
      "type": "function"
    },
    {
      "inputs": [],
      "name": "getMetaData",
      "outputs": [
        {
          "internalType": "string",
          "name": "",
          "type": "string"
        }
      ],
      "stateMutability": "view",
      "type": "function"
    },
    {
      "inputs": [],
      "name": "getNumberForSale",
      "outputs": [
        {
          "internalType": "uint256",
          "name": "",
          "type": "uint256"
        }
      ],
      "stateMutability": "view",
      "type": "function"
    },
    {
      "inputs": [],
      "name": "getTokenCount",
      "outputs": [
        {
          "internalType": "uint256",
          "name": "",
          "type": "uint256"
        }
      ],
      "stateMutability": "view",
      "type": "function"
    },
    {
      "inputs": [
        {
          "internalType": "uint256",
          "name": "tokenId",
          "type": "uint256"
        }
      ],
      "name": "getTokenState",
      "outputs": [
        {
          "components": [
            {
              "internalType": "address",
              "name": "owner",
              "type": "address"
            },
            {
              "internalType": "bool",
              "name": "forSale",
              "type": "bool"
            },
            {
              "internalType": "uint256",
              "name": "price",
              "type": "uint256"
            },
            {
              "internalType": "uint256",
              "name": "pricePaid",
              "type": "uint256"
            },
            {
              "internalType": "uint256",
              "name": "purchaseDate",
              "type": "uint256"
            }
          ],
          "internalType": "struct GalaxyNFT.tokenState",
          "name": "",
          "type": "tuple"
        }
      ],
      "stateMutability": "view",
      "type": "function"
    },
    {
      "inputs": [
        {
          "internalType": "address",
          "name": "owner",
          "type": "address"
        },
        {
          "internalType": "address",
          "name": "operator",
          "type": "address"
        }
      ],
      "name": "isApprovedForAll",
      "outputs": [
        {
          "internalType": "bool",
          "name": "",
          "type": "bool"
        }
      ],
      "stateMutability": "view",
      "type": "function"
    },
    {
      "inputs": [],
      "name": "name",
      "outputs": [
        {
          "internalType": "string",
          "name": "",
          "type": "string"
        }
      ],
      "stateMutability": "view",
      "type": "function"
    },
    {
      "inputs": [
        {
          "internalType": "uint256",
          "name": "tokenId",
          "type": "uint256"
        }
      ],
      "name": "ownerOf",
      "outputs": [
        {
          "internalType": "address",
          "name": "",
          "type": "address"
        }
      ],
      "stateMutability": "view",
      "type": "function"
    },
    {
      "inputs": [
        {
          "internalType": "uint256",
          "name": "tokenId",
          "type": "uint256"
        }
      ],
      "name": "purchaseToken",
      "outputs": [],
      "stateMutability": "payable",
      "type": "function"
    },
    {
      "inputs": [
        {
          "internalType": "address",
          "name": "from",
          "type": "address"
        },
        {
          "internalType": "address",
          "name": "to",
          "type": "address"
        },
        {
          "internalType": "uint256",
          "name": "tokenId",
          "type": "uint256"
        }
      ],
      "name": "safeTransferFrom",
      "outputs": [],
      "stateMutability": "nonpayable",
      "type": "function"
    },
    {
      "inputs": [
        {
          "internalType": "address",
          "name": "from",
          "type": "address"
        },
        {
          "internalType": "address",
          "name": "to",
          "type": "address"
        },
        {
          "internalType": "uint256",
          "name": "tokenId",
          "type": "uint256"
        },
        {
          "internalType": "bytes",
          "name": "_data",
          "type": "bytes"
        }
      ],
      "name": "safeTransferFrom",
      "outputs": [],
      "stateMutability": "nonpayable",
      "type": "function"
    },
    {
      "inputs": [
        {
          "internalType": "address",
          "name": "operator",
          "type": "address"
        },
        {
          "internalType": "bool",
          "name": "approved",
          "type": "bool"
        }
      ],
      "name": "setApprovalForAll",
      "outputs": [],
      "stateMutability": "nonpayable",
      "type": "function"
    },
    {
      "inputs": [
        {
          "internalType": "string",
          "name": "data",
          "type": "string"
        }
      ],
      "name": "setMetaData",
      "outputs": [],
      "stateMutability": "nonpayable",
      "type": "function"
    },
    {
      "inputs": [
        {
          "internalType": "uint256",
          "name": "tokenId",
          "type": "uint256"
        },
        {
          "internalType": "uint256",
          "name": "newPrice",
          "type": "uint256"
        }
      ],
      "name": "setTokenPrice",
      "outputs": [],
      "stateMutability": "nonpayable",
      "type": "function"
    },
    {
      "inputs": [
        {
          "internalType": "uint256",
          "name": "tokenId",
          "type": "uint256"
        },
        {
          "internalType": "bool",
          "name": "saleState",
          "type": "bool"
        }
      ],
      "name": "setTokenSaleState",
      "outputs": [],
      "stateMutability": "nonpayable",
      "type": "function"
    },
    {
      "inputs": [
        {
          "internalType": "bytes4",
          "name": "interfaceId",
          "type": "bytes4"
        }
      ],
      "name": "supportsInterface",
      "outputs": [
        {
          "internalType": "bool",
          "name": "",
          "type": "bool"
        }
      ],
      "stateMutability": "view",
      "type": "function"
    },
    {
      "inputs": [],
      "name": "symbol",
      "outputs": [
        {
          "internalType": "string",
          "name": "",
          "type": "string"
        }
      ],
      "stateMutability": "view",
      "type": "function"
    },
    {
      "inputs": [
        {
          "internalType": "uint256",
          "name": "tokenId",
          "type": "uint256"
        }
      ],
      "name": "tokenURI",
      "outputs": [
        {
          "internalType": "string",
          "name": "",
          "type": "string"
        }
      ],
      "stateMutability": "view",
      "type": "function"
    },
    {
      "inputs": [
        {
          "internalType": "address",
          "name": "from",
          "type": "address"
        },
        {
          "internalType": "address",
          "name": "to",
          "type": "address"
        },
        {
          "internalType": "uint256",
          "name": "tokenId",
          "type": "uint256"
        }
      ],
      "name": "transferFrom",
      "outputs": [],
      "stateMutability": "nonpayable",
      "type": "function"
    }
  ],
  "bytecode": "0x608060405260646008553480156200001657600080fd5b5060405162004d5e38038062004d5e83398181016040528101906200003c9190620007f5565b848481600090805190602001906200005692919062000699565b5080600190805190602001906200006f92919062000699565b50505082600960006101000a81548173ffffffffffffffffffffffffffffffffffffffff021916908373ffffffffffffffffffffffffffffffffffffffff16021790555081600b9080519060200190620000cb92919062000699565b5080600c8190555060006007819055506040518060a001604052803073ffffffffffffffffffffffffffffffffffffffff168152602001600015158152602001600c548152602001600c54815260200142815250600d6000600754815260200190815260200160002060008201518160000160006101000a81548173ffffffffffffffffffffffffffffffffffffffff021916908373ffffffffffffffffffffffffffffffffffffffff16021790555060208201518160000160146101000a81548160ff021916908315150217905550604082015181600101556060820151816002015560808201518160030155905050620001d033600754620002a260201b60201c565b62000205600960009054906101000a900473ffffffffffffffffffffffffffffffffffffffff1660016200048860201b60201c565b6001600760008282546200021a919062000a53565b9250508190555033600a60006101000a81548173ffffffffffffffffffffffffffffffffffffffff021916908373ffffffffffffffffffffffffffffffffffffffff16021790555062000297600960009054906101000a900473ffffffffffffffffffffffffffffffffffffffff1660016200048860201b60201c565b505050505062000cfd565b600073ffffffffffffffffffffffffffffffffffffffff168273ffffffffffffffffffffffffffffffffffffffff16141562000315576040517f08c379a00000000000000000000000000000000000000000000000000000000081526004016200030c90620009c1565b60405180910390fd5b6200032681620004ae60201b60201c565b1562000369576040517f08c379a000000000000000000000000000000000000000000000000000000000815260040162000360906200097d565b60405180910390fd5b6200037d600083836200051a60201b60201c565b6001600360008473ffffffffffffffffffffffffffffffffffffffff1673ffffffffffffffffffffffffffffffffffffffff1681526020019081526020016000206000828254620003cf919062000a53565b92505081905550816002600083815260200190815260200160002060006101000a81548173ffffffffffffffffffffffffffffffffffffffff021916908373ffffffffffffffffffffffffffffffffffffffff160217905550808273ffffffffffffffffffffffffffffffffffffffff16600073ffffffffffffffffffffffffffffffffffffffff167fddf252ad1be2c89b69c2b068fc378daa952ba7f163c4a11628f55a4df523b3ef60405160405180910390a45050565b620004aa6200049c6200051f60201b60201c565b83836200052760201b60201c565b5050565b60008073ffffffffffffffffffffffffffffffffffffffff166002600084815260200190815260200160002060009054906101000a900473ffffffffffffffffffffffffffffffffffffffff1673ffffffffffffffffffffffffffffffffffffffff1614159050919050565b505050565b600033905090565b8173ffffffffffffffffffffffffffffffffffffffff168373ffffffffffffffffffffffffffffffffffffffff16141562000599576040517f08c379a000000000000000000000000000000000000000000000000000000000815260040162000590906200099f565b60405180910390fd5b80600560008573ffffffffffffffffffffffffffffffffffffffff1673ffffffffffffffffffffffffffffffffffffffff16815260200190815260200160002060008473ffffffffffffffffffffffffffffffffffffffff1673ffffffffffffffffffffffffffffffffffffffff16815260200190815260200160002060006101000a81548160ff0219169083151502179055508173ffffffffffffffffffffffffffffffffffffffff168373ffffffffffffffffffffffffffffffffffffffff167f17307eab39ab6107e8899845ad3d59bd9653f200f220920489ca2b5937696c31836040516200068c919062000960565b60405180910390a3505050565b828054620006a79062000b30565b90600052602060002090601f016020900481019282620006cb576000855562000717565b82601f10620006e657805160ff191683800117855562000717565b8280016001018555821562000717579182015b8281111562000716578251825591602001919060010190620006f9565b5b5090506200072691906200072a565b5090565b5b80821115620007455760008160009055506001016200072b565b5090565b6000620007606200075a8462000a0c565b620009e3565b9050828152602081018484840111156200077f576200077e62000c2e565b5b6200078c84828562000afa565b509392505050565b600081519050620007a58162000cc9565b92915050565b600082601f830112620007c357620007c262000c29565b5b8151620007d584826020860162000749565b91505092915050565b600081519050620007ef8162000ce3565b92915050565b600080600080600060a0868803121562000814576200081362000c38565b5b600086015167ffffffffffffffff81111562000835576200083462000c33565b5b6200084388828901620007ab565b955050602086015167ffffffffffffffff81111562000867576200086662000c33565b5b6200087588828901620007ab565b9450506040620008888882890162000794565b935050606086015167ffffffffffffffff811115620008ac57620008ab62000c33565b5b620008ba88828901620007ab565b9250506080620008cd88828901620007de565b9150509295509295909350565b620008e58162000ac4565b82525050565b6000620008fa601c8362000a42565b9150620009078262000c4e565b602082019050919050565b60006200092160198362000a42565b91506200092e8262000c77565b602082019050919050565b60006200094860208362000a42565b9150620009558262000ca0565b602082019050919050565b6000602082019050620009776000830184620008da565b92915050565b600060208201905081810360008301526200099881620008eb565b9050919050565b60006020820190508181036000830152620009ba8162000912565b9050919050565b60006020820190508181036000830152620009dc8162000939565b9050919050565b6000620009ef62000a02565b9050620009fd828262000b66565b919050565b6000604051905090565b600067ffffffffffffffff82111562000a2a5762000a2962000bfa565b5b62000a358262000c3d565b9050602081019050919050565b600082825260208201905092915050565b600062000a608262000af0565b915062000a6d8362000af0565b9250827fffffffffffffffffffffffffffffffffffffffffffffffffffffffffffffffff0382111562000aa55762000aa462000b9c565b5b828201905092915050565b600062000abd8262000ad0565b9050919050565b60008115159050919050565b600073ffffffffffffffffffffffffffffffffffffffff82169050919050565b6000819050919050565b60005b8381101562000b1a57808201518184015260208101905062000afd565b8381111562000b2a576000848401525b50505050565b6000600282049050600182168062000b4957607f821691505b6020821081141562000b605762000b5f62000bcb565b5b50919050565b62000b718262000c3d565b810181811067ffffffffffffffff8211171562000b935762000b9262000bfa565b5b80604052505050565b7f4e487b7100000000000000000000000000000000000000000000000000000000600052601160045260246000fd5b7f4e487b7100000000000000000000000000000000000000000000000000000000600052602260045260246000fd5b7f4e487b7100000000000000000000000000000000000000000000000000000000600052604160045260246000fd5b600080fd5b600080fd5b600080fd5b600080fd5b6000601f19601f8301169050919050565b7f4552433732313a20746f6b656e20616c7265616479206d696e74656400000000600082015250565b7f4552433732313a20617070726f766520746f2063616c6c657200000000000000600082015250565b7f4552433732313a206d696e7420746f20746865207a65726f2061646472657373600082015250565b62000cd48162000ab0565b811462000ce057600080fd5b50565b62000cee8162000af0565b811462000cfa57600080fd5b50565b6140518062000d0d6000396000f3fe6080604052600436106101815760003560e01c806395d89b41116100d1578063d15ecc4c1161008a578063db004fc611610064578063db004fc614610568578063e985e9c514610591578063eb685c47146105ce578063f45fd0f3146105f757610181565b8063d15ecc4c146104eb578063d2786ba414610514578063d821f81a1461053f57610181565b806395d89b41146103f75780639cbf9e3614610422578063a22cb46514610440578063b88d4fde14610469578063c2db2c4214610492578063c87b56dd146104ae57610181565b80632a5c792a1161013e5780634c0f38c2116101185780634c0f38c2146103275780636352211e1461035257806370a082311461038f57806378a89567146103cc57610181565b80632a5c792a146102a85780632b013d6d146102d357806342842e0e146102fe57610181565b806301ffc9a71461018657806306f660ef146101c357806306fdde03146101ee578063081812fc14610219578063095ea7b31461025657806323b872dd1461027f575b600080fd5b34801561019257600080fd5b506101ad60048036038101906101a891906129e1565b610634565b6040516101ba91906131a2565b60405180910390f35b3480156101cf57600080fd5b506101d8610716565b6040516101e591906134da565b60405180910390f35b3480156101fa57600080fd5b50610203610720565b60405161021091906131bd565b60405180910390f35b34801561022557600080fd5b50610240600480360381019061023b9190612a84565b6107b2565b60405161024d9190613119565b60405180910390f35b34801561026257600080fd5b5061027d600480360381019061027891906129a1565b610837565b005b34801561028b57600080fd5b506102a660048036038101906102a1919061288b565b61094f565b005b3480156102b457600080fd5b506102bd6109af565b6040516102ca9190613180565b60405180910390f35b3480156102df57600080fd5b506102e8610b5c565b6040516102f591906134da565b60405180910390f35b34801561030a57600080fd5b506103256004803603810190610320919061288b565b610bcb565b005b34801561033357600080fd5b5061033c610beb565b60405161034991906134da565b60405180910390f35b34801561035e57600080fd5b5061037960048036038101906103749190612a84565b610bf5565b6040516103869190613119565b60405180910390f35b34801561039b57600080fd5b506103b660048036038101906103b1919061281e565b610ca7565b6040516103c391906134da565b60405180910390f35b3480156103d857600080fd5b506103e1610d5f565b6040516103ee91906134da565b60405180910390f35b34801561040357600080fd5b5061040c610d69565b60405161041991906131bd565b60405180910390f35b61042a610dfb565b60405161043791906134da565b60405180910390f35b34801561044c57600080fd5b5061046760048036038101906104629190612961565b61102e565b005b34801561047557600080fd5b50610490600480360381019061048b91906128de565b611044565b005b6104ac60048036038101906104a79190612a84565b6110a6565b005b3480156104ba57600080fd5b506104d560048036038101906104d09190612a84565b611340565b6040516104e291906131bd565b60405180910390f35b3480156104f757600080fd5b50610512600480360381019061050d9190612af1565b611492565b005b34801561052057600080fd5b50610529611530565b60405161053691906131bd565b60405180910390f35b34801561054b57600080fd5b5061056660048036038101906105619190612a3b565b6115c2565b005b34801561057457600080fd5b5061058f600480360381019061058a9190612ab1565b61166c565b005b34801561059d57600080fd5b506105b860048036038101906105b3919061284b565b611716565b6040516105c591906131a2565b60405180910390f35b3480156105da57600080fd5b506105f560048036038101906105f09190612b4d565b6117aa565b005b34801561060357600080fd5b5061061e60048036038101906106199190612a84565b611885565b60405161062b91906134bf565b60405180910390f35b60007f80ac58cd000000000000000000000000000000000000000000000000000000007bffffffffffffffffffffffffffffffffffffffffffffffffffffffff1916827bffffffffffffffffffffffffffffffffffffffffffffffffffffffff191614806106ff57507f5b5e139f000000000000000000000000000000000000000000000000000000007bffffffffffffffffffffffffffffffffffffffffffffffffffffffff1916827bffffffffffffffffffffffffffffffffffffffffffffffffffffffff1916145b8061070f575061070e82611941565b5b9050919050565b6000600c54905090565b60606000805461072f906137c3565b80601f016020809104026020016040519081016040528092919081815260200182805461075b906137c3565b80156107a85780601f1061077d576101008083540402835291602001916107a8565b820191906000526020600020905b81548152906001019060200180831161078b57829003601f168201915b5050505050905090565b60006107bd826119ab565b6107fc576040517f08c379a00000000000000000000000000000000000000000000000000000000081526004016107f3906133df565b60405180910390fd5b6004600083815260200190815260200160002060009054906101000a900473ffffffffffffffffffffffffffffffffffffffff169050919050565b600061084282610bf5565b90508073ffffffffffffffffffffffffffffffffffffffff168373ffffffffffffffffffffffffffffffffffffffff1614156108b3576040517f08c379a00000000000000000000000000000000000000000000000000000000081526004016108aa9061345f565b60405180910390fd5b8073ffffffffffffffffffffffffffffffffffffffff166108d2611a17565b73ffffffffffffffffffffffffffffffffffffffff1614806109015750610900816108fb611a17565b611716565b5b610940576040517f08c379a0000000000000000000000000000000000000000000000000000000008152600401610937906132df565b60405180910390fd5b61094a8383611a1f565b505050565b61096061095a611a17565b82611ad8565b61099f576040517f08c379a00000000000000000000000000000000000000000000000000000000081526004016109969061347f565b60405180910390fd5b6109aa838383611bb6565b505050565b6060600060075467ffffffffffffffff8111156109cf576109ce61395c565b5b604051908082528060200260200182016040528015610a0857816020015b6109f56125eb565b8152602001906001900390816109ed5790505b50905060005b600754811015610b5457610a206125eb565b600d600083815260200190815260200160002060000160009054906101000a900473ffffffffffffffffffffffffffffffffffffffff16816000019073ffffffffffffffffffffffffffffffffffffffff16908173ffffffffffffffffffffffffffffffffffffffff1681525050600d600083815260200190815260200160002060000160149054906101000a900460ff16816020019015159081151581525050600d600083815260200190815260200160002060010154816040018181525050600d600083815260200190815260200160002060020154816060018181525050600d60008381526020019081526020016000206003015481608001818152505080838381518110610b3557610b3461392d565b5b6020026020010181905250508080610b4c90613826565b915050610a0e565b508091505090565b6000806000905060005b600754811015610bc35760011515600d600083815260200190815260200160002060000160149054906101000a900460ff1615151415610bb057600182610bad91906135f8565b91505b8080610bbb90613826565b915050610b66565b508091505090565b610be683838360405180602001604052806000815250611044565b505050565b6000600854905090565b6000806002600084815260200190815260200160002060009054906101000a900473ffffffffffffffffffffffffffffffffffffffff169050600073ffffffffffffffffffffffffffffffffffffffff168173ffffffffffffffffffffffffffffffffffffffff161415610c9e576040517f08c379a0000000000000000000000000000000000000000000000000000000008152600401610c959061333f565b60405180910390fd5b80915050919050565b60008073ffffffffffffffffffffffffffffffffffffffff168273ffffffffffffffffffffffffffffffffffffffff161415610d18576040517f08c379a0000000000000000000000000000000000000000000000000000000008152600401610d0f9061331f565b60405180910390fd5b600360008373ffffffffffffffffffffffffffffffffffffffff1673ffffffffffffffffffffffffffffffffffffffff168152602001908152602001600020549050919050565b6000600754905090565b606060018054610d78906137c3565b80601f0160208091040260200160405190810160405280929190818152602001828054610da4906137c3565b8015610df15780601f10610dc657610100808354040283529160200191610df1565b820191906000526020600020905b815481529060010190602001808311610dd457829003601f168201915b5050505050905090565b600060085460075410610e43576040517f08c379a0000000000000000000000000000000000000000000000000000000008152600401610e3a906132ff565b60405180910390fd5b600c543414610e87576040517f08c379a0000000000000000000000000000000000000000000000000000000008152600401610e7e9061343f565b60405180910390fd5b600a60009054906101000a900473ffffffffffffffffffffffffffffffffffffffff1673ffffffffffffffffffffffffffffffffffffffff166108fc349081150290604051600060405180830381858888f19350505050158015610eef573d6000803e3d6000fd5b50600060075490506040518060a001604052803073ffffffffffffffffffffffffffffffffffffffff168152602001600015158152602001600c548152602001600c54815260200142815250600d600083815260200190815260200160002060008201518160000160006101000a81548173ffffffffffffffffffffffffffffffffffffffff021916908373ffffffffffffffffffffffffffffffffffffffff16021790555060208201518160000160146101000a81548160ff021916908315150217905550604082015181600101556060820151816002015560808201518160030155905050610fe03382611e12565b61100d600960009054906101000a900473ffffffffffffffffffffffffffffffffffffffff16600161102e565b60016007600082825461102091906135f8565b925050819055508091505090565b611040611039611a17565b8383611fe0565b5050565b61105561104f611a17565b83611ad8565b611094576040517f08c379a000000000000000000000000000000000000000000000000000000000815260040161108b9061347f565b60405180910390fd5b6110a08484848461214d565b50505050565b8060011515600d600083815260200190815260200160002060000160149054906101000a900460ff16151514611111576040517f08c379a00000000000000000000000000000000000000000000000000000000081526004016111089061321f565b60405180910390fd5b600d6000838152602001908152602001600020600101543414611169576040517f08c379a0000000000000000000000000000000000000000000000000000000008152600401611160906133bf565b60405180910390fd5b600061117483610bf5565b905060003490506000600760643461118c919061364e565b611196919061367f565b9050600a60009054906101000a900473ffffffffffffffffffffffffffffffffffffffff1673ffffffffffffffffffffffffffffffffffffffff166108fc829081150290604051600060405180830381858888f19350505050158015611200573d6000803e3d6000fd5b508273ffffffffffffffffffffffffffffffffffffffff166108fc828461122791906136d9565b9081150290604051600060405180830381858888f19350505050158015611252573d6000803e3d6000fd5b5061125e833387611bb6565b6040518060a001604052803373ffffffffffffffffffffffffffffffffffffffff16815260200160001515815260200183815260200183815260200142815250600d600087815260200190815260200160002060008201518160000160006101000a81548173ffffffffffffffffffffffffffffffffffffffff021916908373ffffffffffffffffffffffffffffffffffffffff16021790555060208201518160000160146101000a81548160ff0219169083151502179055506040820151816001015560608201518160020155608082015181600301559050505050505050565b606061134b826119ab565b61138a576040517f08c379a00000000000000000000000000000000000000000000000000000000081526004016113819061339f565b60405180910390fd5b60006006600084815260200190815260200160002080546113aa906137c3565b80601f01602080910402602001604051908101604052809291908181526020018280546113d6906137c3565b80156114235780601f106113f857610100808354040283529160200191611423565b820191906000526020600020905b81548152906001019060200180831161140657829003601f168201915b5050505050905060006114346121a9565b905060008151141561144a57819250505061148d565b60008251111561147f5780826040516020016114679291906130f5565b6040516020818303038152906040529250505061148d565b611488846121c0565b925050505b919050565b600a60009054906101000a900473ffffffffffffffffffffffffffffffffffffffff1673ffffffffffffffffffffffffffffffffffffffff163373ffffffffffffffffffffffffffffffffffffffff1614611522576040517f08c379a00000000000000000000000000000000000000000000000000000000081526004016115199061349f565b60405180910390fd5b61152c8282612267565b5050565b6060600b805461153f906137c3565b80601f016020809104026020016040519081016040528092919081815260200182805461156b906137c3565b80156115b85780601f1061158d576101008083540402835291602001916115b8565b820191906000526020600020905b81548152906001019060200180831161159b57829003601f168201915b5050505050905090565b600a60009054906101000a900473ffffffffffffffffffffffffffffffffffffffff1673ffffffffffffffffffffffffffffffffffffffff163373ffffffffffffffffffffffffffffffffffffffff1614611652576040517f08c379a00000000000000000000000000000000000000000000000000000000081526004016116499061349f565b60405180910390fd5b80600b9080519060200190611668929190612632565b5050565b8161167681610bf5565b73ffffffffffffffffffffffffffffffffffffffff163373ffffffffffffffffffffffffffffffffffffffff16146116e3576040517f08c379a00000000000000000000000000000000000000000000000000000000081526004016116da906132bf565b60405180910390fd5b81600d600085815260200190815260200160002060000160146101000a81548160ff021916908315150217905550505050565b6000600560008473ffffffffffffffffffffffffffffffffffffffff1673ffffffffffffffffffffffffffffffffffffffff16815260200190815260200160002060008373ffffffffffffffffffffffffffffffffffffffff1673ffffffffffffffffffffffffffffffffffffffff16815260200190815260200160002060009054906101000a900460ff16905092915050565b816117b481610bf5565b73ffffffffffffffffffffffffffffffffffffffff163373ffffffffffffffffffffffffffffffffffffffff1614611821576040517f08c379a0000000000000000000000000000000000000000000000000000000008152600401611818906132bf565b60405180910390fd5b6064821015611865576040517f08c379a000000000000000000000000000000000000000000000000000000000815260040161185c906131df565b60405180910390fd5b81600d600085815260200190815260200160002060010181905550505050565b61188d6125eb565b600d60008381526020019081526020016000206040518060a00160405290816000820160009054906101000a900473ffffffffffffffffffffffffffffffffffffffff1673ffffffffffffffffffffffffffffffffffffffff1673ffffffffffffffffffffffffffffffffffffffff1681526020016000820160149054906101000a900460ff1615151515815260200160018201548152602001600282015481526020016003820154815250509050919050565b60007f01ffc9a7000000000000000000000000000000000000000000000000000000007bffffffffffffffffffffffffffffffffffffffffffffffffffffffff1916827bffffffffffffffffffffffffffffffffffffffffffffffffffffffff1916149050919050565b60008073ffffffffffffffffffffffffffffffffffffffff166002600084815260200190815260200160002060009054906101000a900473ffffffffffffffffffffffffffffffffffffffff1673ffffffffffffffffffffffffffffffffffffffff1614159050919050565b600033905090565b816004600083815260200190815260200160002060006101000a81548173ffffffffffffffffffffffffffffffffffffffff021916908373ffffffffffffffffffffffffffffffffffffffff160217905550808273ffffffffffffffffffffffffffffffffffffffff16611a9283610bf5565b73ffffffffffffffffffffffffffffffffffffffff167f8c5be1e5ebec7d5bd14f71427d1e84f3dd0314c0f7b2291e5b200ac8c7c3b92560405160405180910390a45050565b6000611ae3826119ab565b611b22576040517f08c379a0000000000000000000000000000000000000000000000000000000008152600401611b199061329f565b60405180910390fd5b6000611b2d83610bf5565b90508073ffffffffffffffffffffffffffffffffffffffff168473ffffffffffffffffffffffffffffffffffffffff161480611b9c57508373ffffffffffffffffffffffffffffffffffffffff16611b84846107b2565b73ffffffffffffffffffffffffffffffffffffffff16145b80611bad5750611bac8185611716565b5b91505092915050565b8273ffffffffffffffffffffffffffffffffffffffff16611bd682610bf5565b73ffffffffffffffffffffffffffffffffffffffff1614611c2c576040517f08c379a0000000000000000000000000000000000000000000000000000000008152600401611c23906133ff565b60405180910390fd5b600073ffffffffffffffffffffffffffffffffffffffff168273ffffffffffffffffffffffffffffffffffffffff161415611c9c576040517f08c379a0000000000000000000000000000000000000000000000000000000008152600401611c939061325f565b60405180910390fd5b611ca78383836122db565b611cb2600082611a1f565b6001600360008573ffffffffffffffffffffffffffffffffffffffff1673ffffffffffffffffffffffffffffffffffffffff1681526020019081526020016000206000828254611d0291906136d9565b925050819055506001600360008473ffffffffffffffffffffffffffffffffffffffff1673ffffffffffffffffffffffffffffffffffffffff1681526020019081526020016000206000828254611d5991906135f8565b92505081905550816002600083815260200190815260200160002060006101000a81548173ffffffffffffffffffffffffffffffffffffffff021916908373ffffffffffffffffffffffffffffffffffffffff160217905550808273ffffffffffffffffffffffffffffffffffffffff168473ffffffffffffffffffffffffffffffffffffffff167fddf252ad1be2c89b69c2b068fc378daa952ba7f163c4a11628f55a4df523b3ef60405160405180910390a4505050565b600073ffffffffffffffffffffffffffffffffffffffff168273ffffffffffffffffffffffffffffffffffffffff161415611e82576040517f08c379a0000000000000000000000000000000000000000000000000000000008152600401611e799061337f565b60405180910390fd5b611e8b816119ab565b15611ecb576040517f08c379a0000000000000000000000000000000000000000000000000000000008152600401611ec29061323f565b60405180910390fd5b611ed7600083836122db565b6001600360008473ffffffffffffffffffffffffffffffffffffffff1673ffffffffffffffffffffffffffffffffffffffff1681526020019081526020016000206000828254611f2791906135f8565b92505081905550816002600083815260200190815260200160002060006101000a81548173ffffffffffffffffffffffffffffffffffffffff021916908373ffffffffffffffffffffffffffffffffffffffff160217905550808273ffffffffffffffffffffffffffffffffffffffff16600073ffffffffffffffffffffffffffffffffffffffff167fddf252ad1be2c89b69c2b068fc378daa952ba7f163c4a11628f55a4df523b3ef60405160405180910390a45050565b8173ffffffffffffffffffffffffffffffffffffffff168373ffffffffffffffffffffffffffffffffffffffff16141561204f576040517f08c379a00000000000000000000000000000000000000000000000000000000081526004016120469061327f565b60405180910390fd5b80600560008573ffffffffffffffffffffffffffffffffffffffff1673ffffffffffffffffffffffffffffffffffffffff16815260200190815260200160002060008473ffffffffffffffffffffffffffffffffffffffff1673ffffffffffffffffffffffffffffffffffffffff16815260200190815260200160002060006101000a81548160ff0219169083151502179055508173ffffffffffffffffffffffffffffffffffffffff168373ffffffffffffffffffffffffffffffffffffffff167f17307eab39ab6107e8899845ad3d59bd9653f200f220920489ca2b5937696c318360405161214091906131a2565b60405180910390a3505050565b612158848484611bb6565b612164848484846122e0565b6121a3576040517f08c379a000000000000000000000000000000000000000000000000000000000815260040161219a906131ff565b60405180910390fd5b50505050565b606060405180602001604052806000815250905090565b60606121cb826119ab565b61220a576040517f08c379a00000000000000000000000000000000000000000000000000000000081526004016122019061341f565b60405180910390fd5b60006122146121a9565b90506000815111612234576040518060200160405280600081525061225f565b8061223e84612477565b60405160200161224f9291906130f5565b6040516020818303038152906040525b915050919050565b612270826119ab565b6122af576040517f08c379a00000000000000000000000000000000000000000000000000000000081526004016122a69061335f565b60405180910390fd5b806006600084815260200190815260200160002090805190602001906122d6929190612632565b505050565b505050565b60006123018473ffffffffffffffffffffffffffffffffffffffff166125d8565b1561246a578373ffffffffffffffffffffffffffffffffffffffff1663150b7a0261232a611a17565b8786866040518563ffffffff1660e01b815260040161234c9493929190613134565b602060405180830381600087803b15801561236657600080fd5b505af192505050801561239757506040513d601f19601f820116820180604052508101906123949190612a0e565b60015b61241a573d80600081146123c7576040519150601f19603f3d011682016040523d82523d6000602084013e6123cc565b606091505b50600081511415612412576040517f08c379a0000000000000000000000000000000000000000000000000000000008152600401612409906131ff565b60405180910390fd5b805181602001fd5b63150b7a0260e01b7bffffffffffffffffffffffffffffffffffffffffffffffffffffffff1916817bffffffffffffffffffffffffffffffffffffffffffffffffffffffff19161491505061246f565b600190505b949350505050565b606060008214156124bf576040518060400160405280600181526020017f300000000000000000000000000000000000000000000000000000000000000081525090506125d3565b600082905060005b600082146124f15780806124da90613826565b915050600a826124ea919061364e565b91506124c7565b60008167ffffffffffffffff81111561250d5761250c61395c565b5b6040519080825280601f01601f19166020018201604052801561253f5781602001600182028036833780820191505090505b5090505b600085146125cc5760018261255891906136d9565b9150600a85612567919061386f565b603061257391906135f8565b60f81b8183815181106125895761258861392d565b5b60200101907effffffffffffffffffffffffffffffffffffffffffffffffffffffffffffff1916908160001a905350600a856125c5919061364e565b9450612543565b8093505050505b919050565b600080823b905060008111915050919050565b6040518060a00160405280600073ffffffffffffffffffffffffffffffffffffffff1681526020016000151581526020016000815260200160008152602001600081525090565b82805461263e906137c3565b90600052602060002090601f01602090048101928261266057600085556126a7565b82601f1061267957805160ff19168380011785556126a7565b828001600101855582156126a7579182015b828111156126a657825182559160200191906001019061268b565b5b5090506126b491906126b8565b5090565b5b808211156126d15760008160009055506001016126b9565b5090565b60006126e86126e38461351a565b6134f5565b90508281526020810184848401111561270457612703613990565b5b61270f848285613781565b509392505050565b600061272a6127258461354b565b6134f5565b90508281526020810184848401111561274657612745613990565b5b612751848285613781565b509392505050565b60008135905061276881613fbf565b92915050565b60008135905061277d81613fd6565b92915050565b60008135905061279281613fed565b92915050565b6000815190506127a781613fed565b92915050565b600082601f8301126127c2576127c161398b565b5b81356127d28482602086016126d5565b91505092915050565b600082601f8301126127f0576127ef61398b565b5b8135612800848260208601612717565b91505092915050565b60008135905061281881614004565b92915050565b6000602082840312156128345761283361399a565b5b600061284284828501612759565b91505092915050565b600080604083850312156128625761286161399a565b5b600061287085828601612759565b925050602061288185828601612759565b9150509250929050565b6000806000606084860312156128a4576128a361399a565b5b60006128b286828701612759565b93505060206128c386828701612759565b92505060406128d486828701612809565b9150509250925092565b600080600080608085870312156128f8576128f761399a565b5b600061290687828801612759565b945050602061291787828801612759565b935050604061292887828801612809565b925050606085013567ffffffffffffffff81111561294957612948613995565b5b612955878288016127ad565b91505092959194509250565b600080604083850312156129785761297761399a565b5b600061298685828601612759565b92505060206129978582860161276e565b9150509250929050565b600080604083850312156129b8576129b761399a565b5b60006129c685828601612759565b92505060206129d785828601612809565b9150509250929050565b6000602082840312156129f7576129f661399a565b5b6000612a0584828501612783565b91505092915050565b600060208284031215612a2457612a2361399a565b5b6000612a3284828501612798565b91505092915050565b600060208284031215612a5157612a5061399a565b5b600082013567ffffffffffffffff811115612a6f57612a6e613995565b5b612a7b848285016127db565b91505092915050565b600060208284031215612a9a57612a9961399a565b5b6000612aa884828501612809565b91505092915050565b60008060408385031215612ac857612ac761399a565b5b6000612ad685828601612809565b9250506020612ae78582860161276e565b9150509250929050565b60008060408385031215612b0857612b0761399a565b5b6000612b1685828601612809565b925050602083013567ffffffffffffffff811115612b3757612b36613995565b5b612b43858286016127db565b9150509250929050565b60008060408385031215612b6457612b6361399a565b5b6000612b7285828601612809565b9250506020612b8385828601612809565b9150509250929050565b6000612b998383613007565b60a08301905092915050565b612bae8161370d565b82525050565b612bbd8161370d565b82525050565b6000612bce8261358c565b612bd881856135ba565b9350612be38361357c565b8060005b83811015612c14578151612bfb8882612b8d565b9750612c06836135ad565b925050600181019050612be7565b5085935050505092915050565b612c2a8161371f565b82525050565b612c398161371f565b82525050565b6000612c4a82613597565b612c5481856135cb565b9350612c64818560208601613790565b612c6d8161399f565b840191505092915050565b6000612c83826135a2565b612c8d81856135dc565b9350612c9d818560208601613790565b612ca68161399f565b840191505092915050565b6000612cbc826135a2565b612cc681856135ed565b9350612cd6818560208601613790565b80840191505092915050565b6000612cef6011836135dc565b9150612cfa826139b0565b602082019050919050565b6000612d126032836135dc565b9150612d1d826139d9565b604082019050919050565b6000612d35601a836135dc565b9150612d4082613a28565b602082019050919050565b6000612d58601c836135dc565b9150612d6382613a51565b602082019050919050565b6000612d7b6024836135dc565b9150612d8682613a7a565b604082019050919050565b6000612d9e6019836135dc565b9150612da982613ac9565b602082019050919050565b6000612dc1602c836135dc565b9150612dcc82613af2565b604082019050919050565b6000612de4602c836135dc565b9150612def82613b41565b604082019050919050565b6000612e076038836135dc565b9150612e1282613b90565b604082019050919050565b6000612e2a602a836135dc565b9150612e3582613bdf565b604082019050919050565b6000612e4d602a836135dc565b9150612e5882613c2e565b604082019050919050565b6000612e706029836135dc565b9150612e7b82613c7d565b604082019050919050565b6000612e93602e836135dc565b9150612e9e82613ccc565b604082019050919050565b6000612eb66020836135dc565b9150612ec182613d1b565b602082019050919050565b6000612ed96031836135dc565b9150612ee482613d44565b604082019050919050565b6000612efc6010836135dc565b9150612f0782613d93565b602082019050919050565b6000612f1f602c836135dc565b9150612f2a82613dbc565b604082019050919050565b6000612f426029836135dc565b9150612f4d82613e0b565b604082019050919050565b6000612f65602f836135dc565b9150612f7082613e5a565b604082019050919050565b6000612f886019836135dc565b9150612f9382613ea9565b602082019050919050565b6000612fab6021836135dc565b9150612fb682613ed2565b604082019050919050565b6000612fce6031836135dc565b9150612fd982613f21565b604082019050919050565b6000612ff16028836135dc565b9150612ffc82613f70565b604082019050919050565b60a08201600082015161301d6000850182612ba5565b5060208201516130306020850182612c21565b50604082015161304360408501826130d7565b50606082015161305660608501826130d7565b50608082015161306960808501826130d7565b50505050565b60a0820160008201516130856000850182612ba5565b5060208201516130986020850182612c21565b5060408201516130ab60408501826130d7565b5060608201516130be60608501826130d7565b5060808201516130d160808501826130d7565b50505050565b6130e081613777565b82525050565b6130ef81613777565b82525050565b60006131018285612cb1565b915061310d8284612cb1565b91508190509392505050565b600060208201905061312e6000830184612bb4565b92915050565b60006080820190506131496000830187612bb4565b6131566020830186612bb4565b61316360408301856130e6565b81810360608301526131758184612c3f565b905095945050505050565b6000602082019050818103600083015261319a8184612bc3565b905092915050565b60006020820190506131b76000830184612c30565b92915050565b600060208201905081810360008301526131d78184612c78565b905092915050565b600060208201905081810360008301526131f881612ce2565b9050919050565b6000602082019050818103600083015261321881612d05565b9050919050565b6000602082019050818103600083015261323881612d28565b9050919050565b6000602082019050818103600083015261325881612d4b565b9050919050565b6000602082019050818103600083015261327881612d6e565b9050919050565b6000602082019050818103600083015261329881612d91565b9050919050565b600060208201905081810360008301526132b881612db4565b9050919050565b600060208201905081810360008301526132d881612dd7565b9050919050565b600060208201905081810360008301526132f881612dfa565b9050919050565b6000602082019050818103600083015261331881612e1d565b9050919050565b6000602082019050818103600083015261333881612e40565b9050919050565b6000602082019050818103600083015261335881612e63565b9050919050565b6000602082019050818103600083015261337881612e86565b9050919050565b6000602082019050818103600083015261339881612ea9565b9050919050565b600060208201905081810360008301526133b881612ecc565b9050919050565b600060208201905081810360008301526133d881612eef565b9050919050565b600060208201905081810360008301526133f881612f12565b9050919050565b6000602082019050818103600083015261341881612f35565b9050919050565b6000602082019050818103600083015261343881612f58565b9050919050565b6000602082019050818103600083015261345881612f7b565b9050919050565b6000602082019050818103600083015261347881612f9e565b9050919050565b6000602082019050818103600083015261349881612fc1565b9050919050565b600060208201905081810360008301526134b881612fe4565b9050919050565b600060a0820190506134d4600083018461306f565b92915050565b60006020820190506134ef60008301846130e6565b92915050565b60006134ff613510565b905061350b82826137f5565b919050565b6000604051905090565b600067ffffffffffffffff8211156135355761353461395c565b5b61353e8261399f565b9050602081019050919050565b600067ffffffffffffffff8211156135665761356561395c565b5b61356f8261399f565b9050602081019050919050565b6000819050602082019050919050565b600081519050919050565b600081519050919050565b600081519050919050565b6000602082019050919050565b600082825260208201905092915050565b600082825260208201905092915050565b600082825260208201905092915050565b600081905092915050565b600061360382613777565b915061360e83613777565b9250827fffffffffffffffffffffffffffffffffffffffffffffffffffffffffffffffff03821115613643576136426138a0565b5b828201905092915050565b600061365982613777565b915061366483613777565b925082613674576136736138cf565b5b828204905092915050565b600061368a82613777565b915061369583613777565b9250817fffffffffffffffffffffffffffffffffffffffffffffffffffffffffffffffff04831182151516156136ce576136cd6138a0565b5b828202905092915050565b60006136e482613777565b91506136ef83613777565b925082821015613702576137016138a0565b5b828203905092915050565b600061371882613757565b9050919050565b60008115159050919050565b60007fffffffff0000000000000000000000000000000000000000000000000000000082169050919050565b600073ffffffffffffffffffffffffffffffffffffffff82169050919050565b6000819050919050565b82818337600083830152505050565b60005b838110156137ae578082015181840152602081019050613793565b838111156137bd576000848401525b50505050565b600060028204905060018216806137db57607f821691505b602082108114156137ef576137ee6138fe565b5b50919050565b6137fe8261399f565b810181811067ffffffffffffffff8211171561381d5761381c61395c565b5b80604052505050565b600061383182613777565b91507fffffffffffffffffffffffffffffffffffffffffffffffffffffffffffffffff821415613864576138636138a0565b5b600182019050919050565b600061387a82613777565b915061388583613777565b925082613895576138946138cf565b5b828206905092915050565b7f4e487b7100000000000000000000000000000000000000000000000000000000600052601160045260246000fd5b7f4e487b7100000000000000000000000000000000000000000000000000000000600052601260045260246000fd5b7f4e487b7100000000000000000000000000000000000000000000000000000000600052602260045260246000fd5b7f4e487b7100000000000000000000000000000000000000000000000000000000600052603260045260246000fd5b7f4e487b7100000000000000000000000000000000000000000000000000000000600052604160045260246000fd5b600080fd5b600080fd5b600080fd5b600080fd5b6000601f19601f8301169050919050565b7f70726963652073657420746f6f206c6f77000000000000000000000000000000600082015250565b7f4552433732313a207472616e7366657220746f206e6f6e20455243373231526560008201527f63656976657220696d706c656d656e7465720000000000000000000000000000602082015250565b7f5468697320746f6b656e206973206e6f7420666f722073616c65000000000000600082015250565b7f4552433732313a20746f6b656e20616c7265616479206d696e74656400000000600082015250565b7f4552433732313a207472616e7366657220746f20746865207a65726f2061646460008201527f7265737300000000000000000000000000000000000000000000000000000000602082015250565b7f4552433732313a20617070726f766520746f2063616c6c657200000000000000600082015250565b7f4552433732313a206f70657261746f7220717565727920666f72206e6f6e657860008201527f697374656e7420746f6b656e0000000000000000000000000000000000000000602082015250565b7f4f6e6c792074686520746f6b656e206f776e65722063616e20706572666f726d60008201527f207468697320616374696f6e0000000000000000000000000000000000000000602082015250565b7f4552433732313a20617070726f76652063616c6c6572206973206e6f74206f7760008201527f6e6572206e6f7220617070726f76656420666f7220616c6c0000000000000000602082015250565b7f546865204e46542068617320616c72656164792072656163686564206d61786960008201527f6d756d20737570706c7900000000000000000000000000000000000000000000602082015250565b7f4552433732313a2062616c616e636520717565727920666f7220746865207a6560008201527f726f206164647265737300000000000000000000000000000000000000000000602082015250565b7f4552433732313a206f776e657220717565727920666f72206e6f6e657869737460008201527f656e7420746f6b656e0000000000000000000000000000000000000000000000602082015250565b7f45524337323155524953746f726167653a2055524920736574206f66206e6f6e60008201527f6578697374656e7420746f6b656e000000000000000000000000000000000000602082015250565b7f4552433732313a206d696e7420746f20746865207a65726f2061646472657373600082015250565b7f45524337323155524953746f726167653a2055524920717565727920666f722060008201527f6e6f6e6578697374656e7420746f6b656e000000000000000000000000000000602082015250565b7f77726f6e672076616c75652073656e7400000000000000000000000000000000600082015250565b7f4552433732313a20617070726f76656420717565727920666f72206e6f6e657860008201527f697374656e7420746f6b656e0000000000000000000000000000000000000000602082015250565b7f4552433732313a207472616e73666572206f6620746f6b656e2074686174206960008201527f73206e6f74206f776e0000000000000000000000000000000000000000000000602082015250565b7f4552433732314d657461646174613a2055524920717565727920666f72206e6f60008201527f6e6578697374656e7420746f6b656e0000000000000000000000000000000000602082015250565b7f4e6f7420656e6f75676820457468207761732070617373656400000000000000600082015250565b7f4552433732313a20617070726f76616c20746f2063757272656e74206f776e6560008201527f7200000000000000000000000000000000000000000000000000000000000000602082015250565b7f4552433732313a207472616e736665722063616c6c6572206973206e6f74206f60008201527f776e6572206e6f7220617070726f766564000000000000000000000000000000602082015250565b7f6f6e6c79207468652063726561746f722063616e20706572666f726d2074686960008201527f7320616374696f6e000000000000000000000000000000000000000000000000602082015250565b613fc88161370d565b8114613fd357600080fd5b50565b613fdf8161371f565b8114613fea57600080fd5b50565b613ff68161372b565b811461400157600080fd5b50565b61400d81613777565b811461401857600080fd5b5056fea26469706673582212205e894179c5896fec3ce5ef6b69ef8a893f5bbbb12dbc156bc220c2a0e1bc7a9564736f6c63430008070033",
  "linkReferences": {},
  "deployedLinkReferences": {}
}