{
  "_format": "hh-sol-artifact-1",
  "contractName": "GalaxyNFT",
  "sourceName": "contracts/GalaxyNFT.sol",
  "abi": [
    {
      "inputs": [
        {
          "internalType": "string",
          "name": "name",
          "type": "string"
        },
        {
          "internalType": "string",
          "name": "symbol",
          "type": "string"
        },
        {
          "internalType": "address",
          "name": "marketplaceAddress",
          "type": "address"
        },
        {
          "internalType": "string",
          "name": "data",
          "type": "string"
        },
        {
          "internalType": "uint256",
          "name": "price",
          "type": "uint256"
        }
      ],
      "stateMutability": "nonpayable",
      "type": "constructor"
    },
    {
      "anonymous": false,
      "inputs": [
        {
          "indexed": true,
          "internalType": "address",
          "name": "owner",
          "type": "address"
        },
        {
          "indexed": true,
          "internalType": "address",
          "name": "approved",
          "type": "address"
        },
        {
          "indexed": true,
          "internalType": "uint256",
          "name": "tokenId",
          "type": "uint256"
        }
      ],
      "name": "Approval",
      "type": "event"
    },
    {
      "anonymous": false,
      "inputs": [
        {
          "indexed": true,
          "internalType": "address",
          "name": "owner",
          "type": "address"
        },
        {
          "indexed": true,
          "internalType": "address",
          "name": "operator",
          "type": "address"
        },
        {
          "indexed": false,
          "internalType": "bool",
          "name": "approved",
          "type": "bool"
        }
      ],
      "name": "ApprovalForAll",
      "type": "event"
    },
    {
      "anonymous": false,
      "inputs": [
        {
          "indexed": true,
          "internalType": "address",
          "name": "from",
          "type": "address"
        },
        {
          "indexed": true,
          "internalType": "address",
          "name": "to",
          "type": "address"
        },
        {
          "indexed": true,
          "internalType": "uint256",
          "name": "tokenId",
          "type": "uint256"
        }
      ],
      "name": "Transfer",
      "type": "event"
    },
    {
      "inputs": [
        {
          "internalType": "uint256",
          "name": "id",
          "type": "uint256"
        },
        {
          "internalType": "string",
          "name": "tokenURI",
          "type": "string"
        }
      ],
      "name": "addTokenUri",
      "outputs": [],
      "stateMutability": "nonpayable",
      "type": "function"
    },
    {
      "inputs": [
        {
          "internalType": "address",
          "name": "to",
          "type": "address"
        },
        {
          "internalType": "uint256",
          "name": "tokenId",
          "type": "uint256"
        }
      ],
      "name": "approve",
      "outputs": [],
      "stateMutability": "nonpayable",
      "type": "function"
    },
    {
      "inputs": [
        {
          "internalType": "address",
          "name": "owner",
          "type": "address"
        }
      ],
      "name": "balanceOf",
      "outputs": [
        {
          "internalType": "uint256",
          "name": "",
          "type": "uint256"
        }
      ],
      "stateMutability": "view",
      "type": "function"
    },
    {
      "inputs": [],
      "name": "createToken",
      "outputs": [
        {
          "internalType": "uint256",
          "name": "",
          "type": "uint256"
        }
      ],
      "stateMutability": "payable",
      "type": "function"
    },
    {
      "inputs": [],
      "name": "getAllTokens",
      "outputs": [
        {
          "components": [
            {
              "internalType": "uint256",
              "name": "id",
              "type": "uint256"
            },
            {
              "internalType": "address",
              "name": "owner",
              "type": "address"
            },
            {
              "internalType": "bool",
              "name": "forSale",
              "type": "bool"
            },
            {
              "internalType": "uint256",
              "name": "price",
              "type": "uint256"
            },
            {
              "internalType": "uint256",
              "name": "pricePaid",
              "type": "uint256"
            },
            {
              "internalType": "uint256",
              "name": "purchaseDate",
              "type": "uint256"
            }
          ],
          "internalType": "struct GalaxyNFT.tokenState[]",
          "name": "",
          "type": "tuple[]"
        }
      ],
      "stateMutability": "view",
      "type": "function"
    },
    {
      "inputs": [
        {
          "internalType": "uint256",
          "name": "tokenId",
          "type": "uint256"
        }
      ],
      "name": "getApproved",
      "outputs": [
        {
          "internalType": "address",
          "name": "",
          "type": "address"
        }
      ],
      "stateMutability": "view",
      "type": "function"
    },
    {
      "inputs": [],
      "name": "getInitialPrice",
      "outputs": [
        {
          "internalType": "uint256",
          "name": "",
          "type": "uint256"
        }
      ],
      "stateMutability": "view",
      "type": "function"
    },
    {
      "inputs": [],
      "name": "getMaxSupply",
      "outputs": [
        {
          "internalType": "uint256",
          "name": "",
          "type": "uint256"
        }
      ],
      "stateMutability": "view",
      "type": "function"
    },
    {
      "inputs": [],
      "name": "getMetaData",
      "outputs": [
        {
          "internalType": "string",
          "name": "",
          "type": "string"
        }
      ],
      "stateMutability": "view",
      "type": "function"
    },
    {
      "inputs": [],
      "name": "getNumberForSale",
      "outputs": [
        {
          "internalType": "uint256",
          "name": "",
          "type": "uint256"
        }
      ],
      "stateMutability": "view",
      "type": "function"
    },
    {
      "inputs": [],
      "name": "getSenderTokens",
      "outputs": [
        {
          "components": [
            {
              "internalType": "uint256",
              "name": "id",
              "type": "uint256"
            },
            {
              "internalType": "address",
              "name": "owner",
              "type": "address"
            },
            {
              "internalType": "bool",
              "name": "forSale",
              "type": "bool"
            },
            {
              "internalType": "uint256",
              "name": "price",
              "type": "uint256"
            },
            {
              "internalType": "uint256",
              "name": "pricePaid",
              "type": "uint256"
            },
            {
              "internalType": "uint256",
              "name": "purchaseDate",
              "type": "uint256"
            }
          ],
          "internalType": "struct GalaxyNFT.tokenState[]",
          "name": "",
          "type": "tuple[]"
        }
      ],
      "stateMutability": "view",
      "type": "function"
    },
    {
      "inputs": [],
      "name": "getTokenCount",
      "outputs": [
        {
          "internalType": "uint256",
          "name": "",
          "type": "uint256"
        }
      ],
      "stateMutability": "view",
      "type": "function"
    },
    {
      "inputs": [
        {
          "internalType": "uint256",
          "name": "tokenId",
          "type": "uint256"
        }
      ],
      "name": "getTokenState",
      "outputs": [
        {
          "components": [
            {
              "internalType": "uint256",
              "name": "id",
              "type": "uint256"
            },
            {
              "internalType": "address",
              "name": "owner",
              "type": "address"
            },
            {
              "internalType": "bool",
              "name": "forSale",
              "type": "bool"
            },
            {
              "internalType": "uint256",
              "name": "price",
              "type": "uint256"
            },
            {
              "internalType": "uint256",
              "name": "pricePaid",
              "type": "uint256"
            },
            {
              "internalType": "uint256",
              "name": "purchaseDate",
              "type": "uint256"
            }
          ],
          "internalType": "struct GalaxyNFT.tokenState",
          "name": "",
          "type": "tuple"
        }
      ],
      "stateMutability": "view",
      "type": "function"
    },
    {
      "inputs": [
        {
          "internalType": "address",
          "name": "owner",
          "type": "address"
        },
        {
          "internalType": "address",
          "name": "operator",
          "type": "address"
        }
      ],
      "name": "isApprovedForAll",
      "outputs": [
        {
          "internalType": "bool",
          "name": "",
          "type": "bool"
        }
      ],
      "stateMutability": "view",
      "type": "function"
    },
    {
      "inputs": [],
      "name": "name",
      "outputs": [
        {
          "internalType": "string",
          "name": "",
          "type": "string"
        }
      ],
      "stateMutability": "view",
      "type": "function"
    },
    {
      "inputs": [
        {
          "internalType": "uint256",
          "name": "tokenId",
          "type": "uint256"
        }
      ],
      "name": "ownerOf",
      "outputs": [
        {
          "internalType": "address",
          "name": "",
          "type": "address"
        }
      ],
      "stateMutability": "view",
      "type": "function"
    },
    {
      "inputs": [
        {
          "internalType": "uint256",
          "name": "tokenId",
          "type": "uint256"
        }
      ],
      "name": "purchaseToken",
      "outputs": [],
      "stateMutability": "payable",
      "type": "function"
    },
    {
      "inputs": [
        {
          "internalType": "address",
          "name": "from",
          "type": "address"
        },
        {
          "internalType": "address",
          "name": "to",
          "type": "address"
        },
        {
          "internalType": "uint256",
          "name": "tokenId",
          "type": "uint256"
        }
      ],
      "name": "safeTransferFrom",
      "outputs": [],
      "stateMutability": "nonpayable",
      "type": "function"
    },
    {
      "inputs": [
        {
          "internalType": "address",
          "name": "from",
          "type": "address"
        },
        {
          "internalType": "address",
          "name": "to",
          "type": "address"
        },
        {
          "internalType": "uint256",
          "name": "tokenId",
          "type": "uint256"
        },
        {
          "internalType": "bytes",
          "name": "_data",
          "type": "bytes"
        }
      ],
      "name": "safeTransferFrom",
      "outputs": [],
      "stateMutability": "nonpayable",
      "type": "function"
    },
    {
      "inputs": [
        {
          "internalType": "address",
          "name": "operator",
          "type": "address"
        },
        {
          "internalType": "bool",
          "name": "approved",
          "type": "bool"
        }
      ],
      "name": "setApprovalForAll",
      "outputs": [],
      "stateMutability": "nonpayable",
      "type": "function"
    },
    {
      "inputs": [
        {
          "internalType": "string",
          "name": "data",
          "type": "string"
        }
      ],
      "name": "setMetaData",
      "outputs": [],
      "stateMutability": "nonpayable",
      "type": "function"
    },
    {
      "inputs": [
        {
          "internalType": "uint256",
          "name": "tokenId",
          "type": "uint256"
        },
        {
          "internalType": "uint256",
          "name": "newPrice",
          "type": "uint256"
        }
      ],
      "name": "setTokenPrice",
      "outputs": [],
      "stateMutability": "nonpayable",
      "type": "function"
    },
    {
      "inputs": [
        {
          "internalType": "uint256",
          "name": "tokenId",
          "type": "uint256"
        },
        {
          "internalType": "bool",
          "name": "saleState",
          "type": "bool"
        }
      ],
      "name": "setTokenSaleState",
      "outputs": [],
      "stateMutability": "nonpayable",
      "type": "function"
    },
    {
      "inputs": [
        {
          "internalType": "bytes4",
          "name": "interfaceId",
          "type": "bytes4"
        }
      ],
      "name": "supportsInterface",
      "outputs": [
        {
          "internalType": "bool",
          "name": "",
          "type": "bool"
        }
      ],
      "stateMutability": "view",
      "type": "function"
    },
    {
      "inputs": [],
      "name": "symbol",
      "outputs": [
        {
          "internalType": "string",
          "name": "",
          "type": "string"
        }
      ],
      "stateMutability": "view",
      "type": "function"
    },
    {
      "inputs": [
        {
          "internalType": "uint256",
          "name": "tokenId",
          "type": "uint256"
        }
      ],
      "name": "tokenURI",
      "outputs": [
        {
          "internalType": "string",
          "name": "",
          "type": "string"
        }
      ],
      "stateMutability": "view",
      "type": "function"
    },
    {
      "inputs": [
        {
          "internalType": "address",
          "name": "from",
          "type": "address"
        },
        {
          "internalType": "address",
          "name": "to",
          "type": "address"
        },
        {
          "internalType": "uint256",
          "name": "tokenId",
          "type": "uint256"
        }
      ],
      "name": "transferFrom",
      "outputs": [],
      "stateMutability": "nonpayable",
      "type": "function"
    }
  ],
  "bytecode": "0x608060405260646008553480156200001657600080fd5b50604051620050693803806200506983398181016040528101906200003c919062000807565b8484816000908051906020019062000056929190620006ab565b5080600190805190602001906200006f929190620006ab565b50505082600960006101000a81548173ffffffffffffffffffffffffffffffffffffffff021916908373ffffffffffffffffffffffffffffffffffffffff16021790555081600b9080519060200190620000cb929190620006ab565b5080600c81905550600060078190555033600a60006101000a81548173ffffffffffffffffffffffffffffffffffffffff021916908373ffffffffffffffffffffffffffffffffffffffff1602179055506040518060c0016040528060075481526020013373ffffffffffffffffffffffffffffffffffffffff168152602001600015158152602001600c548152602001600c54815260200142815250600d600060075481526020019081526020016000206000820151816000015560208201518160010160006101000a81548173ffffffffffffffffffffffffffffffffffffffff021916908373ffffffffffffffffffffffffffffffffffffffff16021790555060408201518160010160146101000a81548160ff021916908315150217905550606082015181600201556080820151816003015560a082015181600401559050506200022333600754620002b460201b60201c565b62000258600960009054906101000a900473ffffffffffffffffffffffffffffffffffffffff1660016200049a60201b60201c565b6001600760008282546200026d919062000a65565b92505081905550620002a9600960009054906101000a900473ffffffffffffffffffffffffffffffffffffffff1660016200049a60201b60201c565b505050505062000d0f565b600073ffffffffffffffffffffffffffffffffffffffff168273ffffffffffffffffffffffffffffffffffffffff16141562000327576040517f08c379a00000000000000000000000000000000000000000000000000000000081526004016200031e90620009d3565b60405180910390fd5b6200033881620004c060201b60201c565b156200037b576040517f08c379a000000000000000000000000000000000000000000000000000000000815260040162000372906200098f565b60405180910390fd5b6200038f600083836200052c60201b60201c565b6001600360008473ffffffffffffffffffffffffffffffffffffffff1673ffffffffffffffffffffffffffffffffffffffff1681526020019081526020016000206000828254620003e1919062000a65565b92505081905550816002600083815260200190815260200160002060006101000a81548173ffffffffffffffffffffffffffffffffffffffff021916908373ffffffffffffffffffffffffffffffffffffffff160217905550808273ffffffffffffffffffffffffffffffffffffffff16600073ffffffffffffffffffffffffffffffffffffffff167fddf252ad1be2c89b69c2b068fc378daa952ba7f163c4a11628f55a4df523b3ef60405160405180910390a45050565b620004bc620004ae6200053160201b60201c565b83836200053960201b60201c565b5050565b60008073ffffffffffffffffffffffffffffffffffffffff166002600084815260200190815260200160002060009054906101000a900473ffffffffffffffffffffffffffffffffffffffff1673ffffffffffffffffffffffffffffffffffffffff1614159050919050565b505050565b600033905090565b8173ffffffffffffffffffffffffffffffffffffffff168373ffffffffffffffffffffffffffffffffffffffff161415620005ab576040517f08c379a0000000000000000000000000000000000000000000000000000000008152600401620005a290620009b1565b60405180910390fd5b80600560008573ffffffffffffffffffffffffffffffffffffffff1673ffffffffffffffffffffffffffffffffffffffff16815260200190815260200160002060008473ffffffffffffffffffffffffffffffffffffffff1673ffffffffffffffffffffffffffffffffffffffff16815260200190815260200160002060006101000a81548160ff0219169083151502179055508173ffffffffffffffffffffffffffffffffffffffff168373ffffffffffffffffffffffffffffffffffffffff167f17307eab39ab6107e8899845ad3d59bd9653f200f220920489ca2b5937696c31836040516200069e919062000972565b60405180910390a3505050565b828054620006b99062000b42565b90600052602060002090601f016020900481019282620006dd576000855562000729565b82601f10620006f857805160ff191683800117855562000729565b8280016001018555821562000729579182015b82811115620007285782518255916020019190600101906200070b565b5b5090506200073891906200073c565b5090565b5b80821115620007575760008160009055506001016200073d565b5090565b6000620007726200076c8462000a1e565b620009f5565b90508281526020810184848401111562000791576200079062000c40565b5b6200079e84828562000b0c565b509392505050565b600081519050620007b78162000cdb565b92915050565b600082601f830112620007d557620007d462000c3b565b5b8151620007e78482602086016200075b565b91505092915050565b600081519050620008018162000cf5565b92915050565b600080600080600060a0868803121562000826576200082562000c4a565b5b600086015167ffffffffffffffff81111562000847576200084662000c45565b5b6200085588828901620007bd565b955050602086015167ffffffffffffffff81111562000879576200087862000c45565b5b6200088788828901620007bd565b94505060406200089a88828901620007a6565b935050606086015167ffffffffffffffff811115620008be57620008bd62000c45565b5b620008cc88828901620007bd565b9250506080620008df88828901620007f0565b9150509295509295909350565b620008f78162000ad6565b82525050565b60006200090c601c8362000a54565b9150620009198262000c60565b602082019050919050565b60006200093360198362000a54565b9150620009408262000c89565b602082019050919050565b60006200095a60208362000a54565b9150620009678262000cb2565b602082019050919050565b6000602082019050620009896000830184620008ec565b92915050565b60006020820190508181036000830152620009aa81620008fd565b9050919050565b60006020820190508181036000830152620009cc8162000924565b9050919050565b60006020820190508181036000830152620009ee816200094b565b9050919050565b600062000a0162000a14565b905062000a0f828262000b78565b919050565b6000604051905090565b600067ffffffffffffffff82111562000a3c5762000a3b62000c0c565b5b62000a478262000c4f565b9050602081019050919050565b600082825260208201905092915050565b600062000a728262000b02565b915062000a7f8362000b02565b9250827fffffffffffffffffffffffffffffffffffffffffffffffffffffffffffffffff0382111562000ab75762000ab662000bae565b5b828201905092915050565b600062000acf8262000ae2565b9050919050565b60008115159050919050565b600073ffffffffffffffffffffffffffffffffffffffff82169050919050565b6000819050919050565b60005b8381101562000b2c57808201518184015260208101905062000b0f565b8381111562000b3c576000848401525b50505050565b6000600282049050600182168062000b5b57607f821691505b6020821081141562000b725762000b7162000bdd565b5b50919050565b62000b838262000c4f565b810181811067ffffffffffffffff8211171562000ba55762000ba462000c0c565b5b80604052505050565b7f4e487b7100000000000000000000000000000000000000000000000000000000600052601160045260246000fd5b7f4e487b7100000000000000000000000000000000000000000000000000000000600052602260045260246000fd5b7f4e487b7100000000000000000000000000000000000000000000000000000000600052604160045260246000fd5b600080fd5b600080fd5b600080fd5b600080fd5b6000601f19601f8301169050919050565b7f4552433732313a20746f6b656e20616c7265616479206d696e74656400000000600082015250565b7f4552433732313a20617070726f766520746f2063616c6c657200000000000000600082015250565b7f4552433732313a206d696e7420746f20746865207a65726f2061646472657373600082015250565b62000ce68162000ac2565b811462000cf257600080fd5b50565b62000d008162000b02565b811462000d0c57600080fd5b50565b61434a8062000d1f6000396000f3fe60806040526004361061019c5760003560e01c806395d89b41116100ec578063d2786ba41161008a578063e985e9c511610064578063e985e9c5146105ac578063eb685c47146105e9578063ee0c04ca14610612578063f45fd0f31461063d5761019c565b8063d2786ba41461052f578063d821f81a1461055a578063db004fc6146105835761019c565b8063b88d4fde116100c6578063b88d4fde14610484578063c2db2c42146104ad578063c87b56dd146104c9578063d15ecc4c146105065761019c565b806395d89b41146104125780639cbf9e361461043d578063a22cb4651461045b5761019c565b80632a5c792a116101595780634c0f38c2116101335780634c0f38c2146103425780636352211e1461036d57806370a08231146103aa57806378a89567146103e75761019c565b80632a5c792a146102c35780632b013d6d146102ee57806342842e0e146103195761019c565b806301ffc9a7146101a157806306f660ef146101de57806306fdde0314610209578063081812fc14610234578063095ea7b31461027157806323b872dd1461029a575b600080fd5b3480156101ad57600080fd5b506101c860048036038101906101c39190612cb4565b61067a565b6040516101d5919061349b565b60405180910390f35b3480156101ea57600080fd5b506101f361075c565b60405161020091906137d3565b60405180910390f35b34801561021557600080fd5b5061021e610766565b60405161022b91906134b6565b60405180910390f35b34801561024057600080fd5b5061025b60048036038101906102569190612d57565b6107f8565b6040516102689190613412565b60405180910390f35b34801561027d57600080fd5b5061029860048036038101906102939190612c74565b61087d565b005b3480156102a657600080fd5b506102c160048036038101906102bc9190612b5e565b610995565b005b3480156102cf57600080fd5b506102d86109f5565b6040516102e59190613479565b60405180910390f35b3480156102fa57600080fd5b50610303610bc2565b60405161031091906137d3565b60405180910390f35b34801561032557600080fd5b50610340600480360381019061033b9190612b5e565b610c31565b005b34801561034e57600080fd5b50610357610c51565b60405161036491906137d3565b60405180910390f35b34801561037957600080fd5b50610394600480360381019061038f9190612d57565b610c5b565b6040516103a19190613412565b60405180910390f35b3480156103b657600080fd5b506103d160048036038101906103cc9190612af1565b610d0d565b6040516103de91906137d3565b60405180910390f35b3480156103f357600080fd5b506103fc610dc5565b60405161040991906137d3565b60405180910390f35b34801561041e57600080fd5b50610427610dcf565b60405161043491906134b6565b60405180910390f35b610445610e61565b60405161045291906137d3565b60405180910390f35b34801561046757600080fd5b50610482600480360381019061047d9190612c34565b6110a8565b005b34801561049057600080fd5b506104ab60048036038101906104a69190612bb1565b6110be565b005b6104c760048036038101906104c29190612d57565b611120565b005b3480156104d557600080fd5b506104f060048036038101906104eb9190612d57565b6113ca565b6040516104fd91906134b6565b60405180910390f35b34801561051257600080fd5b5061052d60048036038101906105289190612dc4565b61151c565b005b34801561053b57600080fd5b506105446115ba565b60405161055191906134b6565b60405180910390f35b34801561056657600080fd5b50610581600480360381019061057c9190612d0e565b61164c565b005b34801561058f57600080fd5b506105aa60048036038101906105a59190612d84565b6116f6565b005b3480156105b857600080fd5b506105d360048036038101906105ce9190612b1e565b6117a0565b6040516105e0919061349b565b60405180910390f35b3480156105f557600080fd5b50610610600480360381019061060b9190612e20565b611834565b005b34801561061e57600080fd5b5061062761190f565b6040516106349190613479565b60405180910390f35b34801561064957600080fd5b50610664600480360381019061065f9190612d57565b611b47565b60405161067191906137b8565b60405180910390f35b60007f80ac58cd000000000000000000000000000000000000000000000000000000007bffffffffffffffffffffffffffffffffffffffffffffffffffffffff1916827bffffffffffffffffffffffffffffffffffffffffffffffffffffffff1916148061074557507f5b5e139f000000000000000000000000000000000000000000000000000000007bffffffffffffffffffffffffffffffffffffffffffffffffffffffff1916827bffffffffffffffffffffffffffffffffffffffffffffffffffffffff1916145b80610755575061075482611c0d565b5b9050919050565b6000600c54905090565b60606000805461077590613abc565b80601f01602080910402602001604051908101604052809291908181526020018280546107a190613abc565b80156107ee5780601f106107c3576101008083540402835291602001916107ee565b820191906000526020600020905b8154815290600101906020018083116107d157829003601f168201915b5050505050905090565b600061080382611c77565b610842576040517f08c379a0000000000000000000000000000000000000000000000000000000008152600401610839906136d8565b60405180910390fd5b6004600083815260200190815260200160002060009054906101000a900473ffffffffffffffffffffffffffffffffffffffff169050919050565b600061088882610c5b565b90508073ffffffffffffffffffffffffffffffffffffffff168373ffffffffffffffffffffffffffffffffffffffff1614156108f9576040517f08c379a00000000000000000000000000000000000000000000000000000000081526004016108f090613758565b60405180910390fd5b8073ffffffffffffffffffffffffffffffffffffffff16610918611ce3565b73ffffffffffffffffffffffffffffffffffffffff161480610947575061094681610941611ce3565b6117a0565b5b610986576040517f08c379a000000000000000000000000000000000000000000000000000000000815260040161097d906135d8565b60405180910390fd5b6109908383611ceb565b505050565b6109a66109a0611ce3565b82611da4565b6109e5576040517f08c379a00000000000000000000000000000000000000000000000000000000081526004016109dc90613778565b60405180910390fd5b6109f0838383611e82565b505050565b6060600060075467ffffffffffffffff811115610a1557610a14613c55565b5b604051908082528060200260200182016040528015610a4e57816020015b610a3b6128b7565b815260200190600190039081610a335790505b50905060005b600754811015610bba57610a666128b7565b600d600083815260200190815260200160002060000154816000018181525050600d600083815260200190815260200160002060010160009054906101000a900473ffffffffffffffffffffffffffffffffffffffff16816020019073ffffffffffffffffffffffffffffffffffffffff16908173ffffffffffffffffffffffffffffffffffffffff1681525050600d600083815260200190815260200160002060010160149054906101000a900460ff16816040019015159081151581525050600d600083815260200190815260200160002060020154816060018181525050600d600083815260200190815260200160002060030154816080018181525050600d6000838152602001908152602001600020600401548160a001818152505080838381518110610b9b57610b9a613c26565b5b6020026020010181905250508080610bb290613b1f565b915050610a54565b508091505090565b6000806000905060005b600754811015610c295760011515600d600083815260200190815260200160002060010160149054906101000a900460ff1615151415610c1657600182610c1391906138f1565b91505b8080610c2190613b1f565b915050610bcc565b508091505090565b610c4c838383604051806020016040528060008152506110be565b505050565b6000600854905090565b6000806002600084815260200190815260200160002060009054906101000a900473ffffffffffffffffffffffffffffffffffffffff169050600073ffffffffffffffffffffffffffffffffffffffff168173ffffffffffffffffffffffffffffffffffffffff161415610d04576040517f08c379a0000000000000000000000000000000000000000000000000000000008152600401610cfb90613638565b60405180910390fd5b80915050919050565b60008073ffffffffffffffffffffffffffffffffffffffff168273ffffffffffffffffffffffffffffffffffffffff161415610d7e576040517f08c379a0000000000000000000000000000000000000000000000000000000008152600401610d7590613618565b60405180910390fd5b600360008373ffffffffffffffffffffffffffffffffffffffff1673ffffffffffffffffffffffffffffffffffffffff168152602001908152602001600020549050919050565b6000600754905090565b606060018054610dde90613abc565b80601f0160208091040260200160405190810160405280929190818152602001828054610e0a90613abc565b8015610e575780601f10610e2c57610100808354040283529160200191610e57565b820191906000526020600020905b815481529060010190602001808311610e3a57829003601f168201915b5050505050905090565b600060085460075410610ea9576040517f08c379a0000000000000000000000000000000000000000000000000000000008152600401610ea0906135f8565b60405180910390fd5b600c543414610eed576040517f08c379a0000000000000000000000000000000000000000000000000000000008152600401610ee490613738565b60405180910390fd5b600a60009054906101000a900473ffffffffffffffffffffffffffffffffffffffff1673ffffffffffffffffffffffffffffffffffffffff166108fc349081150290604051600060405180830381858888f19350505050158015610f55573d6000803e3d6000fd5b50600060075490506040518060c0016040528060075481526020013373ffffffffffffffffffffffffffffffffffffffff168152602001600015158152602001600c548152602001600c54815260200142815250600d60008381526020019081526020016000206000820151816000015560208201518160010160006101000a81548173ffffffffffffffffffffffffffffffffffffffff021916908373ffffffffffffffffffffffffffffffffffffffff16021790555060408201518160010160146101000a81548160ff021916908315150217905550606082015181600201556080820151816003015560a0820151816004015590505061105a336007546120de565b611087600960009054906101000a900473ffffffffffffffffffffffffffffffffffffffff1660016110a8565b60016007600082825461109a91906138f1565b925050819055508091505090565b6110ba6110b3611ce3565b83836122ac565b5050565b6110cf6110c9611ce3565b83611da4565b61110e576040517f08c379a000000000000000000000000000000000000000000000000000000000815260040161110590613778565b60405180910390fd5b61111a84848484612419565b50505050565b8060011515600d600083815260200190815260200160002060010160149054906101000a900460ff1615151461118b576040517f08c379a000000000000000000000000000000000000000000000000000000000815260040161118290613518565b60405180910390fd5b600d60008381526020019081526020016000206002015434146111e3576040517f08c379a00000000000000000000000000000000000000000000000000000000081526004016111da906136b8565b60405180910390fd5b60006111ee83610c5b565b90506000349050600060076064346112069190613947565b6112109190613978565b9050600a60009054906101000a900473ffffffffffffffffffffffffffffffffffffffff1673ffffffffffffffffffffffffffffffffffffffff166108fc829081150290604051600060405180830381858888f1935050505015801561127a573d6000803e3d6000fd5b508273ffffffffffffffffffffffffffffffffffffffff166108fc82846112a191906139d2565b9081150290604051600060405180830381858888f193505050501580156112cc573d6000803e3d6000fd5b506112d8833387611e82565b6040518060c001604052808681526020013373ffffffffffffffffffffffffffffffffffffffff16815260200160001515815260200183815260200183815260200142815250600d60008781526020019081526020016000206000820151816000015560208201518160010160006101000a81548173ffffffffffffffffffffffffffffffffffffffff021916908373ffffffffffffffffffffffffffffffffffffffff16021790555060408201518160010160146101000a81548160ff021916908315150217905550606082015181600201556080820151816003015560a082015181600401559050505050505050565b60606113d582611c77565b611414576040517f08c379a000000000000000000000000000000000000000000000000000000000815260040161140b90613698565b60405180910390fd5b600060066000848152602001908152602001600020805461143490613abc565b80601f016020809104026020016040519081016040528092919081815260200182805461146090613abc565b80156114ad5780601f10611482576101008083540402835291602001916114ad565b820191906000526020600020905b81548152906001019060200180831161149057829003601f168201915b5050505050905060006114be612475565b90506000815114156114d4578192505050611517565b6000825111156115095780826040516020016114f19291906133ee565b60405160208183030381529060405292505050611517565b6115128461248c565b925050505b919050565b600a60009054906101000a900473ffffffffffffffffffffffffffffffffffffffff1673ffffffffffffffffffffffffffffffffffffffff163373ffffffffffffffffffffffffffffffffffffffff16146115ac576040517f08c379a00000000000000000000000000000000000000000000000000000000081526004016115a390613798565b60405180910390fd5b6115b68282612533565b5050565b6060600b80546115c990613abc565b80601f01602080910402602001604051908101604052809291908181526020018280546115f590613abc565b80156116425780601f1061161757610100808354040283529160200191611642565b820191906000526020600020905b81548152906001019060200180831161162557829003601f168201915b5050505050905090565b600a60009054906101000a900473ffffffffffffffffffffffffffffffffffffffff1673ffffffffffffffffffffffffffffffffffffffff163373ffffffffffffffffffffffffffffffffffffffff16146116dc576040517f08c379a00000000000000000000000000000000000000000000000000000000081526004016116d390613798565b60405180910390fd5b80600b90805190602001906116f2929190612905565b5050565b8161170081610c5b565b73ffffffffffffffffffffffffffffffffffffffff163373ffffffffffffffffffffffffffffffffffffffff161461176d576040517f08c379a0000000000000000000000000000000000000000000000000000000008152600401611764906135b8565b60405180910390fd5b81600d600085815260200190815260200160002060010160146101000a81548160ff021916908315150217905550505050565b6000600560008473ffffffffffffffffffffffffffffffffffffffff1673ffffffffffffffffffffffffffffffffffffffff16815260200190815260200160002060008373ffffffffffffffffffffffffffffffffffffffff1673ffffffffffffffffffffffffffffffffffffffff16815260200190815260200160002060009054906101000a900460ff16905092915050565b8161183e81610c5b565b73ffffffffffffffffffffffffffffffffffffffff163373ffffffffffffffffffffffffffffffffffffffff16146118ab576040517f08c379a00000000000000000000000000000000000000000000000000000000081526004016118a2906135b8565b60405180910390fd5b60648210156118ef576040517f08c379a00000000000000000000000000000000000000000000000000000000081526004016118e6906134d8565b60405180910390fd5b81600d600085815260200190815260200160002060020181905550505050565b6060600060075467ffffffffffffffff81111561192f5761192e613c55565b5b60405190808252806020026020018201604052801561196857816020015b6119556128b7565b81526020019060019003908161194d5790505b50905060005b600754811015611b3f573373ffffffffffffffffffffffffffffffffffffffff16600d600083815260200190815260200160002060010160009054906101000a900473ffffffffffffffffffffffffffffffffffffffff1673ffffffffffffffffffffffffffffffffffffffff161415611b2c576119ea6128b7565b600d600083815260200190815260200160002060000154816000018181525050600d600083815260200190815260200160002060010160009054906101000a900473ffffffffffffffffffffffffffffffffffffffff16816020019073ffffffffffffffffffffffffffffffffffffffff16908173ffffffffffffffffffffffffffffffffffffffff1681525050600d600083815260200190815260200160002060010160149054906101000a900460ff16816040019015159081151581525050600d600083815260200190815260200160002060020154816060018181525050600d600083815260200190815260200160002060030154816080018181525050600d6000838152602001908152602001600020600401548160a001818152505080838381518110611b1f57611b1e613c26565b5b6020026020010181905250505b8080611b3790613b1f565b91505061196e565b508091505090565b611b4f6128b7565b600d60008381526020019081526020016000206040518060c0016040529081600082015481526020016001820160009054906101000a900473ffffffffffffffffffffffffffffffffffffffff1673ffffffffffffffffffffffffffffffffffffffff1673ffffffffffffffffffffffffffffffffffffffff1681526020016001820160149054906101000a900460ff1615151515815260200160028201548152602001600382015481526020016004820154815250509050919050565b60007f01ffc9a7000000000000000000000000000000000000000000000000000000007bffffffffffffffffffffffffffffffffffffffffffffffffffffffff1916827bffffffffffffffffffffffffffffffffffffffffffffffffffffffff1916149050919050565b60008073ffffffffffffffffffffffffffffffffffffffff166002600084815260200190815260200160002060009054906101000a900473ffffffffffffffffffffffffffffffffffffffff1673ffffffffffffffffffffffffffffffffffffffff1614159050919050565b600033905090565b816004600083815260200190815260200160002060006101000a81548173ffffffffffffffffffffffffffffffffffffffff021916908373ffffffffffffffffffffffffffffffffffffffff160217905550808273ffffffffffffffffffffffffffffffffffffffff16611d5e83610c5b565b73ffffffffffffffffffffffffffffffffffffffff167f8c5be1e5ebec7d5bd14f71427d1e84f3dd0314c0f7b2291e5b200ac8c7c3b92560405160405180910390a45050565b6000611daf82611c77565b611dee576040517f08c379a0000000000000000000000000000000000000000000000000000000008152600401611de590613598565b60405180910390fd5b6000611df983610c5b565b90508073ffffffffffffffffffffffffffffffffffffffff168473ffffffffffffffffffffffffffffffffffffffff161480611e6857508373ffffffffffffffffffffffffffffffffffffffff16611e50846107f8565b73ffffffffffffffffffffffffffffffffffffffff16145b80611e795750611e7881856117a0565b5b91505092915050565b8273ffffffffffffffffffffffffffffffffffffffff16611ea282610c5b565b73ffffffffffffffffffffffffffffffffffffffff1614611ef8576040517f08c379a0000000000000000000000000000000000000000000000000000000008152600401611eef906136f8565b60405180910390fd5b600073ffffffffffffffffffffffffffffffffffffffff168273ffffffffffffffffffffffffffffffffffffffff161415611f68576040517f08c379a0000000000000000000000000000000000000000000000000000000008152600401611f5f90613558565b60405180910390fd5b611f738383836125a7565b611f7e600082611ceb565b6001600360008573ffffffffffffffffffffffffffffffffffffffff1673ffffffffffffffffffffffffffffffffffffffff1681526020019081526020016000206000828254611fce91906139d2565b925050819055506001600360008473ffffffffffffffffffffffffffffffffffffffff1673ffffffffffffffffffffffffffffffffffffffff168152602001908152602001600020600082825461202591906138f1565b92505081905550816002600083815260200190815260200160002060006101000a81548173ffffffffffffffffffffffffffffffffffffffff021916908373ffffffffffffffffffffffffffffffffffffffff160217905550808273ffffffffffffffffffffffffffffffffffffffff168473ffffffffffffffffffffffffffffffffffffffff167fddf252ad1be2c89b69c2b068fc378daa952ba7f163c4a11628f55a4df523b3ef60405160405180910390a4505050565b600073ffffffffffffffffffffffffffffffffffffffff168273ffffffffffffffffffffffffffffffffffffffff16141561214e576040517f08c379a000000000000000000000000000000000000000000000000000000000815260040161214590613678565b60405180910390fd5b61215781611c77565b15612197576040517f08c379a000000000000000000000000000000000000000000000000000000000815260040161218e90613538565b60405180910390fd5b6121a3600083836125a7565b6001600360008473ffffffffffffffffffffffffffffffffffffffff1673ffffffffffffffffffffffffffffffffffffffff16815260200190815260200160002060008282546121f391906138f1565b92505081905550816002600083815260200190815260200160002060006101000a81548173ffffffffffffffffffffffffffffffffffffffff021916908373ffffffffffffffffffffffffffffffffffffffff160217905550808273ffffffffffffffffffffffffffffffffffffffff16600073ffffffffffffffffffffffffffffffffffffffff167fddf252ad1be2c89b69c2b068fc378daa952ba7f163c4a11628f55a4df523b3ef60405160405180910390a45050565b8173ffffffffffffffffffffffffffffffffffffffff168373ffffffffffffffffffffffffffffffffffffffff16141561231b576040517f08c379a000000000000000000000000000000000000000000000000000000000815260040161231290613578565b60405180910390fd5b80600560008573ffffffffffffffffffffffffffffffffffffffff1673ffffffffffffffffffffffffffffffffffffffff16815260200190815260200160002060008473ffffffffffffffffffffffffffffffffffffffff1673ffffffffffffffffffffffffffffffffffffffff16815260200190815260200160002060006101000a81548160ff0219169083151502179055508173ffffffffffffffffffffffffffffffffffffffff168373ffffffffffffffffffffffffffffffffffffffff167f17307eab39ab6107e8899845ad3d59bd9653f200f220920489ca2b5937696c318360405161240c919061349b565b60405180910390a3505050565b612424848484611e82565b612430848484846125ac565b61246f576040517f08c379a0000000000000000000000000000000000000000000000000000000008152600401612466906134f8565b60405180910390fd5b50505050565b606060405180602001604052806000815250905090565b606061249782611c77565b6124d6576040517f08c379a00000000000000000000000000000000000000000000000000000000081526004016124cd90613718565b60405180910390fd5b60006124e0612475565b90506000815111612500576040518060200160405280600081525061252b565b8061250a84612743565b60405160200161251b9291906133ee565b6040516020818303038152906040525b915050919050565b61253c82611c77565b61257b576040517f08c379a000000000000000000000000000000000000000000000000000000000815260040161257290613658565b60405180910390fd5b806006600084815260200190815260200160002090805190602001906125a2929190612905565b505050565b505050565b60006125cd8473ffffffffffffffffffffffffffffffffffffffff166128a4565b15612736578373ffffffffffffffffffffffffffffffffffffffff1663150b7a026125f6611ce3565b8786866040518563ffffffff1660e01b8152600401612618949392919061342d565b602060405180830381600087803b15801561263257600080fd5b505af192505050801561266357506040513d601f19601f820116820180604052508101906126609190612ce1565b60015b6126e6573d8060008114612693576040519150601f19603f3d011682016040523d82523d6000602084013e612698565b606091505b506000815114156126de576040517f08c379a00000000000000000000000000000000000000000000000000000000081526004016126d5906134f8565b60405180910390fd5b805181602001fd5b63150b7a0260e01b7bffffffffffffffffffffffffffffffffffffffffffffffffffffffff1916817bffffffffffffffffffffffffffffffffffffffffffffffffffffffff19161491505061273b565b600190505b949350505050565b6060600082141561278b576040518060400160405280600181526020017f3000000000000000000000000000000000000000000000000000000000000000815250905061289f565b600082905060005b600082146127bd5780806127a690613b1f565b915050600a826127b69190613947565b9150612793565b60008167ffffffffffffffff8111156127d9576127d8613c55565b5b6040519080825280601f01601f19166020018201604052801561280b5781602001600182028036833780820191505090505b5090505b600085146128985760018261282491906139d2565b9150600a856128339190613b68565b603061283f91906138f1565b60f81b81838151811061285557612854613c26565b5b60200101907effffffffffffffffffffffffffffffffffffffffffffffffffffffffffffff1916908160001a905350600a856128919190613947565b945061280f565b8093505050505b919050565b600080823b905060008111915050919050565b6040518060c0016040528060008152602001600073ffffffffffffffffffffffffffffffffffffffff1681526020016000151581526020016000815260200160008152602001600081525090565b82805461291190613abc565b90600052602060002090601f016020900481019282612933576000855561297a565b82601f1061294c57805160ff191683800117855561297a565b8280016001018555821561297a579182015b8281111561297957825182559160200191906001019061295e565b5b509050612987919061298b565b5090565b5b808211156129a457600081600090555060010161298c565b5090565b60006129bb6129b684613813565b6137ee565b9050828152602081018484840111156129d7576129d6613c89565b5b6129e2848285613a7a565b509392505050565b60006129fd6129f884613844565b6137ee565b905082815260208101848484011115612a1957612a18613c89565b5b612a24848285613a7a565b509392505050565b600081359050612a3b816142b8565b92915050565b600081359050612a50816142cf565b92915050565b600081359050612a65816142e6565b92915050565b600081519050612a7a816142e6565b92915050565b600082601f830112612a9557612a94613c84565b5b8135612aa58482602086016129a8565b91505092915050565b600082601f830112612ac357612ac2613c84565b5b8135612ad38482602086016129ea565b91505092915050565b600081359050612aeb816142fd565b92915050565b600060208284031215612b0757612b06613c93565b5b6000612b1584828501612a2c565b91505092915050565b60008060408385031215612b3557612b34613c93565b5b6000612b4385828601612a2c565b9250506020612b5485828601612a2c565b9150509250929050565b600080600060608486031215612b7757612b76613c93565b5b6000612b8586828701612a2c565b9350506020612b9686828701612a2c565b9250506040612ba786828701612adc565b9150509250925092565b60008060008060808587031215612bcb57612bca613c93565b5b6000612bd987828801612a2c565b9450506020612bea87828801612a2c565b9350506040612bfb87828801612adc565b925050606085013567ffffffffffffffff811115612c1c57612c1b613c8e565b5b612c2887828801612a80565b91505092959194509250565b60008060408385031215612c4b57612c4a613c93565b5b6000612c5985828601612a2c565b9250506020612c6a85828601612a41565b9150509250929050565b60008060408385031215612c8b57612c8a613c93565b5b6000612c9985828601612a2c565b9250506020612caa85828601612adc565b9150509250929050565b600060208284031215612cca57612cc9613c93565b5b6000612cd884828501612a56565b91505092915050565b600060208284031215612cf757612cf6613c93565b5b6000612d0584828501612a6b565b91505092915050565b600060208284031215612d2457612d23613c93565b5b600082013567ffffffffffffffff811115612d4257612d41613c8e565b5b612d4e84828501612aae565b91505092915050565b600060208284031215612d6d57612d6c613c93565b5b6000612d7b84828501612adc565b91505092915050565b60008060408385031215612d9b57612d9a613c93565b5b6000612da985828601612adc565b9250506020612dba85828601612a41565b9150509250929050565b60008060408385031215612ddb57612dda613c93565b5b6000612de985828601612adc565b925050602083013567ffffffffffffffff811115612e0a57612e09613c8e565b5b612e1685828601612aae565b9150509250929050565b60008060408385031215612e3757612e36613c93565b5b6000612e4585828601612adc565b9250506020612e5685828601612adc565b9150509250929050565b6000612e6c83836132da565b60c08301905092915050565b612e8181613a06565b82525050565b612e9081613a06565b82525050565b6000612ea182613885565b612eab81856138b3565b9350612eb683613875565b8060005b83811015612ee7578151612ece8882612e60565b9750612ed9836138a6565b925050600181019050612eba565b5085935050505092915050565b612efd81613a18565b82525050565b612f0c81613a18565b82525050565b6000612f1d82613890565b612f2781856138c4565b9350612f37818560208601613a89565b612f4081613c98565b840191505092915050565b6000612f568261389b565b612f6081856138d5565b9350612f70818560208601613a89565b612f7981613c98565b840191505092915050565b6000612f8f8261389b565b612f9981856138e6565b9350612fa9818560208601613a89565b80840191505092915050565b6000612fc26011836138d5565b9150612fcd82613ca9565b602082019050919050565b6000612fe56032836138d5565b9150612ff082613cd2565b604082019050919050565b6000613008601a836138d5565b915061301382613d21565b602082019050919050565b600061302b601c836138d5565b915061303682613d4a565b602082019050919050565b600061304e6024836138d5565b915061305982613d73565b604082019050919050565b60006130716019836138d5565b915061307c82613dc2565b602082019050919050565b6000613094602c836138d5565b915061309f82613deb565b604082019050919050565b60006130b7602c836138d5565b91506130c282613e3a565b604082019050919050565b60006130da6038836138d5565b91506130e582613e89565b604082019050919050565b60006130fd602a836138d5565b915061310882613ed8565b604082019050919050565b6000613120602a836138d5565b915061312b82613f27565b604082019050919050565b60006131436029836138d5565b915061314e82613f76565b604082019050919050565b6000613166602e836138d5565b915061317182613fc5565b604082019050919050565b60006131896020836138d5565b915061319482614014565b602082019050919050565b60006131ac6031836138d5565b91506131b78261403d565b604082019050919050565b60006131cf6010836138d5565b91506131da8261408c565b602082019050919050565b60006131f2602c836138d5565b91506131fd826140b5565b604082019050919050565b60006132156029836138d5565b915061322082614104565b604082019050919050565b6000613238602f836138d5565b915061324382614153565b604082019050919050565b600061325b6019836138d5565b9150613266826141a2565b602082019050919050565b600061327e6021836138d5565b9150613289826141cb565b604082019050919050565b60006132a16031836138d5565b91506132ac8261421a565b604082019050919050565b60006132c46028836138d5565b91506132cf82614269565b604082019050919050565b60c0820160008201516132f060008501826133d0565b5060208201516133036020850182612e78565b5060408201516133166040850182612ef4565b50606082015161332960608501826133d0565b50608082015161333c60808501826133d0565b5060a082015161334f60a08501826133d0565b50505050565b60c08201600082015161336b60008501826133d0565b50602082015161337e6020850182612e78565b5060408201516133916040850182612ef4565b5060608201516133a460608501826133d0565b5060808201516133b760808501826133d0565b5060a08201516133ca60a08501826133d0565b50505050565b6133d981613a70565b82525050565b6133e881613a70565b82525050565b60006133fa8285612f84565b91506134068284612f84565b91508190509392505050565b60006020820190506134276000830184612e87565b92915050565b60006080820190506134426000830187612e87565b61344f6020830186612e87565b61345c60408301856133df565b818103606083015261346e8184612f12565b905095945050505050565b600060208201905081810360008301526134938184612e96565b905092915050565b60006020820190506134b06000830184612f03565b92915050565b600060208201905081810360008301526134d08184612f4b565b905092915050565b600060208201905081810360008301526134f181612fb5565b9050919050565b6000602082019050818103600083015261351181612fd8565b9050919050565b6000602082019050818103600083015261353181612ffb565b9050919050565b600060208201905081810360008301526135518161301e565b9050919050565b6000602082019050818103600083015261357181613041565b9050919050565b6000602082019050818103600083015261359181613064565b9050919050565b600060208201905081810360008301526135b181613087565b9050919050565b600060208201905081810360008301526135d1816130aa565b9050919050565b600060208201905081810360008301526135f1816130cd565b9050919050565b60006020820190508181036000830152613611816130f0565b9050919050565b6000602082019050818103600083015261363181613113565b9050919050565b6000602082019050818103600083015261365181613136565b9050919050565b6000602082019050818103600083015261367181613159565b9050919050565b600060208201905081810360008301526136918161317c565b9050919050565b600060208201905081810360008301526136b18161319f565b9050919050565b600060208201905081810360008301526136d1816131c2565b9050919050565b600060208201905081810360008301526136f1816131e5565b9050919050565b6000602082019050818103600083015261371181613208565b9050919050565b600060208201905081810360008301526137318161322b565b9050919050565b600060208201905081810360008301526137518161324e565b9050919050565b6000602082019050818103600083015261377181613271565b9050919050565b6000602082019050818103600083015261379181613294565b9050919050565b600060208201905081810360008301526137b1816132b7565b9050919050565b600060c0820190506137cd6000830184613355565b92915050565b60006020820190506137e860008301846133df565b92915050565b60006137f8613809565b90506138048282613aee565b919050565b6000604051905090565b600067ffffffffffffffff82111561382e5761382d613c55565b5b61383782613c98565b9050602081019050919050565b600067ffffffffffffffff82111561385f5761385e613c55565b5b61386882613c98565b9050602081019050919050565b6000819050602082019050919050565b600081519050919050565b600081519050919050565b600081519050919050565b6000602082019050919050565b600082825260208201905092915050565b600082825260208201905092915050565b600082825260208201905092915050565b600081905092915050565b60006138fc82613a70565b915061390783613a70565b9250827fffffffffffffffffffffffffffffffffffffffffffffffffffffffffffffffff0382111561393c5761393b613b99565b5b828201905092915050565b600061395282613a70565b915061395d83613a70565b92508261396d5761396c613bc8565b5b828204905092915050565b600061398382613a70565b915061398e83613a70565b9250817fffffffffffffffffffffffffffffffffffffffffffffffffffffffffffffffff04831182151516156139c7576139c6613b99565b5b828202905092915050565b60006139dd82613a70565b91506139e883613a70565b9250828210156139fb576139fa613b99565b5b828203905092915050565b6000613a1182613a50565b9050919050565b60008115159050919050565b60007fffffffff0000000000000000000000000000000000000000000000000000000082169050919050565b600073ffffffffffffffffffffffffffffffffffffffff82169050919050565b6000819050919050565b82818337600083830152505050565b60005b83811015613aa7578082015181840152602081019050613a8c565b83811115613ab6576000848401525b50505050565b60006002820490506001821680613ad457607f821691505b60208210811415613ae857613ae7613bf7565b5b50919050565b613af782613c98565b810181811067ffffffffffffffff82111715613b1657613b15613c55565b5b80604052505050565b6000613b2a82613a70565b91507fffffffffffffffffffffffffffffffffffffffffffffffffffffffffffffffff821415613b5d57613b5c613b99565b5b600182019050919050565b6000613b7382613a70565b9150613b7e83613a70565b925082613b8e57613b8d613bc8565b5b828206905092915050565b7f4e487b7100000000000000000000000000000000000000000000000000000000600052601160045260246000fd5b7f4e487b7100000000000000000000000000000000000000000000000000000000600052601260045260246000fd5b7f4e487b7100000000000000000000000000000000000000000000000000000000600052602260045260246000fd5b7f4e487b7100000000000000000000000000000000000000000000000000000000600052603260045260246000fd5b7f4e487b7100000000000000000000000000000000000000000000000000000000600052604160045260246000fd5b600080fd5b600080fd5b600080fd5b600080fd5b6000601f19601f8301169050919050565b7f70726963652073657420746f6f206c6f77000000000000000000000000000000600082015250565b7f4552433732313a207472616e7366657220746f206e6f6e20455243373231526560008201527f63656976657220696d706c656d656e7465720000000000000000000000000000602082015250565b7f5468697320746f6b656e206973206e6f7420666f722073616c65000000000000600082015250565b7f4552433732313a20746f6b656e20616c7265616479206d696e74656400000000600082015250565b7f4552433732313a207472616e7366657220746f20746865207a65726f2061646460008201527f7265737300000000000000000000000000000000000000000000000000000000602082015250565b7f4552433732313a20617070726f766520746f2063616c6c657200000000000000600082015250565b7f4552433732313a206f70657261746f7220717565727920666f72206e6f6e657860008201527f697374656e7420746f6b656e0000000000000000000000000000000000000000602082015250565b7f4f6e6c792074686520746f6b656e206f776e65722063616e20706572666f726d60008201527f207468697320616374696f6e0000000000000000000000000000000000000000602082015250565b7f4552433732313a20617070726f76652063616c6c6572206973206e6f74206f7760008201527f6e6572206e6f7220617070726f76656420666f7220616c6c0000000000000000602082015250565b7f546865204e46542068617320616c72656164792072656163686564206d61786960008201527f6d756d20737570706c7900000000000000000000000000000000000000000000602082015250565b7f4552433732313a2062616c616e636520717565727920666f7220746865207a6560008201527f726f206164647265737300000000000000000000000000000000000000000000602082015250565b7f4552433732313a206f776e657220717565727920666f72206e6f6e657869737460008201527f656e7420746f6b656e0000000000000000000000000000000000000000000000602082015250565b7f45524337323155524953746f726167653a2055524920736574206f66206e6f6e60008201527f6578697374656e7420746f6b656e000000000000000000000000000000000000602082015250565b7f4552433732313a206d696e7420746f20746865207a65726f2061646472657373600082015250565b7f45524337323155524953746f726167653a2055524920717565727920666f722060008201527f6e6f6e6578697374656e7420746f6b656e000000000000000000000000000000602082015250565b7f77726f6e672076616c75652073656e7400000000000000000000000000000000600082015250565b7f4552433732313a20617070726f76656420717565727920666f72206e6f6e657860008201527f697374656e7420746f6b656e0000000000000000000000000000000000000000602082015250565b7f4552433732313a207472616e73666572206f6620746f6b656e2074686174206960008201527f73206e6f74206f776e0000000000000000000000000000000000000000000000602082015250565b7f4552433732314d657461646174613a2055524920717565727920666f72206e6f60008201527f6e6578697374656e7420746f6b656e0000000000000000000000000000000000602082015250565b7f4e6f7420656e6f75676820457468207761732070617373656400000000000000600082015250565b7f4552433732313a20617070726f76616c20746f2063757272656e74206f776e6560008201527f7200000000000000000000000000000000000000000000000000000000000000602082015250565b7f4552433732313a207472616e736665722063616c6c6572206973206e6f74206f60008201527f776e6572206e6f7220617070726f766564000000000000000000000000000000602082015250565b7f6f6e6c79207468652063726561746f722063616e20706572666f726d2074686960008201527f7320616374696f6e000000000000000000000000000000000000000000000000602082015250565b6142c181613a06565b81146142cc57600080fd5b50565b6142d881613a18565b81146142e357600080fd5b50565b6142ef81613a24565b81146142fa57600080fd5b50565b61430681613a70565b811461431157600080fd5b5056fea2646970667358221220e4de5ea32f22187558ef991ed18e0520f028070e6dd052575c773676404b9c1464736f6c63430008070033",
  "linkReferences": {},
  "deployedLinkReferences": {}
}