{
  "_format": "hh-sol-artifact-1",
  "contractName": "GalaxyNFT",
  "sourceName": "contracts/GalaxyNFT.sol",
  "abi": [
    {
      "inputs": [
        {
          "internalType": "string",
          "name": "name",
          "type": "string"
        },
        {
          "internalType": "string",
          "name": "symbol",
          "type": "string"
        },
        {
          "internalType": "address",
          "name": "marketplaceAddress",
          "type": "address"
        },
        {
          "internalType": "string",
          "name": "data",
          "type": "string"
        },
        {
          "internalType": "uint256",
          "name": "price",
          "type": "uint256"
        }
      ],
      "stateMutability": "nonpayable",
      "type": "constructor"
    },
    {
      "anonymous": false,
      "inputs": [
        {
          "indexed": true,
          "internalType": "address",
          "name": "owner",
          "type": "address"
        },
        {
          "indexed": true,
          "internalType": "address",
          "name": "approved",
          "type": "address"
        },
        {
          "indexed": true,
          "internalType": "uint256",
          "name": "tokenId",
          "type": "uint256"
        }
      ],
      "name": "Approval",
      "type": "event"
    },
    {
      "anonymous": false,
      "inputs": [
        {
          "indexed": true,
          "internalType": "address",
          "name": "owner",
          "type": "address"
        },
        {
          "indexed": true,
          "internalType": "address",
          "name": "operator",
          "type": "address"
        },
        {
          "indexed": false,
          "internalType": "bool",
          "name": "approved",
          "type": "bool"
        }
      ],
      "name": "ApprovalForAll",
      "type": "event"
    },
    {
      "anonymous": false,
      "inputs": [
        {
          "indexed": true,
          "internalType": "address",
          "name": "from",
          "type": "address"
        },
        {
          "indexed": true,
          "internalType": "address",
          "name": "to",
          "type": "address"
        },
        {
          "indexed": true,
          "internalType": "uint256",
          "name": "tokenId",
          "type": "uint256"
        }
      ],
      "name": "Transfer",
      "type": "event"
    },
    {
      "anonymous": false,
      "inputs": [
        {
          "indexed": false,
          "internalType": "address",
          "name": "sender",
          "type": "address"
        }
      ],
      "name": "e_metaDataUpdated",
      "type": "event"
    },
    {
      "anonymous": false,
      "inputs": [
        {
          "indexed": false,
          "internalType": "address",
          "name": "sender",
          "type": "address"
        }
      ],
      "name": "e_priceUpdated",
      "type": "event"
    },
    {
      "anonymous": false,
      "inputs": [
        {
          "indexed": false,
          "internalType": "address",
          "name": "sender",
          "type": "address"
        }
      ],
      "name": "e_tokenDelisted",
      "type": "event"
    },
    {
      "anonymous": false,
      "inputs": [
        {
          "indexed": false,
          "internalType": "address",
          "name": "sender",
          "type": "address"
        }
      ],
      "name": "e_tokenListed",
      "type": "event"
    },
    {
      "anonymous": false,
      "inputs": [
        {
          "indexed": false,
          "internalType": "address",
          "name": "sender",
          "type": "address"
        }
      ],
      "name": "e_tokenMinted",
      "type": "event"
    },
    {
      "anonymous": false,
      "inputs": [
        {
          "indexed": false,
          "internalType": "address",
          "name": "sender",
          "type": "address"
        }
      ],
      "name": "e_tokenPurchased",
      "type": "event"
    },
    {
      "anonymous": false,
      "inputs": [
        {
          "indexed": false,
          "internalType": "address",
          "name": "sender",
          "type": "address"
        }
      ],
      "name": "e_tokenUriAdded",
      "type": "event"
    },
    {
      "inputs": [
        {
          "internalType": "uint256",
          "name": "id",
          "type": "uint256"
        },
        {
          "internalType": "string",
          "name": "tokenURI",
          "type": "string"
        }
      ],
      "name": "addTokenUri",
      "outputs": [],
      "stateMutability": "nonpayable",
      "type": "function"
    },
    {
      "inputs": [
        {
          "internalType": "address",
          "name": "to",
          "type": "address"
        },
        {
          "internalType": "uint256",
          "name": "tokenId",
          "type": "uint256"
        }
      ],
      "name": "approve",
      "outputs": [],
      "stateMutability": "nonpayable",
      "type": "function"
    },
    {
      "inputs": [
        {
          "internalType": "address",
          "name": "owner",
          "type": "address"
        }
      ],
      "name": "balanceOf",
      "outputs": [
        {
          "internalType": "uint256",
          "name": "",
          "type": "uint256"
        }
      ],
      "stateMutability": "view",
      "type": "function"
    },
    {
      "inputs": [],
      "name": "createToken",
      "outputs": [],
      "stateMutability": "payable",
      "type": "function"
    },
    {
      "inputs": [
        {
          "internalType": "uint256",
          "name": "tokenId",
          "type": "uint256"
        }
      ],
      "name": "delistToken",
      "outputs": [],
      "stateMutability": "nonpayable",
      "type": "function"
    },
    {
      "inputs": [],
      "name": "getAllTokens",
      "outputs": [
        {
          "components": [
            {
              "internalType": "uint256",
              "name": "id",
              "type": "uint256"
            },
            {
              "internalType": "address",
              "name": "owner",
              "type": "address"
            },
            {
              "internalType": "bool",
              "name": "forSale",
              "type": "bool"
            },
            {
              "internalType": "uint256",
              "name": "price",
              "type": "uint256"
            },
            {
              "internalType": "uint256",
              "name": "pricePaid",
              "type": "uint256"
            },
            {
              "internalType": "uint256",
              "name": "purchaseDate",
              "type": "uint256"
            }
          ],
          "internalType": "struct GalaxyNFT.tokenState[]",
          "name": "",
          "type": "tuple[]"
        }
      ],
      "stateMutability": "view",
      "type": "function"
    },
    {
      "inputs": [
        {
          "internalType": "uint256",
          "name": "tokenId",
          "type": "uint256"
        }
      ],
      "name": "getApproved",
      "outputs": [
        {
          "internalType": "address",
          "name": "",
          "type": "address"
        }
      ],
      "stateMutability": "view",
      "type": "function"
    },
    {
      "inputs": [],
      "name": "getInitialPrice",
      "outputs": [
        {
          "internalType": "uint256",
          "name": "",
          "type": "uint256"
        }
      ],
      "stateMutability": "view",
      "type": "function"
    },
    {
      "inputs": [],
      "name": "getMaxSupply",
      "outputs": [
        {
          "internalType": "uint256",
          "name": "",
          "type": "uint256"
        }
      ],
      "stateMutability": "view",
      "type": "function"
    },
    {
      "inputs": [],
      "name": "getMetaData",
      "outputs": [
        {
          "internalType": "string",
          "name": "",
          "type": "string"
        }
      ],
      "stateMutability": "view",
      "type": "function"
    },
    {
      "inputs": [],
      "name": "getNumberForSale",
      "outputs": [
        {
          "internalType": "uint256",
          "name": "",
          "type": "uint256"
        }
      ],
      "stateMutability": "view",
      "type": "function"
    },
    {
      "inputs": [],
      "name": "getTokenCount",
      "outputs": [
        {
          "internalType": "uint256",
          "name": "",
          "type": "uint256"
        }
      ],
      "stateMutability": "view",
      "type": "function"
    },
    {
      "inputs": [
        {
          "internalType": "uint256",
          "name": "tokenId",
          "type": "uint256"
        }
      ],
      "name": "getTokenState",
      "outputs": [
        {
          "components": [
            {
              "internalType": "uint256",
              "name": "id",
              "type": "uint256"
            },
            {
              "internalType": "address",
              "name": "owner",
              "type": "address"
            },
            {
              "internalType": "bool",
              "name": "forSale",
              "type": "bool"
            },
            {
              "internalType": "uint256",
              "name": "price",
              "type": "uint256"
            },
            {
              "internalType": "uint256",
              "name": "pricePaid",
              "type": "uint256"
            },
            {
              "internalType": "uint256",
              "name": "purchaseDate",
              "type": "uint256"
            }
          ],
          "internalType": "struct GalaxyNFT.tokenState",
          "name": "",
          "type": "tuple"
        }
      ],
      "stateMutability": "view",
      "type": "function"
    },
    {
      "inputs": [
        {
          "internalType": "address",
          "name": "owner",
          "type": "address"
        },
        {
          "internalType": "address",
          "name": "operator",
          "type": "address"
        }
      ],
      "name": "isApprovedForAll",
      "outputs": [
        {
          "internalType": "bool",
          "name": "",
          "type": "bool"
        }
      ],
      "stateMutability": "view",
      "type": "function"
    },
    {
      "inputs": [
        {
          "internalType": "uint256",
          "name": "tokenId",
          "type": "uint256"
        },
        {
          "internalType": "uint256",
          "name": "value",
          "type": "uint256"
        }
      ],
      "name": "listToken",
      "outputs": [],
      "stateMutability": "nonpayable",
      "type": "function"
    },
    {
      "inputs": [],
      "name": "name",
      "outputs": [
        {
          "internalType": "string",
          "name": "",
          "type": "string"
        }
      ],
      "stateMutability": "view",
      "type": "function"
    },
    {
      "inputs": [
        {
          "internalType": "uint256",
          "name": "tokenId",
          "type": "uint256"
        }
      ],
      "name": "ownerOf",
      "outputs": [
        {
          "internalType": "address",
          "name": "",
          "type": "address"
        }
      ],
      "stateMutability": "view",
      "type": "function"
    },
    {
      "inputs": [
        {
          "internalType": "uint256",
          "name": "tokenId",
          "type": "uint256"
        }
      ],
      "name": "purchaseToken",
      "outputs": [],
      "stateMutability": "payable",
      "type": "function"
    },
    {
      "inputs": [
        {
          "internalType": "address",
          "name": "from",
          "type": "address"
        },
        {
          "internalType": "address",
          "name": "to",
          "type": "address"
        },
        {
          "internalType": "uint256",
          "name": "tokenId",
          "type": "uint256"
        }
      ],
      "name": "safeTransferFrom",
      "outputs": [],
      "stateMutability": "nonpayable",
      "type": "function"
    },
    {
      "inputs": [
        {
          "internalType": "address",
          "name": "from",
          "type": "address"
        },
        {
          "internalType": "address",
          "name": "to",
          "type": "address"
        },
        {
          "internalType": "uint256",
          "name": "tokenId",
          "type": "uint256"
        },
        {
          "internalType": "bytes",
          "name": "_data",
          "type": "bytes"
        }
      ],
      "name": "safeTransferFrom",
      "outputs": [],
      "stateMutability": "nonpayable",
      "type": "function"
    },
    {
      "inputs": [
        {
          "internalType": "address",
          "name": "operator",
          "type": "address"
        },
        {
          "internalType": "bool",
          "name": "approved",
          "type": "bool"
        }
      ],
      "name": "setApprovalForAll",
      "outputs": [],
      "stateMutability": "nonpayable",
      "type": "function"
    },
    {
      "inputs": [
        {
          "internalType": "string",
          "name": "data",
          "type": "string"
        }
      ],
      "name": "setMetaData",
      "outputs": [],
      "stateMutability": "nonpayable",
      "type": "function"
    },
    {
      "inputs": [
        {
          "internalType": "uint256",
          "name": "tokenId",
          "type": "uint256"
        },
        {
          "internalType": "uint256",
          "name": "newPrice",
          "type": "uint256"
        }
      ],
      "name": "setTokenPrice",
      "outputs": [],
      "stateMutability": "nonpayable",
      "type": "function"
    },
    {
      "inputs": [
        {
          "internalType": "bytes4",
          "name": "interfaceId",
          "type": "bytes4"
        }
      ],
      "name": "supportsInterface",
      "outputs": [
        {
          "internalType": "bool",
          "name": "",
          "type": "bool"
        }
      ],
      "stateMutability": "view",
      "type": "function"
    },
    {
      "inputs": [],
      "name": "symbol",
      "outputs": [
        {
          "internalType": "string",
          "name": "",
          "type": "string"
        }
      ],
      "stateMutability": "view",
      "type": "function"
    },
    {
      "inputs": [
        {
          "internalType": "uint256",
          "name": "tokenId",
          "type": "uint256"
        }
      ],
      "name": "tokenURI",
      "outputs": [
        {
          "internalType": "string",
          "name": "",
          "type": "string"
        }
      ],
      "stateMutability": "view",
      "type": "function"
    },
    {
      "inputs": [
        {
          "internalType": "address",
          "name": "from",
          "type": "address"
        },
        {
          "internalType": "address",
          "name": "to",
          "type": "address"
        },
        {
          "internalType": "uint256",
          "name": "tokenId",
          "type": "uint256"
        }
      ],
      "name": "transferFrom",
      "outputs": [],
      "stateMutability": "nonpayable",
      "type": "function"
    }
  ],
  "bytecode": "0x608060405260646008553480156200001657600080fd5b50604051620051013803806200510183398181016040528101906200003c919062000807565b8484816000908051906020019062000056929190620006ab565b5080600190805190602001906200006f929190620006ab565b50505082600960006101000a81548173ffffffffffffffffffffffffffffffffffffffff021916908373ffffffffffffffffffffffffffffffffffffffff16021790555081600b9080519060200190620000cb929190620006ab565b5080600c81905550600060078190555033600a60006101000a81548173ffffffffffffffffffffffffffffffffffffffff021916908373ffffffffffffffffffffffffffffffffffffffff1602179055506040518060c0016040528060075481526020013373ffffffffffffffffffffffffffffffffffffffff168152602001600015158152602001600c548152602001600c54815260200142815250600d600060075481526020019081526020016000206000820151816000015560208201518160010160006101000a81548173ffffffffffffffffffffffffffffffffffffffff021916908373ffffffffffffffffffffffffffffffffffffffff16021790555060408201518160010160146101000a81548160ff021916908315150217905550606082015181600201556080820151816003015560a082015181600401559050506200022333600754620002b460201b60201c565b62000258600960009054906101000a900473ffffffffffffffffffffffffffffffffffffffff1660016200049a60201b60201c565b6001600760008282546200026d919062000a65565b92505081905550620002a9600960009054906101000a900473ffffffffffffffffffffffffffffffffffffffff1660016200049a60201b60201c565b505050505062000d0f565b600073ffffffffffffffffffffffffffffffffffffffff168273ffffffffffffffffffffffffffffffffffffffff16141562000327576040517f08c379a00000000000000000000000000000000000000000000000000000000081526004016200031e90620009d3565b60405180910390fd5b6200033881620004c060201b60201c565b156200037b576040517f08c379a000000000000000000000000000000000000000000000000000000000815260040162000372906200098f565b60405180910390fd5b6200038f600083836200052c60201b60201c565b6001600360008473ffffffffffffffffffffffffffffffffffffffff1673ffffffffffffffffffffffffffffffffffffffff1681526020019081526020016000206000828254620003e1919062000a65565b92505081905550816002600083815260200190815260200160002060006101000a81548173ffffffffffffffffffffffffffffffffffffffff021916908373ffffffffffffffffffffffffffffffffffffffff160217905550808273ffffffffffffffffffffffffffffffffffffffff16600073ffffffffffffffffffffffffffffffffffffffff167fddf252ad1be2c89b69c2b068fc378daa952ba7f163c4a11628f55a4df523b3ef60405160405180910390a45050565b620004bc620004ae6200053160201b60201c565b83836200053960201b60201c565b5050565b60008073ffffffffffffffffffffffffffffffffffffffff166002600084815260200190815260200160002060009054906101000a900473ffffffffffffffffffffffffffffffffffffffff1673ffffffffffffffffffffffffffffffffffffffff1614159050919050565b505050565b600033905090565b8173ffffffffffffffffffffffffffffffffffffffff168373ffffffffffffffffffffffffffffffffffffffff161415620005ab576040517f08c379a0000000000000000000000000000000000000000000000000000000008152600401620005a290620009b1565b60405180910390fd5b80600560008573ffffffffffffffffffffffffffffffffffffffff1673ffffffffffffffffffffffffffffffffffffffff16815260200190815260200160002060008473ffffffffffffffffffffffffffffffffffffffff1673ffffffffffffffffffffffffffffffffffffffff16815260200190815260200160002060006101000a81548160ff0219169083151502179055508173ffffffffffffffffffffffffffffffffffffffff168373ffffffffffffffffffffffffffffffffffffffff167f17307eab39ab6107e8899845ad3d59bd9653f200f220920489ca2b5937696c31836040516200069e919062000972565b60405180910390a3505050565b828054620006b99062000b42565b90600052602060002090601f016020900481019282620006dd576000855562000729565b82601f10620006f857805160ff191683800117855562000729565b8280016001018555821562000729579182015b82811115620007285782518255916020019190600101906200070b565b5b5090506200073891906200073c565b5090565b5b80821115620007575760008160009055506001016200073d565b5090565b6000620007726200076c8462000a1e565b620009f5565b90508281526020810184848401111562000791576200079062000c40565b5b6200079e84828562000b0c565b509392505050565b600081519050620007b78162000cdb565b92915050565b600082601f830112620007d557620007d462000c3b565b5b8151620007e78482602086016200075b565b91505092915050565b600081519050620008018162000cf5565b92915050565b600080600080600060a0868803121562000826576200082562000c4a565b5b600086015167ffffffffffffffff81111562000847576200084662000c45565b5b6200085588828901620007bd565b955050602086015167ffffffffffffffff81111562000879576200087862000c45565b5b6200088788828901620007bd565b94505060406200089a88828901620007a6565b935050606086015167ffffffffffffffff811115620008be57620008bd62000c45565b5b620008cc88828901620007bd565b9250506080620008df88828901620007f0565b9150509295509295909350565b620008f78162000ad6565b82525050565b60006200090c601c8362000a54565b9150620009198262000c60565b602082019050919050565b60006200093360198362000a54565b9150620009408262000c89565b602082019050919050565b60006200095a60208362000a54565b9150620009678262000cb2565b602082019050919050565b6000602082019050620009896000830184620008ec565b92915050565b60006020820190508181036000830152620009aa81620008fd565b9050919050565b60006020820190508181036000830152620009cc8162000924565b9050919050565b60006020820190508181036000830152620009ee816200094b565b9050919050565b600062000a0162000a14565b905062000a0f828262000b78565b919050565b6000604051905090565b600067ffffffffffffffff82111562000a3c5762000a3b62000c0c565b5b62000a478262000c4f565b9050602081019050919050565b600082825260208201905092915050565b600062000a728262000b02565b915062000a7f8362000b02565b9250827fffffffffffffffffffffffffffffffffffffffffffffffffffffffffffffffff0382111562000ab75762000ab662000bae565b5b828201905092915050565b600062000acf8262000ae2565b9050919050565b60008115159050919050565b600073ffffffffffffffffffffffffffffffffffffffff82169050919050565b6000819050919050565b60005b8381101562000b2c57808201518184015260208101905062000b0f565b8381111562000b3c576000848401525b50505050565b6000600282049050600182168062000b5b57607f821691505b6020821081141562000b725762000b7162000bdd565b5b50919050565b62000b838262000c4f565b810181811067ffffffffffffffff8211171562000ba55762000ba462000c0c565b5b80604052505050565b7f4e487b7100000000000000000000000000000000000000000000000000000000600052601160045260246000fd5b7f4e487b7100000000000000000000000000000000000000000000000000000000600052602260045260246000fd5b7f4e487b7100000000000000000000000000000000000000000000000000000000600052604160045260246000fd5b600080fd5b600080fd5b600080fd5b600080fd5b6000601f19601f8301169050919050565b7f4552433732313a20746f6b656e20616c7265616479206d696e74656400000000600082015250565b7f4552433732313a20617070726f766520746f2063616c6c657200000000000000600082015250565b7f4552433732313a206d696e7420746f20746865207a65726f2061646472657373600082015250565b62000ce68162000ac2565b811462000cf257600080fd5b50565b62000d008162000b02565b811462000d0c57600080fd5b50565b6143e28062000d1f6000396000f3fe60806040526004361061019c5760003560e01c806378a89567116100ec578063c87b56dd1161008a578063d821f81a11610064578063d821f81a14610598578063e985e9c5146105c1578063eb685c47146105fe578063f45fd0f3146106275761019c565b8063c87b56dd14610507578063d15ecc4c14610544578063d2786ba41461056d5761019c565b8063a22cb465116100c6578063a22cb46514610470578063b88d4fde14610499578063bed659bc146104c2578063c2db2c42146104eb5761019c565b806378a895671461041057806395d89b411461043b5780639cbf9e36146104665761019c565b80632a5c792a116101595780634c0f38c2116101335780634c0f38c2146103425780636352211e1461036d57806370a08231146103aa57806375c1631d146103e75761019c565b80632a5c792a146102c35780632b013d6d146102ee57806342842e0e146103195761019c565b806301ffc9a7146101a157806306f660ef146101de57806306fdde0314610209578063081812fc14610234578063095ea7b31461027157806323b872dd1461029a575b600080fd5b3480156101ad57600080fd5b506101c860048036038101906101c39190612d20565b610664565b6040516101d591906134ea565b60405180910390f35b3480156101ea57600080fd5b506101f3610746565b6040516102009190613842565b60405180910390f35b34801561021557600080fd5b5061021e610750565b60405161022b9190613505565b60405180910390f35b34801561024057600080fd5b5061025b60048036038101906102569190612dc3565b6107e2565b6040516102689190613461565b60405180910390f35b34801561027d57600080fd5b5061029860048036038101906102939190612ce0565b610867565b005b3480156102a657600080fd5b506102c160048036038101906102bc9190612bca565b61097f565b005b3480156102cf57600080fd5b506102d86109df565b6040516102e591906134c8565b60405180910390f35b3480156102fa57600080fd5b50610303610bac565b6040516103109190613842565b60405180910390f35b34801561032557600080fd5b50610340600480360381019061033b9190612bca565b610c1b565b005b34801561034e57600080fd5b50610357610c3b565b6040516103649190613842565b60405180910390f35b34801561037957600080fd5b50610394600480360381019061038f9190612dc3565b610c45565b6040516103a19190613461565b60405180910390f35b3480156103b657600080fd5b506103d160048036038101906103cc9190612b5d565b610cf7565b6040516103de9190613842565b60405180910390f35b3480156103f357600080fd5b5061040e60048036038101906104099190612e4c565b610daf565b005b34801561041c57600080fd5b50610425610eac565b6040516104329190613842565b60405180910390f35b34801561044757600080fd5b50610450610eb6565b60405161045d9190613505565b60405180910390f35b61046e610f48565b005b34801561047c57600080fd5b5061049760048036038101906104929190612ca0565b6111c0565b005b3480156104a557600080fd5b506104c060048036038101906104bb9190612c1d565b6111d6565b005b3480156104ce57600080fd5b506104e960048036038101906104e49190612dc3565b611238565b005b61050560048036038101906105009190612dc3565b611319565b005b34801561051357600080fd5b5061052e60048036038101906105299190612dc3565b611673565b60405161053b9190613505565b60405180910390f35b34801561055057600080fd5b5061056b60048036038101906105669190612df0565b6117c5565b005b34801561057957600080fd5b5061058261189a565b60405161058f9190613505565b60405180910390f35b3480156105a457600080fd5b506105bf60048036038101906105ba9190612d7a565b61192c565b005b3480156105cd57600080fd5b506105e860048036038101906105e39190612b8a565b611a0d565b6040516105f591906134ea565b60405180910390f35b34801561060a57600080fd5b5061062560048036038101906106209190612e4c565b611aa1565b005b34801561063357600080fd5b5061064e60048036038101906106499190612dc3565b611bb3565b60405161065b9190613827565b60405180910390f35b60007f80ac58cd000000000000000000000000000000000000000000000000000000007bffffffffffffffffffffffffffffffffffffffffffffffffffffffff1916827bffffffffffffffffffffffffffffffffffffffffffffffffffffffff1916148061072f57507f5b5e139f000000000000000000000000000000000000000000000000000000007bffffffffffffffffffffffffffffffffffffffffffffffffffffffff1916827bffffffffffffffffffffffffffffffffffffffffffffffffffffffff1916145b8061073f575061073e82611c79565b5b9050919050565b6000600c54905090565b60606000805461075f90613b2b565b80601f016020809104026020016040519081016040528092919081815260200182805461078b90613b2b565b80156107d85780601f106107ad576101008083540402835291602001916107d8565b820191906000526020600020905b8154815290600101906020018083116107bb57829003601f168201915b5050505050905090565b60006107ed82611ce3565b61082c576040517f08c379a000000000000000000000000000000000000000000000000000000000815260040161082390613747565b60405180910390fd5b6004600083815260200190815260200160002060009054906101000a900473ffffffffffffffffffffffffffffffffffffffff169050919050565b600061087282610c45565b90508073ffffffffffffffffffffffffffffffffffffffff168373ffffffffffffffffffffffffffffffffffffffff1614156108e3576040517f08c379a00000000000000000000000000000000000000000000000000000000081526004016108da906137c7565b60405180910390fd5b8073ffffffffffffffffffffffffffffffffffffffff16610902611d4f565b73ffffffffffffffffffffffffffffffffffffffff16148061093157506109308161092b611d4f565b611a0d565b5b610970576040517f08c379a000000000000000000000000000000000000000000000000000000000815260040161096790613627565b60405180910390fd5b61097a8383611d57565b505050565b61099061098a611d4f565b82611e10565b6109cf576040517f08c379a00000000000000000000000000000000000000000000000000000000081526004016109c6906137e7565b60405180910390fd5b6109da838383611eee565b505050565b6060600060075467ffffffffffffffff8111156109ff576109fe613cc4565b5b604051908082528060200260200182016040528015610a3857816020015b610a25612923565b815260200190600190039081610a1d5790505b50905060005b600754811015610ba457610a50612923565b600d600083815260200190815260200160002060000154816000018181525050600d600083815260200190815260200160002060010160009054906101000a900473ffffffffffffffffffffffffffffffffffffffff16816020019073ffffffffffffffffffffffffffffffffffffffff16908173ffffffffffffffffffffffffffffffffffffffff1681525050600d600083815260200190815260200160002060010160149054906101000a900460ff16816040019015159081151581525050600d600083815260200190815260200160002060020154816060018181525050600d600083815260200190815260200160002060030154816080018181525050600d6000838152602001908152602001600020600401548160a001818152505080838381518110610b8557610b84613c95565b5b6020026020010181905250508080610b9c90613b8e565b915050610a3e565b508091505090565b6000806000905060005b600754811015610c135760011515600d600083815260200190815260200160002060010160149054906101000a900460ff1615151415610c0057600182610bfd9190613960565b91505b8080610c0b90613b8e565b915050610bb6565b508091505090565b610c36838383604051806020016040528060008152506111d6565b505050565b6000600854905090565b6000806002600084815260200190815260200160002060009054906101000a900473ffffffffffffffffffffffffffffffffffffffff169050600073ffffffffffffffffffffffffffffffffffffffff168173ffffffffffffffffffffffffffffffffffffffff161415610cee576040517f08c379a0000000000000000000000000000000000000000000000000000000008152600401610ce590613687565b60405180910390fd5b80915050919050565b60008073ffffffffffffffffffffffffffffffffffffffff168273ffffffffffffffffffffffffffffffffffffffff161415610d68576040517f08c379a0000000000000000000000000000000000000000000000000000000008152600401610d5f90613667565b60405180910390fd5b600360008373ffffffffffffffffffffffffffffffffffffffff1673ffffffffffffffffffffffffffffffffffffffff168152602001908152602001600020549050919050565b81610db981610c45565b73ffffffffffffffffffffffffffffffffffffffff163373ffffffffffffffffffffffffffffffffffffffff1614610e26576040517f08c379a0000000000000000000000000000000000000000000000000000000008152600401610e1d90613607565b60405180910390fd5b6001600d600085815260200190815260200160002060010160146101000a81548160ff02191690831515021790555081600d6000858152602001908152602001600020600201819055507f11a1e0fa42cb3eaf8215388f4074887a03720272e0cece281a799f0e23d4124133604051610e9f9190613461565b60405180910390a1505050565b6000600754905090565b606060018054610ec590613b2b565b80601f0160208091040260200160405190810160405280929190818152602001828054610ef190613b2b565b8015610f3e5780601f10610f1357610100808354040283529160200191610f3e565b820191906000526020600020905b815481529060010190602001808311610f2157829003601f168201915b5050505050905090565b60085460075410610f8e576040517f08c379a0000000000000000000000000000000000000000000000000000000008152600401610f8590613647565b60405180910390fd5b600c543414610fd2576040517f08c379a0000000000000000000000000000000000000000000000000000000008152600401610fc9906137a7565b60405180910390fd5b600a60009054906101000a900473ffffffffffffffffffffffffffffffffffffffff1673ffffffffffffffffffffffffffffffffffffffff166108fc349081150290604051600060405180830381858888f1935050505015801561103a573d6000803e3d6000fd5b50600060075490506040518060c0016040528060075481526020013373ffffffffffffffffffffffffffffffffffffffff168152602001600015158152602001600c548152602001600c54815260200142815250600d60008381526020019081526020016000206000820151816000015560208201518160010160006101000a81548173ffffffffffffffffffffffffffffffffffffffff021916908373ffffffffffffffffffffffffffffffffffffffff16021790555060408201518160010160146101000a81548160ff021916908315150217905550606082015181600201556080820151816003015560a0820151816004015590505061113f3360075461214a565b61116c600960009054906101000a900473ffffffffffffffffffffffffffffffffffffffff1660016111c0565b60016007600082825461117f9190613960565b925050819055507fa15ce92cd5cbebf6142651dcc789be3939c8bc142cf35f82feb8fabfa129a292336040516111b59190613461565b60405180910390a150565b6111d26111cb611d4f565b8383612318565b5050565b6111e76111e1611d4f565b83611e10565b611226576040517f08c379a000000000000000000000000000000000000000000000000000000000815260040161121d906137e7565b60405180910390fd5b61123284848484612485565b50505050565b8061124281610c45565b73ffffffffffffffffffffffffffffffffffffffff163373ffffffffffffffffffffffffffffffffffffffff16146112af576040517f08c379a00000000000000000000000000000000000000000000000000000000081526004016112a690613607565b60405180910390fd5b6000600d600084815260200190815260200160002060010160146101000a81548160ff0219169083151502179055507f10cf2421b0a4119f206f8846c79c3ad34311cf9c7d6bcc663bf8edb954ca0f4a3360405161130d9190613461565b60405180910390a15050565b8060011515600d600083815260200190815260200160002060010160149054906101000a900460ff16151514611384576040517f08c379a000000000000000000000000000000000000000000000000000000000815260040161137b90613567565b60405180910390fd5b8161138e81610c45565b73ffffffffffffffffffffffffffffffffffffffff163373ffffffffffffffffffffffffffffffffffffffff1614156113fc576040517f08c379a00000000000000000000000000000000000000000000000000000000081526004016113f3906136e7565b60405180910390fd5b600d6000848152602001908152602001600020600201543414611454576040517f08c379a000000000000000000000000000000000000000000000000000000000815260040161144b90613727565b60405180910390fd5b600061145f84610c45565b905060003490506000600760643461147791906139b6565b61148191906139e7565b9050600a60009054906101000a900473ffffffffffffffffffffffffffffffffffffffff1673ffffffffffffffffffffffffffffffffffffffff166108fc829081150290604051600060405180830381858888f193505050501580156114eb573d6000803e3d6000fd5b508273ffffffffffffffffffffffffffffffffffffffff166108fc82846115129190613a41565b9081150290604051600060405180830381858888f1935050505015801561153d573d6000803e3d6000fd5b50611549833388611eee565b6040518060c001604052808781526020013373ffffffffffffffffffffffffffffffffffffffff16815260200160001515815260200183815260200183815260200142815250600d60008881526020019081526020016000206000820151816000015560208201518160010160006101000a81548173ffffffffffffffffffffffffffffffffffffffff021916908373ffffffffffffffffffffffffffffffffffffffff16021790555060408201518160010160146101000a81548160ff021916908315150217905550606082015181600201556080820151816003015560a082015181600401559050507f2fe302ec49f52909700e67ff553f3695f66725188ca446bd362b456f13908468336040516116639190613461565b60405180910390a1505050505050565b606061167e82611ce3565b6116bd576040517f08c379a00000000000000000000000000000000000000000000000000000000081526004016116b490613707565b60405180910390fd5b60006006600084815260200190815260200160002080546116dd90613b2b565b80601f016020809104026020016040519081016040528092919081815260200182805461170990613b2b565b80156117565780601f1061172b57610100808354040283529160200191611756565b820191906000526020600020905b81548152906001019060200180831161173957829003601f168201915b5050505050905060006117676124e1565b905060008151141561177d5781925050506117c0565b6000825111156117b257808260405160200161179a92919061343d565b604051602081830303815290604052925050506117c0565b6117bb846124f8565b925050505b919050565b600a60009054906101000a900473ffffffffffffffffffffffffffffffffffffffff1673ffffffffffffffffffffffffffffffffffffffff163373ffffffffffffffffffffffffffffffffffffffff1614611855576040517f08c379a000000000000000000000000000000000000000000000000000000000815260040161184c90613807565b60405180910390fd5b61185f828261259f565b7f7c59a7179e6048c3695f8972ca59e0c4747c76c6923103ddffa776c3e45da50b3360405161188e9190613461565b60405180910390a15050565b6060600b80546118a990613b2b565b80601f01602080910402602001604051908101604052809291908181526020018280546118d590613b2b565b80156119225780601f106118f757610100808354040283529160200191611922565b820191906000526020600020905b81548152906001019060200180831161190557829003601f168201915b5050505050905090565b600a60009054906101000a900473ffffffffffffffffffffffffffffffffffffffff1673ffffffffffffffffffffffffffffffffffffffff163373ffffffffffffffffffffffffffffffffffffffff16146119bc576040517f08c379a00000000000000000000000000000000000000000000000000000000081526004016119b390613807565b60405180910390fd5b80600b90805190602001906119d2929190612971565b507f26416455f8200f7f9ada70c12984948da84cdadb91dfa59b01010fdff165cdee33604051611a029190613461565b60405180910390a150565b6000600560008473ffffffffffffffffffffffffffffffffffffffff1673ffffffffffffffffffffffffffffffffffffffff16815260200190815260200160002060008373ffffffffffffffffffffffffffffffffffffffff1673ffffffffffffffffffffffffffffffffffffffff16815260200190815260200160002060009054906101000a900460ff16905092915050565b81611aab81610c45565b73ffffffffffffffffffffffffffffffffffffffff163373ffffffffffffffffffffffffffffffffffffffff1614611b18576040517f08c379a0000000000000000000000000000000000000000000000000000000008152600401611b0f90613607565b60405180910390fd5b6064821015611b5c576040517f08c379a0000000000000000000000000000000000000000000000000000000008152600401611b5390613527565b60405180910390fd5b81600d6000858152602001908152602001600020600201819055507f881c967a864199f7ef9cb03b182f427d3a29ed49f5e6603ccd89dc9b9e5e979633604051611ba69190613461565b60405180910390a1505050565b611bbb612923565b600d60008381526020019081526020016000206040518060c0016040529081600082015481526020016001820160009054906101000a900473ffffffffffffffffffffffffffffffffffffffff1673ffffffffffffffffffffffffffffffffffffffff1673ffffffffffffffffffffffffffffffffffffffff1681526020016001820160149054906101000a900460ff1615151515815260200160028201548152602001600382015481526020016004820154815250509050919050565b60007f01ffc9a7000000000000000000000000000000000000000000000000000000007bffffffffffffffffffffffffffffffffffffffffffffffffffffffff1916827bffffffffffffffffffffffffffffffffffffffffffffffffffffffff1916149050919050565b60008073ffffffffffffffffffffffffffffffffffffffff166002600084815260200190815260200160002060009054906101000a900473ffffffffffffffffffffffffffffffffffffffff1673ffffffffffffffffffffffffffffffffffffffff1614159050919050565b600033905090565b816004600083815260200190815260200160002060006101000a81548173ffffffffffffffffffffffffffffffffffffffff021916908373ffffffffffffffffffffffffffffffffffffffff160217905550808273ffffffffffffffffffffffffffffffffffffffff16611dca83610c45565b73ffffffffffffffffffffffffffffffffffffffff167f8c5be1e5ebec7d5bd14f71427d1e84f3dd0314c0f7b2291e5b200ac8c7c3b92560405160405180910390a45050565b6000611e1b82611ce3565b611e5a576040517f08c379a0000000000000000000000000000000000000000000000000000000008152600401611e51906135e7565b60405180910390fd5b6000611e6583610c45565b90508073ffffffffffffffffffffffffffffffffffffffff168473ffffffffffffffffffffffffffffffffffffffff161480611ed457508373ffffffffffffffffffffffffffffffffffffffff16611ebc846107e2565b73ffffffffffffffffffffffffffffffffffffffff16145b80611ee55750611ee48185611a0d565b5b91505092915050565b8273ffffffffffffffffffffffffffffffffffffffff16611f0e82610c45565b73ffffffffffffffffffffffffffffffffffffffff1614611f64576040517f08c379a0000000000000000000000000000000000000000000000000000000008152600401611f5b90613767565b60405180910390fd5b600073ffffffffffffffffffffffffffffffffffffffff168273ffffffffffffffffffffffffffffffffffffffff161415611fd4576040517f08c379a0000000000000000000000000000000000000000000000000000000008152600401611fcb906135a7565b60405180910390fd5b611fdf838383612613565b611fea600082611d57565b6001600360008573ffffffffffffffffffffffffffffffffffffffff1673ffffffffffffffffffffffffffffffffffffffff168152602001908152602001600020600082825461203a9190613a41565b925050819055506001600360008473ffffffffffffffffffffffffffffffffffffffff1673ffffffffffffffffffffffffffffffffffffffff16815260200190815260200160002060008282546120919190613960565b92505081905550816002600083815260200190815260200160002060006101000a81548173ffffffffffffffffffffffffffffffffffffffff021916908373ffffffffffffffffffffffffffffffffffffffff160217905550808273ffffffffffffffffffffffffffffffffffffffff168473ffffffffffffffffffffffffffffffffffffffff167fddf252ad1be2c89b69c2b068fc378daa952ba7f163c4a11628f55a4df523b3ef60405160405180910390a4505050565b600073ffffffffffffffffffffffffffffffffffffffff168273ffffffffffffffffffffffffffffffffffffffff1614156121ba576040517f08c379a00000000000000000000000000000000000000000000000000000000081526004016121b1906136c7565b60405180910390fd5b6121c381611ce3565b15612203576040517f08c379a00000000000000000000000000000000000000000000000000000000081526004016121fa90613587565b60405180910390fd5b61220f60008383612613565b6001600360008473ffffffffffffffffffffffffffffffffffffffff1673ffffffffffffffffffffffffffffffffffffffff168152602001908152602001600020600082825461225f9190613960565b92505081905550816002600083815260200190815260200160002060006101000a81548173ffffffffffffffffffffffffffffffffffffffff021916908373ffffffffffffffffffffffffffffffffffffffff160217905550808273ffffffffffffffffffffffffffffffffffffffff16600073ffffffffffffffffffffffffffffffffffffffff167fddf252ad1be2c89b69c2b068fc378daa952ba7f163c4a11628f55a4df523b3ef60405160405180910390a45050565b8173ffffffffffffffffffffffffffffffffffffffff168373ffffffffffffffffffffffffffffffffffffffff161415612387576040517f08c379a000000000000000000000000000000000000000000000000000000000815260040161237e906135c7565b60405180910390fd5b80600560008573ffffffffffffffffffffffffffffffffffffffff1673ffffffffffffffffffffffffffffffffffffffff16815260200190815260200160002060008473ffffffffffffffffffffffffffffffffffffffff1673ffffffffffffffffffffffffffffffffffffffff16815260200190815260200160002060006101000a81548160ff0219169083151502179055508173ffffffffffffffffffffffffffffffffffffffff168373ffffffffffffffffffffffffffffffffffffffff167f17307eab39ab6107e8899845ad3d59bd9653f200f220920489ca2b5937696c318360405161247891906134ea565b60405180910390a3505050565b612490848484611eee565b61249c84848484612618565b6124db576040517f08c379a00000000000000000000000000000000000000000000000000000000081526004016124d290613547565b60405180910390fd5b50505050565b606060405180602001604052806000815250905090565b606061250382611ce3565b612542576040517f08c379a000000000000000000000000000000000000000000000000000000000815260040161253990613787565b60405180910390fd5b600061254c6124e1565b9050600081511161256c5760405180602001604052806000815250612597565b80612576846127af565b60405160200161258792919061343d565b6040516020818303038152906040525b915050919050565b6125a882611ce3565b6125e7576040517f08c379a00000000000000000000000000000000000000000000000000000000081526004016125de906136a7565b60405180910390fd5b8060066000848152602001908152602001600020908051906020019061260e929190612971565b505050565b505050565b60006126398473ffffffffffffffffffffffffffffffffffffffff16612910565b156127a2578373ffffffffffffffffffffffffffffffffffffffff1663150b7a02612662611d4f565b8786866040518563ffffffff1660e01b8152600401612684949392919061347c565b602060405180830381600087803b15801561269e57600080fd5b505af19250505080156126cf57506040513d601f19601f820116820180604052508101906126cc9190612d4d565b60015b612752573d80600081146126ff576040519150601f19603f3d011682016040523d82523d6000602084013e612704565b606091505b5060008151141561274a576040517f08c379a000000000000000000000000000000000000000000000000000000000815260040161274190613547565b60405180910390fd5b805181602001fd5b63150b7a0260e01b7bffffffffffffffffffffffffffffffffffffffffffffffffffffffff1916817bffffffffffffffffffffffffffffffffffffffffffffffffffffffff1916149150506127a7565b600190505b949350505050565b606060008214156127f7576040518060400160405280600181526020017f3000000000000000000000000000000000000000000000000000000000000000815250905061290b565b600082905060005b6000821461282957808061281290613b8e565b915050600a8261282291906139b6565b91506127ff565b60008167ffffffffffffffff81111561284557612844613cc4565b5b6040519080825280601f01601f1916602001820160405280156128775781602001600182028036833780820191505090505b5090505b60008514612904576001826128909190613a41565b9150600a8561289f9190613bd7565b60306128ab9190613960565b60f81b8183815181106128c1576128c0613c95565b5b60200101907effffffffffffffffffffffffffffffffffffffffffffffffffffffffffffff1916908160001a905350600a856128fd91906139b6565b945061287b565b8093505050505b919050565b600080823b905060008111915050919050565b6040518060c0016040528060008152602001600073ffffffffffffffffffffffffffffffffffffffff1681526020016000151581526020016000815260200160008152602001600081525090565b82805461297d90613b2b565b90600052602060002090601f01602090048101928261299f57600085556129e6565b82601f106129b857805160ff19168380011785556129e6565b828001600101855582156129e6579182015b828111156129e55782518255916020019190600101906129ca565b5b5090506129f391906129f7565b5090565b5b80821115612a105760008160009055506001016129f8565b5090565b6000612a27612a2284613882565b61385d565b905082815260208101848484011115612a4357612a42613cf8565b5b612a4e848285613ae9565b509392505050565b6000612a69612a64846138b3565b61385d565b905082815260208101848484011115612a8557612a84613cf8565b5b612a90848285613ae9565b509392505050565b600081359050612aa781614350565b92915050565b600081359050612abc81614367565b92915050565b600081359050612ad18161437e565b92915050565b600081519050612ae68161437e565b92915050565b600082601f830112612b0157612b00613cf3565b5b8135612b11848260208601612a14565b91505092915050565b600082601f830112612b2f57612b2e613cf3565b5b8135612b3f848260208601612a56565b91505092915050565b600081359050612b5781614395565b92915050565b600060208284031215612b7357612b72613d02565b5b6000612b8184828501612a98565b91505092915050565b60008060408385031215612ba157612ba0613d02565b5b6000612baf85828601612a98565b9250506020612bc085828601612a98565b9150509250929050565b600080600060608486031215612be357612be2613d02565b5b6000612bf186828701612a98565b9350506020612c0286828701612a98565b9250506040612c1386828701612b48565b9150509250925092565b60008060008060808587031215612c3757612c36613d02565b5b6000612c4587828801612a98565b9450506020612c5687828801612a98565b9350506040612c6787828801612b48565b925050606085013567ffffffffffffffff811115612c8857612c87613cfd565b5b612c9487828801612aec565b91505092959194509250565b60008060408385031215612cb757612cb6613d02565b5b6000612cc585828601612a98565b9250506020612cd685828601612aad565b9150509250929050565b60008060408385031215612cf757612cf6613d02565b5b6000612d0585828601612a98565b9250506020612d1685828601612b48565b9150509250929050565b600060208284031215612d3657612d35613d02565b5b6000612d4484828501612ac2565b91505092915050565b600060208284031215612d6357612d62613d02565b5b6000612d7184828501612ad7565b91505092915050565b600060208284031215612d9057612d8f613d02565b5b600082013567ffffffffffffffff811115612dae57612dad613cfd565b5b612dba84828501612b1a565b91505092915050565b600060208284031215612dd957612dd8613d02565b5b6000612de784828501612b48565b91505092915050565b60008060408385031215612e0757612e06613d02565b5b6000612e1585828601612b48565b925050602083013567ffffffffffffffff811115612e3657612e35613cfd565b5b612e4285828601612b1a565b9150509250929050565b60008060408385031215612e6357612e62613d02565b5b6000612e7185828601612b48565b9250506020612e8285828601612b48565b9150509250929050565b6000612e988383613329565b60c08301905092915050565b612ead81613a75565b82525050565b612ebc81613a75565b82525050565b6000612ecd826138f4565b612ed78185613922565b9350612ee2836138e4565b8060005b83811015612f13578151612efa8882612e8c565b9750612f0583613915565b925050600181019050612ee6565b5085935050505092915050565b612f2981613a87565b82525050565b612f3881613a87565b82525050565b6000612f49826138ff565b612f538185613933565b9350612f63818560208601613af8565b612f6c81613d07565b840191505092915050565b6000612f828261390a565b612f8c8185613944565b9350612f9c818560208601613af8565b612fa581613d07565b840191505092915050565b6000612fbb8261390a565b612fc58185613955565b9350612fd5818560208601613af8565b80840191505092915050565b6000612fee601183613944565b9150612ff982613d18565b602082019050919050565b6000613011603283613944565b915061301c82613d41565b604082019050919050565b6000613034601a83613944565b915061303f82613d90565b602082019050919050565b6000613057601c83613944565b915061306282613db9565b602082019050919050565b600061307a602483613944565b915061308582613de2565b604082019050919050565b600061309d601983613944565b91506130a882613e31565b602082019050919050565b60006130c0602c83613944565b91506130cb82613e5a565b604082019050919050565b60006130e3602c83613944565b91506130ee82613ea9565b604082019050919050565b6000613106603883613944565b915061311182613ef8565b604082019050919050565b6000613129602a83613944565b915061313482613f47565b604082019050919050565b600061314c602a83613944565b915061315782613f96565b604082019050919050565b600061316f602983613944565b915061317a82613fe5565b604082019050919050565b6000613192602e83613944565b915061319d82614034565b604082019050919050565b60006131b5602083613944565b91506131c082614083565b602082019050919050565b60006131d8601a83613944565b91506131e3826140ac565b602082019050919050565b60006131fb603183613944565b9150613206826140d5565b604082019050919050565b600061321e601083613944565b915061322982614124565b602082019050919050565b6000613241602c83613944565b915061324c8261414d565b604082019050919050565b6000613264602983613944565b915061326f8261419c565b604082019050919050565b6000613287602f83613944565b9150613292826141eb565b604082019050919050565b60006132aa601983613944565b91506132b58261423a565b602082019050919050565b60006132cd602183613944565b91506132d882614263565b604082019050919050565b60006132f0603183613944565b91506132fb826142b2565b604082019050919050565b6000613313602883613944565b915061331e82614301565b604082019050919050565b60c08201600082015161333f600085018261341f565b5060208201516133526020850182612ea4565b5060408201516133656040850182612f20565b506060820151613378606085018261341f565b50608082015161338b608085018261341f565b5060a082015161339e60a085018261341f565b50505050565b60c0820160008201516133ba600085018261341f565b5060208201516133cd6020850182612ea4565b5060408201516133e06040850182612f20565b5060608201516133f3606085018261341f565b506080820151613406608085018261341f565b5060a082015161341960a085018261341f565b50505050565b61342881613adf565b82525050565b61343781613adf565b82525050565b60006134498285612fb0565b91506134558284612fb0565b91508190509392505050565b60006020820190506134766000830184612eb3565b92915050565b60006080820190506134916000830187612eb3565b61349e6020830186612eb3565b6134ab604083018561342e565b81810360608301526134bd8184612f3e565b905095945050505050565b600060208201905081810360008301526134e28184612ec2565b905092915050565b60006020820190506134ff6000830184612f2f565b92915050565b6000602082019050818103600083015261351f8184612f77565b905092915050565b6000602082019050818103600083015261354081612fe1565b9050919050565b6000602082019050818103600083015261356081613004565b9050919050565b6000602082019050818103600083015261358081613027565b9050919050565b600060208201905081810360008301526135a08161304a565b9050919050565b600060208201905081810360008301526135c08161306d565b9050919050565b600060208201905081810360008301526135e081613090565b9050919050565b60006020820190508181036000830152613600816130b3565b9050919050565b60006020820190508181036000830152613620816130d6565b9050919050565b60006020820190508181036000830152613640816130f9565b9050919050565b600060208201905081810360008301526136608161311c565b9050919050565b600060208201905081810360008301526136808161313f565b9050919050565b600060208201905081810360008301526136a081613162565b9050919050565b600060208201905081810360008301526136c081613185565b9050919050565b600060208201905081810360008301526136e0816131a8565b9050919050565b60006020820190508181036000830152613700816131cb565b9050919050565b60006020820190508181036000830152613720816131ee565b9050919050565b6000602082019050818103600083015261374081613211565b9050919050565b6000602082019050818103600083015261376081613234565b9050919050565b6000602082019050818103600083015261378081613257565b9050919050565b600060208201905081810360008301526137a08161327a565b9050919050565b600060208201905081810360008301526137c08161329d565b9050919050565b600060208201905081810360008301526137e0816132c0565b9050919050565b60006020820190508181036000830152613800816132e3565b9050919050565b6000602082019050818103600083015261382081613306565b9050919050565b600060c08201905061383c60008301846133a4565b92915050565b6000602082019050613857600083018461342e565b92915050565b6000613867613878565b90506138738282613b5d565b919050565b6000604051905090565b600067ffffffffffffffff82111561389d5761389c613cc4565b5b6138a682613d07565b9050602081019050919050565b600067ffffffffffffffff8211156138ce576138cd613cc4565b5b6138d782613d07565b9050602081019050919050565b6000819050602082019050919050565b600081519050919050565b600081519050919050565b600081519050919050565b6000602082019050919050565b600082825260208201905092915050565b600082825260208201905092915050565b600082825260208201905092915050565b600081905092915050565b600061396b82613adf565b915061397683613adf565b9250827fffffffffffffffffffffffffffffffffffffffffffffffffffffffffffffffff038211156139ab576139aa613c08565b5b828201905092915050565b60006139c182613adf565b91506139cc83613adf565b9250826139dc576139db613c37565b5b828204905092915050565b60006139f282613adf565b91506139fd83613adf565b9250817fffffffffffffffffffffffffffffffffffffffffffffffffffffffffffffffff0483118215151615613a3657613a35613c08565b5b828202905092915050565b6000613a4c82613adf565b9150613a5783613adf565b925082821015613a6a57613a69613c08565b5b828203905092915050565b6000613a8082613abf565b9050919050565b60008115159050919050565b60007fffffffff0000000000000000000000000000000000000000000000000000000082169050919050565b600073ffffffffffffffffffffffffffffffffffffffff82169050919050565b6000819050919050565b82818337600083830152505050565b60005b83811015613b16578082015181840152602081019050613afb565b83811115613b25576000848401525b50505050565b60006002820490506001821680613b4357607f821691505b60208210811415613b5757613b56613c66565b5b50919050565b613b6682613d07565b810181811067ffffffffffffffff82111715613b8557613b84613cc4565b5b80604052505050565b6000613b9982613adf565b91507fffffffffffffffffffffffffffffffffffffffffffffffffffffffffffffffff821415613bcc57613bcb613c08565b5b600182019050919050565b6000613be282613adf565b9150613bed83613adf565b925082613bfd57613bfc613c37565b5b828206905092915050565b7f4e487b7100000000000000000000000000000000000000000000000000000000600052601160045260246000fd5b7f4e487b7100000000000000000000000000000000000000000000000000000000600052601260045260246000fd5b7f4e487b7100000000000000000000000000000000000000000000000000000000600052602260045260246000fd5b7f4e487b7100000000000000000000000000000000000000000000000000000000600052603260045260246000fd5b7f4e487b7100000000000000000000000000000000000000000000000000000000600052604160045260246000fd5b600080fd5b600080fd5b600080fd5b600080fd5b6000601f19601f8301169050919050565b7f70726963652073657420746f6f206c6f77000000000000000000000000000000600082015250565b7f4552433732313a207472616e7366657220746f206e6f6e20455243373231526560008201527f63656976657220696d706c656d656e7465720000000000000000000000000000602082015250565b7f5468697320746f6b656e206973206e6f7420666f722073616c65000000000000600082015250565b7f4552433732313a20746f6b656e20616c7265616479206d696e74656400000000600082015250565b7f4552433732313a207472616e7366657220746f20746865207a65726f2061646460008201527f7265737300000000000000000000000000000000000000000000000000000000602082015250565b7f4552433732313a20617070726f766520746f2063616c6c657200000000000000600082015250565b7f4552433732313a206f70657261746f7220717565727920666f72206e6f6e657860008201527f697374656e7420746f6b656e0000000000000000000000000000000000000000602082015250565b7f4f6e6c792074686520746f6b656e206f776e65722063616e20706572666f726d60008201527f207468697320616374696f6e0000000000000000000000000000000000000000602082015250565b7f4552433732313a20617070726f76652063616c6c6572206973206e6f74206f7760008201527f6e6572206e6f7220617070726f76656420666f7220616c6c0000000000000000602082015250565b7f546865204e46542068617320616c72656164792072656163686564206d61786960008201527f6d756d20737570706c7900000000000000000000000000000000000000000000602082015250565b7f4552433732313a2062616c616e636520717565727920666f7220746865207a6560008201527f726f206164647265737300000000000000000000000000000000000000000000602082015250565b7f4552433732313a206f776e657220717565727920666f72206e6f6e657869737460008201527f656e7420746f6b656e0000000000000000000000000000000000000000000000602082015250565b7f45524337323155524953746f726167653a2055524920736574206f66206e6f6e60008201527f6578697374656e7420746f6b656e000000000000000000000000000000000000602082015250565b7f4552433732313a206d696e7420746f20746865207a65726f2061646472657373600082015250565b7f596f7520616c7265616479206f776e207468697320746f6b656e000000000000600082015250565b7f45524337323155524953746f726167653a2055524920717565727920666f722060008201527f6e6f6e6578697374656e7420746f6b656e000000000000000000000000000000602082015250565b7f77726f6e672076616c75652073656e7400000000000000000000000000000000600082015250565b7f4552433732313a20617070726f76656420717565727920666f72206e6f6e657860008201527f697374656e7420746f6b656e0000000000000000000000000000000000000000602082015250565b7f4552433732313a207472616e73666572206f6620746f6b656e2074686174206960008201527f73206e6f74206f776e0000000000000000000000000000000000000000000000602082015250565b7f4552433732314d657461646174613a2055524920717565727920666f72206e6f60008201527f6e6578697374656e7420746f6b656e0000000000000000000000000000000000602082015250565b7f4e6f7420656e6f75676820457468207761732070617373656400000000000000600082015250565b7f4552433732313a20617070726f76616c20746f2063757272656e74206f776e6560008201527f7200000000000000000000000000000000000000000000000000000000000000602082015250565b7f4552433732313a207472616e736665722063616c6c6572206973206e6f74206f60008201527f776e6572206e6f7220617070726f766564000000000000000000000000000000602082015250565b7f6f6e6c79207468652063726561746f722063616e20706572666f726d2074686960008201527f7320616374696f6e000000000000000000000000000000000000000000000000602082015250565b61435981613a75565b811461436457600080fd5b50565b61437081613a87565b811461437b57600080fd5b50565b61438781613a93565b811461439257600080fd5b50565b61439e81613adf565b81146143a957600080fd5b5056fea2646970667358221220d9feb9e815e0ca07ed3a8b732f097ce7482f2c26b2540788495af6edea218b7264736f6c63430008070033",
  "linkReferences": {},
  "deployedLinkReferences": {}
}