{
    "_format": "hh-sol-artifact-1",
    "contractName": "MoonNFT",
    "sourceName": "contracts/MoonNFT.sol",
    "abi": [
        {
            "inputs": [
                {
                    "internalType": "string",
                    "name": "name",
                    "type": "string"
                },
                {
                    "internalType": "string",
                    "name": "symbol",
                    "type": "string"
                },
                {
                    "internalType": "address",
                    "name": "marketplaceAddress",
                    "type": "address"
                },
                {
                    "internalType": "string",
                    "name": "data",
                    "type": "string"
                },
                {
                    "internalType": "uint256",
                    "name": "price",
                    "type": "uint256"
                }
            ],
            "stateMutability": "nonpayable",
            "type": "constructor"
        },
        {
            "anonymous": false,
            "inputs": [
                {
                    "indexed": true,
                    "internalType": "address",
                    "name": "owner",
                    "type": "address"
                },
                {
                    "indexed": true,
                    "internalType": "address",
                    "name": "approved",
                    "type": "address"
                },
                {
                    "indexed": true,
                    "internalType": "uint256",
                    "name": "tokenId",
                    "type": "uint256"
                }
            ],
            "name": "Approval",
            "type": "event"
        },
        {
            "anonymous": false,
            "inputs": [
                {
                    "indexed": true,
                    "internalType": "address",
                    "name": "owner",
                    "type": "address"
                },
                {
                    "indexed": true,
                    "internalType": "address",
                    "name": "operator",
                    "type": "address"
                },
                {
                    "indexed": false,
                    "internalType": "bool",
                    "name": "approved",
                    "type": "bool"
                }
            ],
            "name": "ApprovalForAll",
            "type": "event"
        },
        {
            "anonymous": false,
            "inputs": [
                {
                    "indexed": true,
                    "internalType": "address",
                    "name": "from",
                    "type": "address"
                },
                {
                    "indexed": true,
                    "internalType": "address",
                    "name": "to",
                    "type": "address"
                },
                {
                    "indexed": true,
                    "internalType": "uint256",
                    "name": "tokenId",
                    "type": "uint256"
                }
            ],
            "name": "Transfer",
            "type": "event"
        },
        {
            "inputs": [
                {
                    "internalType": "uint256",
                    "name": "id",
                    "type": "uint256"
                },
                {
                    "internalType": "string",
                    "name": "tokenURI",
                    "type": "string"
                }
            ],
            "name": "addTokenUri",
            "outputs": [],
            "stateMutability": "nonpayable",
            "type": "function"
        },
        {
            "inputs": [
                {
                    "internalType": "address",
                    "name": "to",
                    "type": "address"
                },
                {
                    "internalType": "uint256",
                    "name": "tokenId",
                    "type": "uint256"
                }
            ],
            "name": "approve",
            "outputs": [],
            "stateMutability": "nonpayable",
            "type": "function"
        },
        {
            "inputs": [
                {
                    "internalType": "address",
                    "name": "owner",
                    "type": "address"
                }
            ],
            "name": "balanceOf",
            "outputs": [
                {
                    "internalType": "uint256",
                    "name": "",
                    "type": "uint256"
                }
            ],
            "stateMutability": "view",
            "type": "function"
        },
        {
            "inputs": [],
            "name": "createToken",
            "outputs": [
                {
                    "internalType": "uint256",
                    "name": "",
                    "type": "uint256"
                }
            ],
            "stateMutability": "payable",
            "type": "function"
        },
        {
            "inputs": [
                {
                    "internalType": "uint256",
                    "name": "tokenId",
                    "type": "uint256"
                }
            ],
            "name": "delistToken",
            "outputs": [],
            "stateMutability": "nonpayable",
            "type": "function"
        },
        {
            "inputs": [],
            "name": "getAllTokens",
            "outputs": [
                {
                    "components": [
                        {
                            "internalType": "uint256",
                            "name": "id",
                            "type": "uint256"
                        },
                        {
                            "internalType": "address",
                            "name": "owner",
                            "type": "address"
                        },
                        {
                            "internalType": "bool",
                            "name": "forSale",
                            "type": "bool"
                        },
                        {
                            "internalType": "uint256",
                            "name": "price",
                            "type": "uint256"
                        },
                        {
                            "internalType": "uint256",
                            "name": "pricePaid",
                            "type": "uint256"
                        },
                        {
                            "internalType": "uint256",
                            "name": "purchaseDate",
                            "type": "uint256"
                        }
                    ],
                    "internalType": "struct MoonNFT.tokenState[]",
                    "name": "",
                    "type": "tuple[]"
                }
            ],
            "stateMutability": "view",
            "type": "function"
        },
        {
            "inputs": [
                {
                    "internalType": "uint256",
                    "name": "tokenId",
                    "type": "uint256"
                }
            ],
            "name": "getApproved",
            "outputs": [
                {
                    "internalType": "address",
                    "name": "",
                    "type": "address"
                }
            ],
            "stateMutability": "view",
            "type": "function"
        },
        {
            "inputs": [],
            "name": "getInitialPrice",
            "outputs": [
                {
                    "internalType": "uint256",
                    "name": "",
                    "type": "uint256"
                }
            ],
            "stateMutability": "view",
            "type": "function"
        },
        {
            "inputs": [],
            "name": "getMaxSupply",
            "outputs": [
                {
                    "internalType": "uint256",
                    "name": "",
                    "type": "uint256"
                }
            ],
            "stateMutability": "view",
            "type": "function"
        },
        {
            "inputs": [],
            "name": "getMetaData",
            "outputs": [
                {
                    "internalType": "string",
                    "name": "",
                    "type": "string"
                }
            ],
            "stateMutability": "view",
            "type": "function"
        },
        {
            "inputs": [],
            "name": "getNumberForSale",
            "outputs": [
                {
                    "internalType": "uint256",
                    "name": "",
                    "type": "uint256"
                }
            ],
            "stateMutability": "view",
            "type": "function"
        },
        {
            "inputs": [],
            "name": "getTokenCount",
            "outputs": [
                {
                    "internalType": "uint256",
                    "name": "",
                    "type": "uint256"
                }
            ],
            "stateMutability": "view",
            "type": "function"
        },
        {
            "inputs": [
                {
                    "internalType": "uint256",
                    "name": "tokenId",
                    "type": "uint256"
                }
            ],
            "name": "getTokenState",
            "outputs": [
                {
                    "components": [
                        {
                            "internalType": "uint256",
                            "name": "id",
                            "type": "uint256"
                        },
                        {
                            "internalType": "address",
                            "name": "owner",
                            "type": "address"
                        },
                        {
                            "internalType": "bool",
                            "name": "forSale",
                            "type": "bool"
                        },
                        {
                            "internalType": "uint256",
                            "name": "price",
                            "type": "uint256"
                        },
                        {
                            "internalType": "uint256",
                            "name": "pricePaid",
                            "type": "uint256"
                        },
                        {
                            "internalType": "uint256",
                            "name": "purchaseDate",
                            "type": "uint256"
                        }
                    ],
                    "internalType": "struct MoonNFT.tokenState",
                    "name": "",
                    "type": "tuple"
                }
            ],
            "stateMutability": "view",
            "type": "function"
        },
        {
            "inputs": [
                {
                    "internalType": "address",
                    "name": "owner",
                    "type": "address"
                },
                {
                    "internalType": "address",
                    "name": "operator",
                    "type": "address"
                }
            ],
            "name": "isApprovedForAll",
            "outputs": [
                {
                    "internalType": "bool",
                    "name": "",
                    "type": "bool"
                }
            ],
            "stateMutability": "view",
            "type": "function"
        },
        {
            "inputs": [
                {
                    "internalType": "uint256",
                    "name": "tokenId",
                    "type": "uint256"
                },
                {
                    "internalType": "uint256",
                    "name": "value",
                    "type": "uint256"
                }
            ],
            "name": "listToken",
            "outputs": [],
            "stateMutability": "nonpayable",
            "type": "function"
        },
        {
            "inputs": [],
            "name": "name",
            "outputs": [
                {
                    "internalType": "string",
                    "name": "",
                    "type": "string"
                }
            ],
            "stateMutability": "view",
            "type": "function"
        },
        {
            "inputs": [
                {
                    "internalType": "uint256",
                    "name": "tokenId",
                    "type": "uint256"
                }
            ],
            "name": "ownerOf",
            "outputs": [
                {
                    "internalType": "address",
                    "name": "",
                    "type": "address"
                }
            ],
            "stateMutability": "view",
            "type": "function"
        },
        {
            "inputs": [
                {
                    "internalType": "uint256",
                    "name": "tokenId",
                    "type": "uint256"
                }
            ],
            "name": "purchaseToken",
            "outputs": [],
            "stateMutability": "payable",
            "type": "function"
        },
        {
            "inputs": [
                {
                    "internalType": "address",
                    "name": "from",
                    "type": "address"
                },
                {
                    "internalType": "address",
                    "name": "to",
                    "type": "address"
                },
                {
                    "internalType": "uint256",
                    "name": "tokenId",
                    "type": "uint256"
                }
            ],
            "name": "safeTransferFrom",
            "outputs": [],
            "stateMutability": "nonpayable",
            "type": "function"
        },
        {
            "inputs": [
                {
                    "internalType": "address",
                    "name": "from",
                    "type": "address"
                },
                {
                    "internalType": "address",
                    "name": "to",
                    "type": "address"
                },
                {
                    "internalType": "uint256",
                    "name": "tokenId",
                    "type": "uint256"
                },
                {
                    "internalType": "bytes",
                    "name": "_data",
                    "type": "bytes"
                }
            ],
            "name": "safeTransferFrom",
            "outputs": [],
            "stateMutability": "nonpayable",
            "type": "function"
        },
        {
            "inputs": [
                {
                    "internalType": "address",
                    "name": "operator",
                    "type": "address"
                },
                {
                    "internalType": "bool",
                    "name": "approved",
                    "type": "bool"
                }
            ],
            "name": "setApprovalForAll",
            "outputs": [],
            "stateMutability": "nonpayable",
            "type": "function"
        },
        {
            "inputs": [
                {
                    "internalType": "string",
                    "name": "data",
                    "type": "string"
                }
            ],
            "name": "setMetaData",
            "outputs": [],
            "stateMutability": "nonpayable",
            "type": "function"
        },
        {
            "inputs": [
                {
                    "internalType": "uint256",
                    "name": "tokenId",
                    "type": "uint256"
                },
                {
                    "internalType": "uint256",
                    "name": "newPrice",
                    "type": "uint256"
                }
            ],
            "name": "setTokenPrice",
            "outputs": [],
            "stateMutability": "nonpayable",
            "type": "function"
        },
        {
            "inputs": [
                {
                    "internalType": "bytes4",
                    "name": "interfaceId",
                    "type": "bytes4"
                }
            ],
            "name": "supportsInterface",
            "outputs": [
                {
                    "internalType": "bool",
                    "name": "",
                    "type": "bool"
                }
            ],
            "stateMutability": "view",
            "type": "function"
        },
        {
            "inputs": [],
            "name": "symbol",
            "outputs": [
                {
                    "internalType": "string",
                    "name": "",
                    "type": "string"
                }
            ],
            "stateMutability": "view",
            "type": "function"
        },
        {
            "inputs": [
                {
                    "internalType": "uint256",
                    "name": "tokenId",
                    "type": "uint256"
                }
            ],
            "name": "tokenURI",
            "outputs": [
                {
                    "internalType": "string",
                    "name": "",
                    "type": "string"
                }
            ],
            "stateMutability": "view",
            "type": "function"
        },
        {
            "inputs": [
                {
                    "internalType": "address",
                    "name": "from",
                    "type": "address"
                },
                {
                    "internalType": "address",
                    "name": "to",
                    "type": "address"
                },
                {
                    "internalType": "uint256",
                    "name": "tokenId",
                    "type": "uint256"
                }
            ],
            "name": "transferFrom",
            "outputs": [],
            "stateMutability": "nonpayable",
            "type": "function"
        }
    ],
    "bytecode": "0x608060405260646008553480156200001657600080fd5b5060405162004f9a38038062004f9a83398181016040528101906200003c919062000807565b8484816000908051906020019062000056929190620006ab565b5080600190805190602001906200006f929190620006ab565b50505082600960006101000a81548173ffffffffffffffffffffffffffffffffffffffff021916908373ffffffffffffffffffffffffffffffffffffffff16021790555081600b9080519060200190620000cb929190620006ab565b5080600c81905550600060078190555033600a60006101000a81548173ffffffffffffffffffffffffffffffffffffffff021916908373ffffffffffffffffffffffffffffffffffffffff1602179055506040518060c0016040528060075481526020013373ffffffffffffffffffffffffffffffffffffffff168152602001600015158152602001600c548152602001600c54815260200142815250600d600060075481526020019081526020016000206000820151816000015560208201518160010160006101000a81548173ffffffffffffffffffffffffffffffffffffffff021916908373ffffffffffffffffffffffffffffffffffffffff16021790555060408201518160010160146101000a81548160ff021916908315150217905550606082015181600201556080820151816003015560a082015181600401559050506200022333600754620002b460201b60201c565b62000258600960009054906101000a900473ffffffffffffffffffffffffffffffffffffffff1660016200049a60201b60201c565b6001600760008282546200026d919062000a65565b92505081905550620002a9600960009054906101000a900473ffffffffffffffffffffffffffffffffffffffff1660016200049a60201b60201c565b505050505062000d0f565b600073ffffffffffffffffffffffffffffffffffffffff168273ffffffffffffffffffffffffffffffffffffffff16141562000327576040517f08c379a00000000000000000000000000000000000000000000000000000000081526004016200031e90620009d3565b60405180910390fd5b6200033881620004c060201b60201c565b156200037b576040517f08c379a000000000000000000000000000000000000000000000000000000000815260040162000372906200098f565b60405180910390fd5b6200038f600083836200052c60201b60201c565b6001600360008473ffffffffffffffffffffffffffffffffffffffff1673ffffffffffffffffffffffffffffffffffffffff1681526020019081526020016000206000828254620003e1919062000a65565b92505081905550816002600083815260200190815260200160002060006101000a81548173ffffffffffffffffffffffffffffffffffffffff021916908373ffffffffffffffffffffffffffffffffffffffff160217905550808273ffffffffffffffffffffffffffffffffffffffff16600073ffffffffffffffffffffffffffffffffffffffff167fddf252ad1be2c89b69c2b068fc378daa952ba7f163c4a11628f55a4df523b3ef60405160405180910390a45050565b620004bc620004ae6200053160201b60201c565b83836200053960201b60201c565b5050565b60008073ffffffffffffffffffffffffffffffffffffffff166002600084815260200190815260200160002060009054906101000a900473ffffffffffffffffffffffffffffffffffffffff1673ffffffffffffffffffffffffffffffffffffffff1614159050919050565b505050565b600033905090565b8173ffffffffffffffffffffffffffffffffffffffff168373ffffffffffffffffffffffffffffffffffffffff161415620005ab576040517f08c379a0000000000000000000000000000000000000000000000000000000008152600401620005a290620009b1565b60405180910390fd5b80600560008573ffffffffffffffffffffffffffffffffffffffff1673ffffffffffffffffffffffffffffffffffffffff16815260200190815260200160002060008473ffffffffffffffffffffffffffffffffffffffff1673ffffffffffffffffffffffffffffffffffffffff16815260200190815260200160002060006101000a81548160ff0219169083151502179055508173ffffffffffffffffffffffffffffffffffffffff168373ffffffffffffffffffffffffffffffffffffffff167f17307eab39ab6107e8899845ad3d59bd9653f200f220920489ca2b5937696c31836040516200069e919062000972565b60405180910390a3505050565b828054620006b99062000b42565b90600052602060002090601f016020900481019282620006dd576000855562000729565b82601f10620006f857805160ff191683800117855562000729565b8280016001018555821562000729579182015b82811115620007285782518255916020019190600101906200070b565b5b5090506200073891906200073c565b5090565b5b80821115620007575760008160009055506001016200073d565b5090565b6000620007726200076c8462000a1e565b620009f5565b90508281526020810184848401111562000791576200079062000c40565b5b6200079e84828562000b0c565b509392505050565b600081519050620007b78162000cdb565b92915050565b600082601f830112620007d557620007d462000c3b565b5b8151620007e78482602086016200075b565b91505092915050565b600081519050620008018162000cf5565b92915050565b600080600080600060a0868803121562000826576200082562000c4a565b5b600086015167ffffffffffffffff81111562000847576200084662000c45565b5b6200085588828901620007bd565b955050602086015167ffffffffffffffff81111562000879576200087862000c45565b5b6200088788828901620007bd565b94505060406200089a88828901620007a6565b935050606086015167ffffffffffffffff811115620008be57620008bd62000c45565b5b620008cc88828901620007bd565b9250506080620008df88828901620007f0565b9150509295509295909350565b620008f78162000ad6565b82525050565b60006200090c601c8362000a54565b9150620009198262000c60565b602082019050919050565b60006200093360198362000a54565b9150620009408262000c89565b602082019050919050565b60006200095a60208362000a54565b9150620009678262000cb2565b602082019050919050565b6000602082019050620009896000830184620008ec565b92915050565b60006020820190508181036000830152620009aa81620008fd565b9050919050565b60006020820190508181036000830152620009cc8162000924565b9050919050565b60006020820190508181036000830152620009ee816200094b565b9050919050565b600062000a0162000a14565b905062000a0f828262000b78565b919050565b6000604051905090565b600067ffffffffffffffff82111562000a3c5762000a3b62000c0c565b5b62000a478262000c4f565b9050602081019050919050565b600082825260208201905092915050565b600062000a728262000b02565b915062000a7f8362000b02565b9250827fffffffffffffffffffffffffffffffffffffffffffffffffffffffffffffffff0382111562000ab75762000ab662000bae565b5b828201905092915050565b600062000acf8262000ae2565b9050919050565b60008115159050919050565b600073ffffffffffffffffffffffffffffffffffffffff82169050919050565b6000819050919050565b60005b8381101562000b2c57808201518184015260208101905062000b0f565b8381111562000b3c576000848401525b50505050565b6000600282049050600182168062000b5b57607f821691505b6020821081141562000b725762000b7162000bdd565b5b50919050565b62000b838262000c4f565b810181811067ffffffffffffffff8211171562000ba55762000ba462000c0c565b5b80604052505050565b7f4e487b7100000000000000000000000000000000000000000000000000000000600052601160045260246000fd5b7f4e487b7100000000000000000000000000000000000000000000000000000000600052602260045260246000fd5b7f4e487b7100000000000000000000000000000000000000000000000000000000600052604160045260246000fd5b600080fd5b600080fd5b600080fd5b600080fd5b6000601f19601f8301169050919050565b7f4552433732313a20746f6b656e20616c7265616479206d696e74656400000000600082015250565b7f4552433732313a20617070726f766520746f2063616c6c657200000000000000600082015250565b7f4552433732313a206d696e7420746f20746865207a65726f2061646472657373600082015250565b62000ce68162000ac2565b811462000cf257600080fd5b50565b62000d008162000b02565b811462000d0c57600080fd5b50565b61427b8062000d1f6000396000f3fe60806040526004361061019c5760003560e01c806378a89567116100ec578063c87b56dd1161008a578063d821f81a11610064578063d821f81a146105ac578063e985e9c5146105d5578063eb685c4714610612578063f45fd0f31461063b5761019c565b8063c87b56dd1461051b578063d15ecc4c14610558578063d2786ba4146105815761019c565b8063a22cb465116100c6578063a22cb46514610484578063b88d4fde146104ad578063bed659bc146104d6578063c2db2c42146104ff5761019c565b806378a895671461041057806395d89b411461043b5780639cbf9e36146104665761019c565b80632a5c792a116101595780634c0f38c2116101335780634c0f38c2146103425780636352211e1461036d57806370a08231146103aa57806375c1631d146103e75761019c565b80632a5c792a146102c35780632b013d6d146102ee57806342842e0e146103195761019c565b806301ffc9a7146101a157806306f660ef146101de57806306fdde0314610209578063081812fc14610234578063095ea7b31461027157806323b872dd1461029a575b600080fd5b3480156101ad57600080fd5b506101c860048036038101906101c39190612bb9565b610678565b6040516101d59190613383565b60405180910390f35b3480156101ea57600080fd5b506101f361075a565b60405161020091906136db565b60405180910390f35b34801561021557600080fd5b5061021e610764565b60405161022b919061339e565b60405180910390f35b34801561024057600080fd5b5061025b60048036038101906102569190612c5c565b6107f6565b60405161026891906132fa565b60405180910390f35b34801561027d57600080fd5b5061029860048036038101906102939190612b79565b61087b565b005b3480156102a657600080fd5b506102c160048036038101906102bc9190612a63565b610993565b005b3480156102cf57600080fd5b506102d86109f3565b6040516102e59190613361565b60405180910390f35b3480156102fa57600080fd5b50610303610bc0565b60405161031091906136db565b60405180910390f35b34801561032557600080fd5b50610340600480360381019061033b9190612a63565b610c2f565b005b34801561034e57600080fd5b50610357610c4f565b60405161036491906136db565b60405180910390f35b34801561037957600080fd5b50610394600480360381019061038f9190612c5c565b610c59565b6040516103a191906132fa565b60405180910390f35b3480156103b657600080fd5b506103d160048036038101906103cc91906129f6565b610d0b565b6040516103de91906136db565b60405180910390f35b3480156103f357600080fd5b5061040e60048036038101906104099190612ce5565b610dc3565b005b34801561041c57600080fd5b50610425610e89565b60405161043291906136db565b60405180910390f35b34801561044757600080fd5b50610450610e93565b60405161045d919061339e565b60405180910390f35b61046e610f25565b60405161047b91906136db565b60405180910390f35b34801561049057600080fd5b506104ab60048036038101906104a69190612b39565b61116c565b005b3480156104b957600080fd5b506104d460048036038101906104cf9190612ab6565b611182565b005b3480156104e257600080fd5b506104fd60048036038101906104f89190612c5c565b6111e4565b005b61051960048036038101906105149190612c5c565b61128e565b005b34801561052757600080fd5b50610542600480360381019061053d9190612c5c565b6115b1565b60405161054f919061339e565b60405180910390f35b34801561056457600080fd5b5061057f600480360381019061057a9190612c89565b611703565b005b34801561058d57600080fd5b506105966117a1565b6040516105a3919061339e565b60405180910390f35b3480156105b857600080fd5b506105d360048036038101906105ce9190612c13565b611833565b005b3480156105e157600080fd5b506105fc60048036038101906105f79190612a23565b6118dd565b6040516106099190613383565b60405180910390f35b34801561061e57600080fd5b5061063960048036038101906106349190612ce5565b611971565b005b34801561064757600080fd5b50610662600480360381019061065d9190612c5c565b611a4c565b60405161066f91906136c0565b60405180910390f35b60007f80ac58cd000000000000000000000000000000000000000000000000000000007bffffffffffffffffffffffffffffffffffffffffffffffffffffffff1916827bffffffffffffffffffffffffffffffffffffffffffffffffffffffff1916148061074357507f5b5e139f000000000000000000000000000000000000000000000000000000007bffffffffffffffffffffffffffffffffffffffffffffffffffffffff1916827bffffffffffffffffffffffffffffffffffffffffffffffffffffffff1916145b80610753575061075282611b12565b5b9050919050565b6000600c54905090565b606060008054610773906139c4565b80601f016020809104026020016040519081016040528092919081815260200182805461079f906139c4565b80156107ec5780601f106107c1576101008083540402835291602001916107ec565b820191906000526020600020905b8154815290600101906020018083116107cf57829003601f168201915b5050505050905090565b600061080182611b7c565b610840576040517f08c379a0000000000000000000000000000000000000000000000000000000008152600401610837906135e0565b60405180910390fd5b6004600083815260200190815260200160002060009054906101000a900473ffffffffffffffffffffffffffffffffffffffff169050919050565b600061088682610c59565b90508073ffffffffffffffffffffffffffffffffffffffff168373ffffffffffffffffffffffffffffffffffffffff1614156108f7576040517f08c379a00000000000000000000000000000000000000000000000000000000081526004016108ee90613660565b60405180910390fd5b8073ffffffffffffffffffffffffffffffffffffffff16610916611be8565b73ffffffffffffffffffffffffffffffffffffffff16148061094557506109448161093f611be8565b6118dd565b5b610984576040517f08c379a000000000000000000000000000000000000000000000000000000000815260040161097b906134c0565b60405180910390fd5b61098e8383611bf0565b505050565b6109a461099e611be8565b82611ca9565b6109e3576040517f08c379a00000000000000000000000000000000000000000000000000000000081526004016109da90613680565b60405180910390fd5b6109ee838383611d87565b505050565b6060600060075467ffffffffffffffff811115610a1357610a12613b5d565b5b604051908082528060200260200182016040528015610a4c57816020015b610a396127bc565b815260200190600190039081610a315790505b50905060005b600754811015610bb857610a646127bc565b600d600083815260200190815260200160002060000154816000018181525050600d600083815260200190815260200160002060010160009054906101000a900473ffffffffffffffffffffffffffffffffffffffff16816020019073ffffffffffffffffffffffffffffffffffffffff16908173ffffffffffffffffffffffffffffffffffffffff1681525050600d600083815260200190815260200160002060010160149054906101000a900460ff16816040019015159081151581525050600d600083815260200190815260200160002060020154816060018181525050600d600083815260200190815260200160002060030154816080018181525050600d6000838152602001908152602001600020600401548160a001818152505080838381518110610b9957610b98613b2e565b5b6020026020010181905250508080610bb090613a27565b915050610a52565b508091505090565b6000806000905060005b600754811015610c275760011515600d600083815260200190815260200160002060010160149054906101000a900460ff1615151415610c1457600182610c1191906137f9565b91505b8080610c1f90613a27565b915050610bca565b508091505090565b610c4a83838360405180602001604052806000815250611182565b505050565b6000600854905090565b6000806002600084815260200190815260200160002060009054906101000a900473ffffffffffffffffffffffffffffffffffffffff169050600073ffffffffffffffffffffffffffffffffffffffff168173ffffffffffffffffffffffffffffffffffffffff161415610d02576040517f08c379a0000000000000000000000000000000000000000000000000000000008152600401610cf990613520565b60405180910390fd5b80915050919050565b60008073ffffffffffffffffffffffffffffffffffffffff168273ffffffffffffffffffffffffffffffffffffffff161415610d7c576040517f08c379a0000000000000000000000000000000000000000000000000000000008152600401610d7390613500565b60405180910390fd5b600360008373ffffffffffffffffffffffffffffffffffffffff1673ffffffffffffffffffffffffffffffffffffffff168152602001908152602001600020549050919050565b81610dcd81610c59565b73ffffffffffffffffffffffffffffffffffffffff163373ffffffffffffffffffffffffffffffffffffffff1614610e3a576040517f08c379a0000000000000000000000000000000000000000000000000000000008152600401610e31906134a0565b60405180910390fd5b6001600d600085815260200190815260200160002060010160146101000a81548160ff02191690831515021790555081600d600085815260200190815260200160002060020181905550505050565b6000600754905090565b606060018054610ea2906139c4565b80601f0160208091040260200160405190810160405280929190818152602001828054610ece906139c4565b8015610f1b5780601f10610ef057610100808354040283529160200191610f1b565b820191906000526020600020905b815481529060010190602001808311610efe57829003601f168201915b5050505050905090565b600060085460075410610f6d576040517f08c379a0000000000000000000000000000000000000000000000000000000008152600401610f64906134e0565b60405180910390fd5b600c543414610fb1576040517f08c379a0000000000000000000000000000000000000000000000000000000008152600401610fa890613640565b60405180910390fd5b600a60009054906101000a900473ffffffffffffffffffffffffffffffffffffffff1673ffffffffffffffffffffffffffffffffffffffff166108fc349081150290604051600060405180830381858888f19350505050158015611019573d6000803e3d6000fd5b50600060075490506040518060c0016040528060075481526020013373ffffffffffffffffffffffffffffffffffffffff168152602001600015158152602001600c548152602001600c54815260200142815250600d60008381526020019081526020016000206000820151816000015560208201518160010160006101000a81548173ffffffffffffffffffffffffffffffffffffffff021916908373ffffffffffffffffffffffffffffffffffffffff16021790555060408201518160010160146101000a81548160ff021916908315150217905550606082015181600201556080820151816003015560a0820151816004015590505061111e33600754611fe3565b61114b600960009054906101000a900473ffffffffffffffffffffffffffffffffffffffff16600161116c565b60016007600082825461115e91906137f9565b925050819055508091505090565b61117e611177611be8565b83836121b1565b5050565b61119361118d611be8565b83611ca9565b6111d2576040517f08c379a00000000000000000000000000000000000000000000000000000000081526004016111c990613680565b60405180910390fd5b6111de8484848461231e565b50505050565b806111ee81610c59565b73ffffffffffffffffffffffffffffffffffffffff163373ffffffffffffffffffffffffffffffffffffffff161461125b576040517f08c379a0000000000000000000000000000000000000000000000000000000008152600401611252906134a0565b60405180910390fd5b6000600d600084815260200190815260200160002060010160146101000a81548160ff0219169083151502179055505050565b8060011515600d600083815260200190815260200160002060010160149054906101000a900460ff161515146112f9576040517f08c379a00000000000000000000000000000000000000000000000000000000081526004016112f090613400565b60405180910390fd5b8161130381610c59565b73ffffffffffffffffffffffffffffffffffffffff163373ffffffffffffffffffffffffffffffffffffffff161415611371576040517f08c379a000000000000000000000000000000000000000000000000000000000815260040161136890613580565b60405180910390fd5b600d60008481526020019081526020016000206002015434146113c9576040517f08c379a00000000000000000000000000000000000000000000000000000000081526004016113c0906135c0565b60405180910390fd5b60006113d484610c59565b90506000349050600060076064346113ec919061384f565b6113f69190613880565b9050600a60009054906101000a900473ffffffffffffffffffffffffffffffffffffffff1673ffffffffffffffffffffffffffffffffffffffff166108fc829081150290604051600060405180830381858888f19350505050158015611460573d6000803e3d6000fd5b508273ffffffffffffffffffffffffffffffffffffffff166108fc828461148791906138da565b9081150290604051600060405180830381858888f193505050501580156114b2573d6000803e3d6000fd5b506114be833388611d87565b6040518060c001604052808781526020013373ffffffffffffffffffffffffffffffffffffffff16815260200160001515815260200183815260200183815260200142815250600d60008881526020019081526020016000206000820151816000015560208201518160010160006101000a81548173ffffffffffffffffffffffffffffffffffffffff021916908373ffffffffffffffffffffffffffffffffffffffff16021790555060408201518160010160146101000a81548160ff021916908315150217905550606082015181600201556080820151816003015560a08201518160040155905050505050505050565b60606115bc82611b7c565b6115fb576040517f08c379a00000000000000000000000000000000000000000000000000000000081526004016115f2906135a0565b60405180910390fd5b600060066000848152602001908152602001600020805461161b906139c4565b80601f0160208091040260200160405190810160405280929190818152602001828054611647906139c4565b80156116945780601f1061166957610100808354040283529160200191611694565b820191906000526020600020905b81548152906001019060200180831161167757829003601f168201915b5050505050905060006116a561237a565b90506000815114156116bb5781925050506116fe565b6000825111156116f05780826040516020016116d89291906132d6565b604051602081830303815290604052925050506116fe565b6116f984612391565b925050505b919050565b600a60009054906101000a900473ffffffffffffffffffffffffffffffffffffffff1673ffffffffffffffffffffffffffffffffffffffff163373ffffffffffffffffffffffffffffffffffffffff1614611793576040517f08c379a000000000000000000000000000000000000000000000000000000000815260040161178a906136a0565b60405180910390fd5b61179d8282612438565b5050565b6060600b80546117b0906139c4565b80601f01602080910402602001604051908101604052809291908181526020018280546117dc906139c4565b80156118295780601f106117fe57610100808354040283529160200191611829565b820191906000526020600020905b81548152906001019060200180831161180c57829003601f168201915b5050505050905090565b600a60009054906101000a900473ffffffffffffffffffffffffffffffffffffffff1673ffffffffffffffffffffffffffffffffffffffff163373ffffffffffffffffffffffffffffffffffffffff16146118c3576040517f08c379a00000000000000000000000000000000000000000000000000000000081526004016118ba906136a0565b60405180910390fd5b80600b90805190602001906118d992919061280a565b5050565b6000600560008473ffffffffffffffffffffffffffffffffffffffff1673ffffffffffffffffffffffffffffffffffffffff16815260200190815260200160002060008373ffffffffffffffffffffffffffffffffffffffff1673ffffffffffffffffffffffffffffffffffffffff16815260200190815260200160002060009054906101000a900460ff16905092915050565b8161197b81610c59565b73ffffffffffffffffffffffffffffffffffffffff163373ffffffffffffffffffffffffffffffffffffffff16146119e8576040517f08c379a00000000000000000000000000000000000000000000000000000000081526004016119df906134a0565b60405180910390fd5b6064821015611a2c576040517f08c379a0000000000000000000000000000000000000000000000000000000008152600401611a23906133c0565b60405180910390fd5b81600d600085815260200190815260200160002060020181905550505050565b611a546127bc565b600d60008381526020019081526020016000206040518060c0016040529081600082015481526020016001820160009054906101000a900473ffffffffffffffffffffffffffffffffffffffff1673ffffffffffffffffffffffffffffffffffffffff1673ffffffffffffffffffffffffffffffffffffffff1681526020016001820160149054906101000a900460ff1615151515815260200160028201548152602001600382015481526020016004820154815250509050919050565b60007f01ffc9a7000000000000000000000000000000000000000000000000000000007bffffffffffffffffffffffffffffffffffffffffffffffffffffffff1916827bffffffffffffffffffffffffffffffffffffffffffffffffffffffff1916149050919050565b60008073ffffffffffffffffffffffffffffffffffffffff166002600084815260200190815260200160002060009054906101000a900473ffffffffffffffffffffffffffffffffffffffff1673ffffffffffffffffffffffffffffffffffffffff1614159050919050565b600033905090565b816004600083815260200190815260200160002060006101000a81548173ffffffffffffffffffffffffffffffffffffffff021916908373ffffffffffffffffffffffffffffffffffffffff160217905550808273ffffffffffffffffffffffffffffffffffffffff16611c6383610c59565b73ffffffffffffffffffffffffffffffffffffffff167f8c5be1e5ebec7d5bd14f71427d1e84f3dd0314c0f7b2291e5b200ac8c7c3b92560405160405180910390a45050565b6000611cb482611b7c565b611cf3576040517f08c379a0000000000000000000000000000000000000000000000000000000008152600401611cea90613480565b60405180910390fd5b6000611cfe83610c59565b90508073ffffffffffffffffffffffffffffffffffffffff168473ffffffffffffffffffffffffffffffffffffffff161480611d6d57508373ffffffffffffffffffffffffffffffffffffffff16611d55846107f6565b73ffffffffffffffffffffffffffffffffffffffff16145b80611d7e5750611d7d81856118dd565b5b91505092915050565b8273ffffffffffffffffffffffffffffffffffffffff16611da782610c59565b73ffffffffffffffffffffffffffffffffffffffff1614611dfd576040517f08c379a0000000000000000000000000000000000000000000000000000000008152600401611df490613600565b60405180910390fd5b600073ffffffffffffffffffffffffffffffffffffffff168273ffffffffffffffffffffffffffffffffffffffff161415611e6d576040517f08c379a0000000000000000000000000000000000000000000000000000000008152600401611e6490613440565b60405180910390fd5b611e788383836124ac565b611e83600082611bf0565b6001600360008573ffffffffffffffffffffffffffffffffffffffff1673ffffffffffffffffffffffffffffffffffffffff1681526020019081526020016000206000828254611ed391906138da565b925050819055506001600360008473ffffffffffffffffffffffffffffffffffffffff1673ffffffffffffffffffffffffffffffffffffffff1681526020019081526020016000206000828254611f2a91906137f9565b92505081905550816002600083815260200190815260200160002060006101000a81548173ffffffffffffffffffffffffffffffffffffffff021916908373ffffffffffffffffffffffffffffffffffffffff160217905550808273ffffffffffffffffffffffffffffffffffffffff168473ffffffffffffffffffffffffffffffffffffffff167fddf252ad1be2c89b69c2b068fc378daa952ba7f163c4a11628f55a4df523b3ef60405160405180910390a4505050565b600073ffffffffffffffffffffffffffffffffffffffff168273ffffffffffffffffffffffffffffffffffffffff161415612053576040517f08c379a000000000000000000000000000000000000000000000000000000000815260040161204a90613560565b60405180910390fd5b61205c81611b7c565b1561209c576040517f08c379a000000000000000000000000000000000000000000000000000000000815260040161209390613420565b60405180910390fd5b6120a8600083836124ac565b6001600360008473ffffffffffffffffffffffffffffffffffffffff1673ffffffffffffffffffffffffffffffffffffffff16815260200190815260200160002060008282546120f891906137f9565b92505081905550816002600083815260200190815260200160002060006101000a81548173ffffffffffffffffffffffffffffffffffffffff021916908373ffffffffffffffffffffffffffffffffffffffff160217905550808273ffffffffffffffffffffffffffffffffffffffff16600073ffffffffffffffffffffffffffffffffffffffff167fddf252ad1be2c89b69c2b068fc378daa952ba7f163c4a11628f55a4df523b3ef60405160405180910390a45050565b8173ffffffffffffffffffffffffffffffffffffffff168373ffffffffffffffffffffffffffffffffffffffff161415612220576040517f08c379a000000000000000000000000000000000000000000000000000000000815260040161221790613460565b60405180910390fd5b80600560008573ffffffffffffffffffffffffffffffffffffffff1673ffffffffffffffffffffffffffffffffffffffff16815260200190815260200160002060008473ffffffffffffffffffffffffffffffffffffffff1673ffffffffffffffffffffffffffffffffffffffff16815260200190815260200160002060006101000a81548160ff0219169083151502179055508173ffffffffffffffffffffffffffffffffffffffff168373ffffffffffffffffffffffffffffffffffffffff167f17307eab39ab6107e8899845ad3d59bd9653f200f220920489ca2b5937696c31836040516123119190613383565b60405180910390a3505050565b612329848484611d87565b612335848484846124b1565b612374576040517f08c379a000000000000000000000000000000000000000000000000000000000815260040161236b906133e0565b60405180910390fd5b50505050565b606060405180602001604052806000815250905090565b606061239c82611b7c565b6123db576040517f08c379a00000000000000000000000000000000000000000000000000000000081526004016123d290613620565b60405180910390fd5b60006123e561237a565b905060008151116124055760405180602001604052806000815250612430565b8061240f84612648565b6040516020016124209291906132d6565b6040516020818303038152906040525b915050919050565b61244182611b7c565b612480576040517f08c379a000000000000000000000000000000000000000000000000000000000815260040161247790613540565b60405180910390fd5b806006600084815260200190815260200160002090805190602001906124a792919061280a565b505050565b505050565b60006124d28473ffffffffffffffffffffffffffffffffffffffff166127a9565b1561263b578373ffffffffffffffffffffffffffffffffffffffff1663150b7a026124fb611be8565b8786866040518563ffffffff1660e01b815260040161251d9493929190613315565b602060405180830381600087803b15801561253757600080fd5b505af192505050801561256857506040513d601f19601f820116820180604052508101906125659190612be6565b60015b6125eb573d8060008114612598576040519150601f19603f3d011682016040523d82523d6000602084013e61259d565b606091505b506000815114156125e3576040517f08c379a00000000000000000000000000000000000000000000000000000000081526004016125da906133e0565b60405180910390fd5b805181602001fd5b63150b7a0260e01b7bffffffffffffffffffffffffffffffffffffffffffffffffffffffff1916817bffffffffffffffffffffffffffffffffffffffffffffffffffffffff191614915050612640565b600190505b949350505050565b60606000821415612690576040518060400160405280600181526020017f300000000000000000000000000000000000000000000000000000000000000081525090506127a4565b600082905060005b600082146126c25780806126ab90613a27565b915050600a826126bb919061384f565b9150612698565b60008167ffffffffffffffff8111156126de576126dd613b5d565b5b6040519080825280601f01601f1916602001820160405280156127105781602001600182028036833780820191505090505b5090505b6000851461279d5760018261272991906138da565b9150600a856127389190613a70565b603061274491906137f9565b60f81b81838151811061275a57612759613b2e565b5b60200101907effffffffffffffffffffffffffffffffffffffffffffffffffffffffffffff1916908160001a905350600a85612796919061384f565b9450612714565b8093505050505b919050565b600080823b905060008111915050919050565b6040518060c0016040528060008152602001600073ffffffffffffffffffffffffffffffffffffffff1681526020016000151581526020016000815260200160008152602001600081525090565b828054612816906139c4565b90600052602060002090601f016020900481019282612838576000855561287f565b82601f1061285157805160ff191683800117855561287f565b8280016001018555821561287f579182015b8281111561287e578251825591602001919060010190612863565b5b50905061288c9190612890565b5090565b5b808211156128a9576000816000905550600101612891565b5090565b60006128c06128bb8461371b565b6136f6565b9050828152602081018484840111156128dc576128db613b91565b5b6128e7848285613982565b509392505050565b60006129026128fd8461374c565b6136f6565b90508281526020810184848401111561291e5761291d613b91565b5b612929848285613982565b509392505050565b600081359050612940816141e9565b92915050565b60008135905061295581614200565b92915050565b60008135905061296a81614217565b92915050565b60008151905061297f81614217565b92915050565b600082601f83011261299a57612999613b8c565b5b81356129aa8482602086016128ad565b91505092915050565b600082601f8301126129c8576129c7613b8c565b5b81356129d88482602086016128ef565b91505092915050565b6000813590506129f08161422e565b92915050565b600060208284031215612a0c57612a0b613b9b565b5b6000612a1a84828501612931565b91505092915050565b60008060408385031215612a3a57612a39613b9b565b5b6000612a4885828601612931565b9250506020612a5985828601612931565b9150509250929050565b600080600060608486031215612a7c57612a7b613b9b565b5b6000612a8a86828701612931565b9350506020612a9b86828701612931565b9250506040612aac868287016129e1565b9150509250925092565b60008060008060808587031215612ad057612acf613b9b565b5b6000612ade87828801612931565b9450506020612aef87828801612931565b9350506040612b00878288016129e1565b925050606085013567ffffffffffffffff811115612b2157612b20613b96565b5b612b2d87828801612985565b91505092959194509250565b60008060408385031215612b5057612b4f613b9b565b5b6000612b5e85828601612931565b9250506020612b6f85828601612946565b9150509250929050565b60008060408385031215612b9057612b8f613b9b565b5b6000612b9e85828601612931565b9250506020612baf858286016129e1565b9150509250929050565b600060208284031215612bcf57612bce613b9b565b5b6000612bdd8482850161295b565b91505092915050565b600060208284031215612bfc57612bfb613b9b565b5b6000612c0a84828501612970565b91505092915050565b600060208284031215612c2957612c28613b9b565b5b600082013567ffffffffffffffff811115612c4757612c46613b96565b5b612c53848285016129b3565b91505092915050565b600060208284031215612c7257612c71613b9b565b5b6000612c80848285016129e1565b91505092915050565b60008060408385031215612ca057612c9f613b9b565b5b6000612cae858286016129e1565b925050602083013567ffffffffffffffff811115612ccf57612cce613b96565b5b612cdb858286016129b3565b9150509250929050565b60008060408385031215612cfc57612cfb613b9b565b5b6000612d0a858286016129e1565b9250506020612d1b858286016129e1565b9150509250929050565b6000612d3183836131c2565b60c08301905092915050565b612d468161390e565b82525050565b612d558161390e565b82525050565b6000612d668261378d565b612d7081856137bb565b9350612d7b8361377d565b8060005b83811015612dac578151612d938882612d25565b9750612d9e836137ae565b925050600181019050612d7f565b5085935050505092915050565b612dc281613920565b82525050565b612dd181613920565b82525050565b6000612de282613798565b612dec81856137cc565b9350612dfc818560208601613991565b612e0581613ba0565b840191505092915050565b6000612e1b826137a3565b612e2581856137dd565b9350612e35818560208601613991565b612e3e81613ba0565b840191505092915050565b6000612e54826137a3565b612e5e81856137ee565b9350612e6e818560208601613991565b80840191505092915050565b6000612e876011836137dd565b9150612e9282613bb1565b602082019050919050565b6000612eaa6032836137dd565b9150612eb582613bda565b604082019050919050565b6000612ecd601a836137dd565b9150612ed882613c29565b602082019050919050565b6000612ef0601c836137dd565b9150612efb82613c52565b602082019050919050565b6000612f136024836137dd565b9150612f1e82613c7b565b604082019050919050565b6000612f366019836137dd565b9150612f4182613cca565b602082019050919050565b6000612f59602c836137dd565b9150612f6482613cf3565b604082019050919050565b6000612f7c602c836137dd565b9150612f8782613d42565b604082019050919050565b6000612f9f6038836137dd565b9150612faa82613d91565b604082019050919050565b6000612fc2602a836137dd565b9150612fcd82613de0565b604082019050919050565b6000612fe5602a836137dd565b9150612ff082613e2f565b604082019050919050565b60006130086029836137dd565b915061301382613e7e565b604082019050919050565b600061302b602e836137dd565b915061303682613ecd565b604082019050919050565b600061304e6020836137dd565b915061305982613f1c565b602082019050919050565b6000613071601a836137dd565b915061307c82613f45565b602082019050919050565b60006130946031836137dd565b915061309f82613f6e565b604082019050919050565b60006130b76010836137dd565b91506130c282613fbd565b602082019050919050565b60006130da602c836137dd565b91506130e582613fe6565b604082019050919050565b60006130fd6029836137dd565b915061310882614035565b604082019050919050565b6000613120602f836137dd565b915061312b82614084565b604082019050919050565b60006131436019836137dd565b915061314e826140d3565b602082019050919050565b60006131666021836137dd565b9150613171826140fc565b604082019050919050565b60006131896031836137dd565b91506131948261414b565b604082019050919050565b60006131ac6028836137dd565b91506131b78261419a565b604082019050919050565b60c0820160008201516131d860008501826132b8565b5060208201516131eb6020850182612d3d565b5060408201516131fe6040850182612db9565b50606082015161321160608501826132b8565b50608082015161322460808501826132b8565b5060a082015161323760a08501826132b8565b50505050565b60c08201600082015161325360008501826132b8565b5060208201516132666020850182612d3d565b5060408201516132796040850182612db9565b50606082015161328c60608501826132b8565b50608082015161329f60808501826132b8565b5060a08201516132b260a08501826132b8565b50505050565b6132c181613978565b82525050565b6132d081613978565b82525050565b60006132e28285612e49565b91506132ee8284612e49565b91508190509392505050565b600060208201905061330f6000830184612d4c565b92915050565b600060808201905061332a6000830187612d4c565b6133376020830186612d4c565b61334460408301856132c7565b81810360608301526133568184612dd7565b905095945050505050565b6000602082019050818103600083015261337b8184612d5b565b905092915050565b60006020820190506133986000830184612dc8565b92915050565b600060208201905081810360008301526133b88184612e10565b905092915050565b600060208201905081810360008301526133d981612e7a565b9050919050565b600060208201905081810360008301526133f981612e9d565b9050919050565b6000602082019050818103600083015261341981612ec0565b9050919050565b6000602082019050818103600083015261343981612ee3565b9050919050565b6000602082019050818103600083015261345981612f06565b9050919050565b6000602082019050818103600083015261347981612f29565b9050919050565b6000602082019050818103600083015261349981612f4c565b9050919050565b600060208201905081810360008301526134b981612f6f565b9050919050565b600060208201905081810360008301526134d981612f92565b9050919050565b600060208201905081810360008301526134f981612fb5565b9050919050565b6000602082019050818103600083015261351981612fd8565b9050919050565b6000602082019050818103600083015261353981612ffb565b9050919050565b600060208201905081810360008301526135598161301e565b9050919050565b6000602082019050818103600083015261357981613041565b9050919050565b6000602082019050818103600083015261359981613064565b9050919050565b600060208201905081810360008301526135b981613087565b9050919050565b600060208201905081810360008301526135d9816130aa565b9050919050565b600060208201905081810360008301526135f9816130cd565b9050919050565b60006020820190508181036000830152613619816130f0565b9050919050565b6000602082019050818103600083015261363981613113565b9050919050565b6000602082019050818103600083015261365981613136565b9050919050565b6000602082019050818103600083015261367981613159565b9050919050565b600060208201905081810360008301526136998161317c565b9050919050565b600060208201905081810360008301526136b98161319f565b9050919050565b600060c0820190506136d5600083018461323d565b92915050565b60006020820190506136f060008301846132c7565b92915050565b6000613700613711565b905061370c82826139f6565b919050565b6000604051905090565b600067ffffffffffffffff82111561373657613735613b5d565b5b61373f82613ba0565b9050602081019050919050565b600067ffffffffffffffff82111561376757613766613b5d565b5b61377082613ba0565b9050602081019050919050565b6000819050602082019050919050565b600081519050919050565b600081519050919050565b600081519050919050565b6000602082019050919050565b600082825260208201905092915050565b600082825260208201905092915050565b600082825260208201905092915050565b600081905092915050565b600061380482613978565b915061380f83613978565b9250827fffffffffffffffffffffffffffffffffffffffffffffffffffffffffffffffff0382111561384457613843613aa1565b5b828201905092915050565b600061385a82613978565b915061386583613978565b92508261387557613874613ad0565b5b828204905092915050565b600061388b82613978565b915061389683613978565b9250817fffffffffffffffffffffffffffffffffffffffffffffffffffffffffffffffff04831182151516156138cf576138ce613aa1565b5b828202905092915050565b60006138e582613978565b91506138f083613978565b92508282101561390357613902613aa1565b5b828203905092915050565b600061391982613958565b9050919050565b60008115159050919050565b60007fffffffff0000000000000000000000000000000000000000000000000000000082169050919050565b600073ffffffffffffffffffffffffffffffffffffffff82169050919050565b6000819050919050565b82818337600083830152505050565b60005b838110156139af578082015181840152602081019050613994565b838111156139be576000848401525b50505050565b600060028204905060018216806139dc57607f821691505b602082108114156139f0576139ef613aff565b5b50919050565b6139ff82613ba0565b810181811067ffffffffffffffff82111715613a1e57613a1d613b5d565b5b80604052505050565b6000613a3282613978565b91507fffffffffffffffffffffffffffffffffffffffffffffffffffffffffffffffff821415613a6557613a64613aa1565b5b600182019050919050565b6000613a7b82613978565b9150613a8683613978565b925082613a9657613a95613ad0565b5b828206905092915050565b7f4e487b7100000000000000000000000000000000000000000000000000000000600052601160045260246000fd5b7f4e487b7100000000000000000000000000000000000000000000000000000000600052601260045260246000fd5b7f4e487b7100000000000000000000000000000000000000000000000000000000600052602260045260246000fd5b7f4e487b7100000000000000000000000000000000000000000000000000000000600052603260045260246000fd5b7f4e487b7100000000000000000000000000000000000000000000000000000000600052604160045260246000fd5b600080fd5b600080fd5b600080fd5b600080fd5b6000601f19601f8301169050919050565b7f70726963652073657420746f6f206c6f77000000000000000000000000000000600082015250565b7f4552433732313a207472616e7366657220746f206e6f6e20455243373231526560008201527f63656976657220696d706c656d656e7465720000000000000000000000000000602082015250565b7f5468697320746f6b656e206973206e6f7420666f722073616c65000000000000600082015250565b7f4552433732313a20746f6b656e20616c7265616479206d696e74656400000000600082015250565b7f4552433732313a207472616e7366657220746f20746865207a65726f2061646460008201527f7265737300000000000000000000000000000000000000000000000000000000602082015250565b7f4552433732313a20617070726f766520746f2063616c6c657200000000000000600082015250565b7f4552433732313a206f70657261746f7220717565727920666f72206e6f6e657860008201527f697374656e7420746f6b656e0000000000000000000000000000000000000000602082015250565b7f4f6e6c792074686520746f6b656e206f776e65722063616e20706572666f726d60008201527f207468697320616374696f6e0000000000000000000000000000000000000000602082015250565b7f4552433732313a20617070726f76652063616c6c6572206973206e6f74206f7760008201527f6e6572206e6f7220617070726f76656420666f7220616c6c0000000000000000602082015250565b7f546865204e46542068617320616c72656164792072656163686564206d61786960008201527f6d756d20737570706c7900000000000000000000000000000000000000000000602082015250565b7f4552433732313a2062616c616e636520717565727920666f7220746865207a6560008201527f726f206164647265737300000000000000000000000000000000000000000000602082015250565b7f4552433732313a206f776e657220717565727920666f72206e6f6e657869737460008201527f656e7420746f6b656e0000000000000000000000000000000000000000000000602082015250565b7f45524337323155524953746f726167653a2055524920736574206f66206e6f6e60008201527f6578697374656e7420746f6b656e000000000000000000000000000000000000602082015250565b7f4552433732313a206d696e7420746f20746865207a65726f2061646472657373600082015250565b7f596f7520616c7265616479206f776e207468697320746f6b656e000000000000600082015250565b7f45524337323155524953746f726167653a2055524920717565727920666f722060008201527f6e6f6e6578697374656e7420746f6b656e000000000000000000000000000000602082015250565b7f77726f6e672076616c75652073656e7400000000000000000000000000000000600082015250565b7f4552433732313a20617070726f76656420717565727920666f72206e6f6e657860008201527f697374656e7420746f6b656e0000000000000000000000000000000000000000602082015250565b7f4552433732313a207472616e73666572206f6620746f6b656e2074686174206960008201527f73206e6f74206f776e0000000000000000000000000000000000000000000000602082015250565b7f4552433732314d657461646174613a2055524920717565727920666f72206e6f60008201527f6e6578697374656e7420746f6b656e0000000000000000000000000000000000602082015250565b7f4e6f7420656e6f75676820457468207761732070617373656400000000000000600082015250565b7f4552433732313a20617070726f76616c20746f2063757272656e74206f776e6560008201527f7200000000000000000000000000000000000000000000000000000000000000602082015250565b7f4552433732313a207472616e736665722063616c6c6572206973206e6f74206f60008201527f776e6572206e6f7220617070726f766564000000000000000000000000000000602082015250565b7f6f6e6c79207468652063726561746f722063616e20706572666f726d2074686960008201527f7320616374696f6e000000000000000000000000000000000000000000000000602082015250565b6141f28161390e565b81146141fd57600080fd5b50565b61420981613920565b811461421457600080fd5b50565b6142208161392c565b811461422b57600080fd5b50565b61423781613978565b811461424257600080fd5b5056fea264697066735822122029ad41c13e621a313abdc35591a86e7101ebd7f14a6b4e2c590cc08b0a2de0dd64736f6c63430008070033",
    "linkReferences": {},
    "deployedLinkReferences": {}
}