{
    "_format": "hh-sol-artifact-1",
    "contractName": "PlanetMarketplace",
    "sourceName": "contracts/PlanetMarketplace.sol",
    "abi": [
        {
            "inputs": [],
            "stateMutability": "nonpayable",
            "type": "constructor"
        },
        {
            "inputs": [
                {
                    "internalType": "address",
                    "name": "nftAddress",
                    "type": "address"
                }
            ],
            "name": "createNew",
            "outputs": [],
            "stateMutability": "nonpayable",
            "type": "function"
        },
        {
            "inputs": [],
            "name": "getAll",
            "outputs": [
                {
                    "components": [
                        {
                            "internalType": "address",
                            "name": "nftAddress",
                            "type": "address"
                        },
                        {
                            "internalType": "uint256",
                            "name": "totalForSale",
                            "type": "uint256"
                        }
                    ],
                    "internalType": "struct PlanetMarketplace.PlanetUI[]",
                    "name": "",
                    "type": "tuple[]"
                }
            ],
            "stateMutability": "view",
            "type": "function"
        }
    ],
    "bytecode": "0x608060405234801561001057600080fd5b50600160008190555033600160006101000a81548173ffffffffffffffffffffffffffffffffffffffff021916908373ffffffffffffffffffffffffffffffffffffffff1602179055506000600281905550610765806100716000396000f3fe608060405234801561001057600080fd5b50600436106100365760003560e01c806353ed51431461003b57806363be8fc814610059575b600080fd5b610043610075565b6040516100509190610539565b60405180910390f35b610073600480360381019061006e919061041c565b61024c565b005b6060600060025467ffffffffffffffff811115610095576100946106cd565b5b6040519080825280602002602001820160405280156100ce57816020015b6100bb6103c2565b8152602001906001900390816100b35790505b50905060005b600254811015610244576100e66103c2565b6003600083815260200190815260200160002060010160009054906101000a900473ffffffffffffffffffffffffffffffffffffffff16816000019073ffffffffffffffffffffffffffffffffffffffff16908173ffffffffffffffffffffffffffffffffffffffff16815250506003600083815260200190815260200160002060020160009054906101000a900473ffffffffffffffffffffffffffffffffffffffff1673ffffffffffffffffffffffffffffffffffffffff16632b013d6d6040518163ffffffff1660e01b815260040160206040518083038186803b1580156101d057600080fd5b505afa1580156101e4573d6000803e3d6000fd5b505050506040513d601f19601f820116820180604052508101906102089190610449565b816020018181525050808383815181106102255761022461069e565b5b602002602001018190525050808061023c90610626565b9150506100d4565b508091505090565b600160009054906101000a900473ffffffffffffffffffffffffffffffffffffffff1673ffffffffffffffffffffffffffffffffffffffff163373ffffffffffffffffffffffffffffffffffffffff16146102a657600080fd5b6000819050604051806060016040528060025481526020018373ffffffffffffffffffffffffffffffffffffffff1681526020018273ffffffffffffffffffffffffffffffffffffffff168152506003600060025481526020019081526020016000206000820151816000015560208201518160010160006101000a81548173ffffffffffffffffffffffffffffffffffffffff021916908373ffffffffffffffffffffffffffffffffffffffff16021790555060408201518160020160006101000a81548173ffffffffffffffffffffffffffffffffffffffff021916908373ffffffffffffffffffffffffffffffffffffffff1602179055509050506001600260008282546103b79190610594565b925050819055505050565b6040518060400160405280600073ffffffffffffffffffffffffffffffffffffffff168152602001600081525090565b60008135905061040181610701565b92915050565b60008151905061041681610718565b92915050565b600060208284031215610432576104316106fc565b5b6000610440848285016103f2565b91505092915050565b60006020828403121561045f5761045e6106fc565b5b600061046d84828501610407565b91505092915050565b600061048283836104fb565b60408301905092915050565b610497816105ea565b82525050565b60006104a88261056b565b6104b28185610583565b93506104bd8361055b565b8060005b838110156104ee5781516104d58882610476565b97506104e083610576565b9250506001810190506104c1565b5085935050505092915050565b604082016000820151610511600085018261048e565b506020820151610524602085018261052a565b50505050565b6105338161061c565b82525050565b60006020820190508181036000830152610553818461049d565b905092915050565b6000819050602082019050919050565b600081519050919050565b6000602082019050919050565b600082825260208201905092915050565b600061059f8261061c565b91506105aa8361061c565b9250827fffffffffffffffffffffffffffffffffffffffffffffffffffffffffffffffff038211156105df576105de61066f565b5b828201905092915050565b60006105f5826105fc565b9050919050565b600073ffffffffffffffffffffffffffffffffffffffff82169050919050565b6000819050919050565b60006106318261061c565b91507fffffffffffffffffffffffffffffffffffffffffffffffffffffffffffffffff8214156106645761066361066f565b5b600182019050919050565b7f4e487b7100000000000000000000000000000000000000000000000000000000600052601160045260246000fd5b7f4e487b7100000000000000000000000000000000000000000000000000000000600052603260045260246000fd5b7f4e487b7100000000000000000000000000000000000000000000000000000000600052604160045260246000fd5b600080fd5b61070a816105ea565b811461071557600080fd5b50565b6107218161061c565b811461072c57600080fd5b5056fea2646970667358221220555b9d9934ce82f7059ee93380c3274e308bf9c5d3dbfdf8dbd3560bfba0cf9464736f6c63430008070033",
    "linkReferences": {},
    "deployedLinkReferences": {}
}